:100000000C945C000C9479000C9479000C947900A9
:100010000C9479000C9479000C9479000C9479007C
:100020000C9479000C9479000C9479000C9479006C
:100030000C9479000C9479000C9479000C9479005C
:100040000C9405010C9479000C9479000C947900BF
:100050000C9479000C9479000C9479000C9479003C
:100060000C9479000C947900000000080002010053
:100070000003040700000000000000000000000072
:10008000250028002B0000000000240027002A0083
:10009000040404040404040402020202020203032E
:1000A0000303030301020408102040800102040836
:1000B000102001020408102011241FBECFEFD8E049
:1000C000DEBFCDBF11E0A0E0B1E0E6E9F4E002C0A0
:1000D00005900D92A231B107D9F721E0A2E1B1E07C
:1000E00001C01D92A932B207E1F70E944F010C94A2
:1000F00049020C94000090E0FC01EC55FF4F249164
:1001000080579F4FFC018491882399F090E0880FDD
:10011000991FFC01EA57FF4FA591B491FC01E458E7
:10012000FF4F859194918FB7F894EC91E22BEC936B
:100130008FBF089590E0FC01E859FF4F2491FC0126
:10014000EC55FF4F3491FC01E057FF4FE491EE2353
:10015000C9F0222339F0233001F1A8F4213019F13C
:10016000223029F1F0E0EE0FFF1FE458FF4FA59178
:10017000B4918FB7F894EC91611126C030953E236D
:100180003C938FBF08952730A9F02830C9F0243060
:1001900049F7809180008F7D03C0809180008F7728
:1001A00080938000DFCF84B58F7784BDDBCF84B5AB
:1001B0008F7DFBCF8091B0008F778093B000D2CF3E
:1001C0008091B0008F7DF9CF3E2BDACF0F931F9334
:1001D000CF93DF93082F162FD42FC8E06D2F661F03
:1001E0006627661F802F0E949A00DD0F61E0812F35
:1001F0000E949A0060E0812F0E949A00C15071F71E
:10020000DF91CF911F910F9108951F920F920FB61A
:100210000F9211242F933F938F939F93AF93BF938C
:100220008091170190911801A0911901B0911A01C4
:100230003091160123E0230F2D3758F50196A11DAB
:10024000B11D209316018093170190931801A0937C
:100250001901B0931A018091120190911301A0919C
:100260001401B09115010196A11DB11D80931201D9
:1002700090931301A0931401B0931501BF91AF9116
:100280009F918F913F912F910F900FBE0F901F90D4
:10029000189526E8230F0296A11DB11DD2CF7894A0
:1002A00084B5826084BD84B5816084BD85B582607B
:1002B00085BD85B5816085BD80916E00816080932C
:1002C0006E00109281008091810082608093810095
:1002D00080918100816080938100809180008160A5
:1002E000809380008091B10084608093B100809100
:1002F000B00081608093B00080917A008460809328
:100300007A0080917A00826080937A0080917A00EE
:10031000816080937A0080917A00806880937A006F
:100320001092C10088E00E947B008CE00E947B005C
:100330008BE00E947B0004E610E08AE0E82EF12CBE
:1003400090EC392E23E0C22ED12C30E0A32E30E0E9
:10035000B32E8FB7F8944090170150901801609019
:10036000190170901A018FBF809123018770982E18
:1003700080902801882D90E0B8010E9421029B0105
:10038000B7010E942102FC01E85FFE4F808180934B
:100390001E01685F7E4FFB01808180931D01285FF5
:1003A0003E4FF901808180931C0130921B0160E077
:1003B00088E00E949A00C92DD0E0FE01E050FF4F76
:1003C00040816CE08BE00E94E600C55EDE4F488114
:1003D0006CE08BE00E94E60093949092230161E030
:1003E00088E00E949A00C6010197F1F761E088E079
:1003F0000E949A008091240190912501A0912601EC
:10040000B0912701A3019201281B390B4A0B5B0B0A
:10041000DA01C901883E9340A105B10558F08394E3
:100420008092280140922401509225016092260179
:1004300070922701A114B10409F48BCF0E9400002F
:1004400088CF97FB072E16F4009407D077FD09D0CC
:100450000E94350207FC05D03EF4909581959F4F90
:100460000895709561957F4F0895AA1BBB1B51E1BC
:1004700007C0AA1FBB1FA617B70710F0A61BB70B14
:10048000881F991F5A95A9F780959095BC01CD01B9
:060490000895F894FFCF6F
:100496000102040810204080C0F9A4B0999282F8A5
:0204A600809044
:00000001FF
