:100000000C949D000C94BA000C94BA000C94BA00A5
:100010000C94BA000C94BA000C94BA000C94BA0078
:100020000C94BA000C94BA000C94BA000C94BA0068
:100030000C94BA000C94BA000C94BA000C94BA0058
:100040000C942B020C94BA000C94BA000C94BA00D5
:100050000C94BA000C94BA000C94BA000C94BA0038
:100060000C94BA000C94BA000000000800020100D1
:100070000003040700000000000000007E306D79DE
:10008000335B5F707F7B771F0D3D4F4700000000A3
:100090000000000000000000000000000000000060
:1000A0000000000000000000800180007E306D79BB
:1000B000335B5F707F7B00000000000000771F0D46
:1000C0003D4F4700370000000E00000067000000B1
:1000D00000000000000000000000000800771F0D75
:1000E0003D4F4700370000000E00151D670000005F
:1000F0000000000000000000000000000000000000
:10010000250028002B0000000000240027002A0002
:1001100004040404040404040202020202020303AD
:1001200003030303010204081020408001020408B5
:100130001020010204081020760311241FBECFEF07
:10014000D8E0DEBFCDBF21E0A0E0B1E001C01D924C
:10015000A136B207E1F710E0CDE9D0E004C0219765
:10016000FE010E94DF03CC39D107C9F70E94750256
:100170000C94E5030C94000090E0FC01EC5DFE4F54
:100180002491805F9E4FFC018491882399F090E038
:10019000880F991FFC01EA5FFE4FA591B491FC0105
:1001A000E450FF4F859194918FB7F894EC91E22B36
:1001B000EC938FBF089590E0FC01E859FF4F249124
:1001C000FC01EC5DFE4F3491FC01E05FFE4FE491D9
:1001D000EE23C9F0222339F0233001F1A8F42130B5
:1001E00019F1223029F1F0E0EE0FFF1FE450FF4F2C
:1001F000A591B4918FB7F894EC91611126C0309518
:100200003E233C938FBF08952730A9F02830C9F0D2
:10021000243049F7809180008F7D03C08091800059
:100220008F7780938000DFCF84B58F7784BDDBCF5D
:1002300084B58F7DFBCF8091B0008F778093B00025
:10024000D2CF8091B0008F7DF9CF3E2BDACF3FB770
:10025000F8948091050190910601A0910701B09159
:10026000080126B5A89B05C02F3F19F00196A11DD6
:10027000B11D3FBFBA2FA92F982F8827BC01CD01F0
:10028000620F711D811D911D42E0660F771F881F4F
:10029000991F4A95D1F708958F929F92AF92BF927E
:1002A000CF92DF92EF92FF926B017C010E942701B7
:1002B0004B015C01C114D104E104F104B9F00E94C6
:1002C0002701681979098A099B09683E73408105ED
:1002D000910580F321E0C21AD108E108F10888EE07
:1002E000880E83E0981EA11CB11CE4CFFF90EF9014
:1002F000DF90CF90BF90AF909F908F900895CF9256
:10030000DF92EF92FF920F931F93CF93DF9300D072
:10031000CDB7DEB769834A83880F991F00915F01CB
:1003200010916001000F111FE9E0F1E09F012950D9
:1003300031402017310714F41192F8CF2981FC01C4
:10034000E75FFE4F21838A81808360E080915D01B9
:100350000E94DB001016110604F501501109F80186
:10036000E75FFE4FE080D0905B01C090590188E0CC
:10037000F82E6E2D661F6627661F8C2D0E94DB00EF
:10038000EE0C61E08D2D0E94DB0060E08D2D0E945F
:10039000DB00FA94F110EDCFDDCF61E080915D01DB
:1003A0000F900F90DF91CF911F910F91FF90EF90E1
:1003B000DF90CF900C94DB00EF92FF921F93CF93CE
:1003C000DF9320915F013091600182179307B4F4AD
:1003D000EC0123E0880F991F2A95E1F79C01275E25
:1003E0003E4F790111E0F70111927F0140E0612F4A
:1003F000CE010E947F011F5F1930A9F7DF91CF91D5
:100400001F91FF90EF90089520915F01309160015E
:100410001216130644F480931901482F61E090E00E
:1004200080E00C947F01089520915F01309160017C
:10043000121613067CF4E62FF0E0E458FF4F4491C7
:10044000FC01E75FFE4F408B61E0680F90E080E0C9
:100450000C947F0108951F920F920FB60F921124F2
:100460002F933F938F939F93AF93BF9380910101FD
:1004700090910201A0910301B0910401309100011B
:1004800023E0230F2D3758F50196A11DB11D2093B0
:1004900000018093010190930201A0930301B093A6
:1004A00004018091050190910601A0910701B0918E
:1004B00008010196A11DB11D8093050190930601CD
:1004C000A0930701B0930801BF91AF919F918F91C5
:1004D0003F912F910F900FBE0F901F90189526E817
:1004E000230F0296A11DB11DD2CF789484B58260EE
:1004F00084BD84B5816084BD85B5826085BD85B5C8
:10050000816085BD80916E00816080936E00109245
:1005100081008091810082608093810080918100C0
:100520008160809381008091800081608093800051
:100530008091B10084608093B1008091B0008160AF
:100540008093B00080917A00846080937A008091DB
:100550007A00826080937A0080917A008160809333
:100560007A0080917A00806880937A001092C100AE
:1005700080915F01909160011816190634F441E0F2
:100580006CE090E080E00E947F0180915F0190919B
:1005900060011816190634F448E06AE090E080E043
:1005A0000E947F0190E080E00E94DC018DEDE82E4A
:1005B00080E0F82E90EEC92E90E0D92E00E010E0F9
:1005C00080915F0190916001181619064CF4F701B3
:1005D00044914093190161E090E080E00E947F0126
:1005E00068EE73E080E090E00E944C0185E00E949C
:1005F000040268EE73E080E090E00E944C0180917C
:100600005F0190916001181619064CF4F6014491AF
:100610004093190161E090E080E00E947F0168EE64
:1006200073E080E090E00E944C018CE10E940402A3
:1006300068EE73E080E090E00E944C0180E10E944F
:10064000040268EE73E080E090E00E944C0185E1D6
:100650000E94040268EE73E080E090E00E944C018A
:100660008DE10E94040268EE73E080E090E00E9459
:100670004C0190E080E00E94DC0168EE73E080E0D5
:1006800090E00E944C01C0E06C2F83E090E00E945B
:100690001402D1E0DC0F6D2F82E090E00E94140282
:1006A00062E06C0F81E090E00E94140263E06C0F46
:1006B00090E080E00E94140268EE73E080E090E039
:1006C0000E944C01CD2FDD30F9F690E080E00E94D1
:1006D000DC0168EE73E080E090E00E944C010115BF
:1006E000110509F46DCF0E9400006ACFCF93DF930C
:1006F000CBE0D0E0D0935A01C093590189E090E05B
:1007000090935C0180935B018AE090E090935E019E
:1007100080935D0181E090E09093600180935F01A0
:100720008BE00E94BC0080915B010E94BC00809124
:100730005D010E94BC0061E080915D010E94DB00D0
:10074000D0935A01C0935901E9E1F1E089E591E0C4
:1007500011928E179F07E1F7D0E0C0E080915F0112
:1007600090916001C817D9073CF540E06FE0CE01D9
:100770000E947F0180915F0190916001C817D907A5
:100780002CF447E06BE0CE010E947F0140E069E07D
:10079000CE010E947F01CE010E94DC0180915F01A9
:1007A00090916001C817D9072CF440E06CE0CE01AD
:1007B0000E947F012196D2CFDF91CF910895EE0F55
:0E07C000FF1F0590F491E02D0994F894FFCFEF
:00000001FF
