:100000000C945D000C9485000C9485000C94850084
:100010000C9485000C9485000C9485000C9485004C
:100020000C9485000C9485000C9485000C9485003C
:100030000C9485000C9485000C9485000C9485002C
:100040000C942A020C9485000C9485000C94850075
:100050000C9485000C9485000C9485000C9485000C
:100060000C9485000C94850000000008000201003B
:100070000003040700000000000000000000000072
:10008000250028002B0000000000240027002A0083
:10009000040404040404040402020202020203032E
:1000A0000303030301020408102040800102040836
:1000B0001020010204081020530311241FBECFEFAB
:1000C000D8E0DEBFCDBF21E0AAE8B1E001C01D92BB
:1000D000AB39B207E1F711E0A0E0B1E0E6E3FBE005
:1000E00002C005900D92AA38B107D9F710E0CDE50E
:1000F000D0E004C02197FE010E94A103CC35D107B6
:10010000C9F70E9474020C9499050C94000090E0C9
:10011000FC01EC55FF4F249180579F4FFC018491C7
:10012000882399F090E0880F991FFC01EA57FF4F50
:10013000A591B491FC01E458FF4F859194918FB73C
:10014000F894EC91E22BEC938FBF089590E0FC01C2
:10015000E859FF4F2491FC01EC55FF4F3491FC010D
:10016000E057FF4FE491EE23C9F0222339F023300A
:1001700001F1A8F4213019F1223029F1F0E0EE0F5D
:10018000FF1FE458FF4FA591B4918FB7F894EC91FD
:10019000611126C030953E233C938FBF08952730D0
:1001A000A9F02830C9F0243049F7809180008F7D74
:1001B00003C0809180008F7780938000DFCF84B56B
:1001C0008F7784BDDBCF84B58F7DFBCF8091B0006E
:1001D0008F778093B000D2CF8091B0008F7DF9CF20
:1001E0003E2BDACF3FB7F89480918F019091900128
:1001F000A0919101B091920126B5A89B05C02F3F17
:1002000019F00196A11DB11D3FBFBA2FA92F982F3C
:100210008827BC01CD01620F711D811D911D42E037
:10022000660F771F881F991F4A95D1F708958F92FF
:100230009F92AF92BF92CF92DF92EF92FF924B01CB
:100240005C010E94F2006B017C010E94F2006C19BB
:100250007D098E099F09683E734081059105A8F3C9
:1002600021E0821A9108A108B10888EEC80E83E047
:10027000D81EE11CF11C81149104A104B10429F7DA
:10028000FF90EF90DF90CF90BF90AF909F908F90B6
:1002900008950F931F93CF93DF93082F162FD42F1A
:1002A000C8E06D2F6170802F0E94A600D69561E096
:1002B000812F0E94A60060E0812F0E94A600C150FD
:1002C00081F7DF91CF911F910F910895CF93DF9325
:1002D000D82FC091960160E08C2F0E94A6004D2F70
:1002E00060919501809194010E94490161E08C2FF9
:1002F000DF91CF910C94A6000F931F93CF93DF93C0
:1003000080E40E946601D091960160E08D2F0E94EA
:10031000A600009195011091940140EC602F812F6F
:100320000E944901C0E140E0602F812F0E944901F5
:10033000C150C9F761E08D2FDF91CF911F910F91CF
:100340000C94A600FF920F931F93CF93DF93C82FB7
:10035000F62E84E40E946601D091960160E08D2F14
:100360000E94A60000919501109194014C2F440F1A
:100370004054602F812F0E9449014F2D602F812F03
:100380000E94490161E08D2FDF91CF911F910F9164
:10039000FF900C94A600EF92FF920F931F93CF93C0
:1003A000DF938C01DC011496EC90F12CFE1410F517
:1003B000D0E0C0E08C2FF80124813581C217D3072B
:1003C00028F40190F081E02D309789F41092930188
:1003D000E3E9F1E0E081F0E0EA5FFE4F60810E9436
:1003E000A2012196C830D10529F7F394DFCFEC0F95
:1003F000FD1FF0CFDF91CF911F910F91FF90EF90F4
:1004000008950F931F93CF93DF93C82FD09194013A
:100410008D2F0E94870084E40E946601109196014E
:1004200060E0812F0E94A600009195014C2F440F9F
:100430004F53602F8D2F0E94490141E0602F8D2F77
:100440000E94490161E0812FDF91CF911F910F91AF
:100450000C94A6001F920F920FB60F9211242F93A7
:100460003F938F939F93AF93BF9380918B01909114
:100470008C01A0918D01B0918E0130918A0123E011
:10048000230F2D3758F50196A11DB11D20938A0128
:1004900080938B0190938C01A0938D01B0938E017A
:1004A00080918F0190919001A0919101B091920162
:1004B0000196A11DB11D80938F0190939001A0938F
:1004C0009101B0939201BF91AF919F918F913F9114
:1004D0002F910F900FBE0F901F90189526E8230FB5
:1004E0000296A11DB11DD2CFCF93DF9300D000D0D3
:1004F00000D0CDB7DEB7789484B5826084BD84B572
:10050000816084BD85B5826085BD85B5816085BD0E
:1005100080916E00816080936E00109281008091C6
:10052000810082608093810080918100816080934E
:100530008100809180008160809380008091B10073
:1005400084608093B1008091B00081608093B0009E
:1005500080917A00846080937A0080917A00826032
:1005600080937A0080917A00816080937A008091F4
:100570007A00806880937A001092C1000E947C010A
:100580001A8219821C821B821E821D8263E070E027
:1005900090E080E00E94CC040097A9F09A838983C0
:1005A00022E030E03C832B832D813E81232B11F40C
:1005B000FC01108222E030E03E832D8366E871E08A
:1005C0000E9492050CC089819A81009711F00E94C7
:1005D00043041A8219821E821D821C821B82CE0154
:1005E00001960E94CB0189819A81009711F00E94A7
:1005F000430480E00E94010260ED77E080E090E03B
:100600000E94170182E00E9401026CE186E00E94D4
:10061000A20163E787E00E94A20187E00E94010235
:1006200060ED77E080E090E00E9417016FE780E0E6
:100630000E94A2016FE681E00E94A20167E782E0CA
:100640000E94A2016CE783E00E94A20169E384E0BA
:100650000E94A2016EE585E00E94A20169E786E0A2
:100660000E94A20161E787E00E94A20160ED77E0AD
:1006700080E090E00E94170180E0E82E80E0F82EF4
:1006800010E0812F0E94010268EE73E080E090E0AC
:100690000E9417011F5F1830A1F7E114F10481F3E4
:1006A0000E940000EDCF84E08093960188E0809363
:1006B000940187E08093950184E00E94870087E0A1
:1006C0000E94870088E00E9487008FE80E946601F0
:1006D0000C947C012F923F924F925F926F927F9287
:1006E0008F929F92AF92BF92CF92DF92EF92FF9242
:1006F0000F931F93CF93DF93CDB7DEB7CA1BDB0BEE
:100700000FB6F894DEBF0FBECDBF09942A88398892
:1007100048885F846E847D848C849B84AA84B98499
:10072000C884DF80EE80FD800C811B81AA81B981A5
:10073000CE0FD11D0FB6F894DEBF0FBECDBFED01B9
:100740000895EE0FFF1F0590F491E02D09940F938B
:100750001F93CF93DF938230910510F482E090E0F5
:10076000E0919901F0919A0130E020E0B0E0A0E042
:10077000309799F42115310509F44AC0281B390B2B
:1007800024303105D8F58A819B816115710589F185
:10079000FB0193838283FE0111C04081518102815C
:1007A000138148175907E0F04817590799F4109733
:1007B00061F012960C93129713961C933296CF0108
:1007C000DF91CF911F910F9108950093990110939C
:1007D0009A01F4CF2115310551F04217530738F033
:1007E000A901DB019A01BD01DF01F801C1CFEF01D1
:1007F000F9CF90939A0180939901CDCFFE01E20F3A
:10080000F31F819391932250310939832883D7CFE5
:100810002091970130919801232B41F420910201FE
:1008200030910301309398012093970120910001AA
:10083000309101012115310541F42DB73EB74091AA
:10084000040150910501241B350BE0919701F091B3
:100850009801E217F307A0F42E1B3F0B2817390766
:1008600078F0AC014E5F5F4F2417350748F04E0F0C
:100870005F1F5093980140939701819391939FCF6D
:10088000F0E0E0E09CCFCF93DF930097E9F0FC012C
:10089000329713821282A0919901B0919A01ED01D1
:1008A00030E020E01097A1F420813181820F931F66
:1008B00020919701309198012817390709F061C0FC
:1008C000F0939801E0939701DF91CF910895EA01A9
:1008D000CE17DF07E8F54A815B819E01411551057E
:1008E000B1F7E901FB83EA8349915991C40FD51F00
:1008F000EC17FD0761F4808191810296840F951FAA
:10090000E90199838883828193819B838A83F0E0C4
:10091000E0E012968D919C9113970097B9F52D9177
:100920003C911197CD010296820F931F2091970160
:10093000309198012817390739F6309751F5109200
:100940009A0110929901B0939801A0939701BCCF9E
:10095000D383C28340815181840F951FC817D90763
:1009600061F44E5F5F4F88819981480F591F518311
:1009700040838A819B81938382832115310509F00D
:10098000B0CFF0939A01E09399019ECFFD01DC0175
:10099000C0CF13821282D7CFB0E0A0E0E2EDF4E046
:1009A0000C946C038C01009751F4CB010E94A703B7
:1009B0008C01C801CDB7DEB7E0E10C948803FC01DF
:1009C000E60FF71F9C0122503109E217F30708F4E4
:1009D0009DC0D901CD91DC911197C617D70798F02A
:1009E000C530D10530F3CE0104978617970708F379
:1009F000C61BD70B2297C193D1936D937C93CF01E4
:100A00000E944304D6CF5B01AC1ABD0A4C018C0E88
:100A10009D1EA0919901B0919A01512C412CF12C6D
:100A2000E12C109731F580919701909198018815EC
:100A3000990509F05CC04616570608F058C0809129
:100A4000000190910101009741F48DB79EB740914C
:100A5000040150910501841B950BE817F90708F074
:100A600055C0F0939801E0939701F9017183608379
:100A7000A0CF8D919C91119712966C90129713961E
:100A80007C901397A815B90559F56C0142E0C40E86
:100A9000D11CCA14DB0420F1AC014A195B09DA014C
:100AA0001296159780F06282738251834083D90138
:100AB0006D937C93E114F10471F0D7011396FC93CC
:100AC000EE93129776CF22968C0F9D1FF90191839A
:100AD0008083F301EFCFF0939A01E093990169CFFE
:100AE0004816590608F42C017D01D3019ACFCB0199
:100AF0000E94A7037C01009749F0AE01B8010E9453
:100B00008905C8010E944304870153CF10E000E02B
:100B100050CFFB01DC0102C001900D9241505040CA
:100B2000D8F70895FB01DC0101900D920020E1F758
:060B30000895F894FFCFC8
:100B360000009B0180000000000000000000000093
:100B4600000000000000000000000000000000009F
:100B56000000000000000086227E6DD24620290B90
:100B66002170104080523F065B4F666D7D077F6F98
:100B7600090D614843D35F777C395E79713D7630E4
:100B86001E753815373F736B336D783E3E2A766E89
:100B96005B39640F2308025F7C585E7B716F7410AB
:100BA6000C753014545C7367506D781C1C14766E8B
:0A0BB6005B46307001004568000046
:00000001FF
