:020000040000FA
:100000000C94A2000C9423030C94FC020C94CA00E0
:100010000C94CA000C94CA000C94CA000C94CA0038
:100020000C94CA000C94CA000C94CA000C94CA0028
:100030000C94CA000C94CA000C94CA000C94CA0018
:100040000C94B2020C94CA000C94CA000C94CA001E
:100050000C94CA000C94CA000C94CA000C94CA00F8
:100060000C94CA000C94CA00000000002400270071
:100070002A0000000000250028002B0000000000DE
:1000800023002600290004040404040404040202DA
:100090000202020203030303030301020408102007
:1000A0004080010204081020010204081020000012
:1000B0000008000201000003040700000000000027
:1000C00000007E306D79335B5F707F7B771F0D3D65
:1000D0004F4700000000000000000000000000008A
:1000E000000000000000000000000000000080018F
:1000F00080007E306D79335B5F707F7B0000000095
:10010000000000771F0D3D4F4700370000000E0034
:100110000000670000000000000000000000000078
:10012000000800771F0D3D4F4700370000000E000C
:10013000151D670000000000000000000000000026
:100140000000010511241FBECFEFD8E0DEBFCDBFF8
:1001500011E0A0E0B1E0E8EFF0E102C005900D92FF
:10016000AE31B107D9F721E0AEE1B1E001C01D9297
:10017000A639B207E1F710E0C2EAD0E004C0219747
:10018000FE010E948F05C13AD107C9F70E944A03B8
:100190000C947A080C9400009091270181E0911151
:1001A00080E0809327010895833081F028F4813026
:1001B00099F08230A9F008958730A9F08830C9F00D
:1001C0008430B1F4809180008F7D03C080918000E5
:1001D0008F7780938000089584B58F7784BD0895CC
:1001E00084B58F7DFBCF8091B0008F778093B00076
:1001F00008958091B0008F7DF9CF1F93CF93DF9347
:10020000282F30E0F901E255FF4F8491F901E656BD
:10021000FF4FD491F901EA57FF4FC491CC23A9F0C5
:10022000162F81110E94D400EC2FF0E0EE0FFF1F7B
:10023000EE58FF4FA591B4918FB7F894EC9111113E
:1002400008C0D095DE23DC938FBFDF91CF911F9143
:100250000895DE2BF8CFCF93DF9390E0FC01E656B4
:10026000FF4F24918A579F4FFC0184918823C9F046
:1002700090E0880F991FFC01E859FF4FA591B491B8
:10028000FC01EE58FF4FC591D49161110DC09FB78D
:10029000F8948C91209582238C938881282328833D
:1002A0009FBFDF91CF910895623051F49FB7F894CA
:1002B0003C91822F809583238C93E8812E2BEFCF66
:1002C0008FB7F894EC912E2B2C938FBFEACF089523
:1002D000CF92DF92EF92FF920F931F93CF93DF9312
:1002E00000D0CDB7DEB769834A83880F991F00918C
:1002F000940110919501000F111FEEE3F1E09F01B1
:100300002E5331402017310714F41192F8CF298170
:10031000FC01E25CFE4F21838A81808360E0809152
:1003200092010E94FD001016110604F501501109FA
:10033000F801E25CFE4FE080D0909001C0908E0109
:1003400088E0F82E6E2D661F6627661F8C2D0E9492
:10035000FD00EE0C61E08D2D0E94FD0060E08D2D12
:100360000E94FD00FA94F110EDCFDDCF61E08091A5
:1003700092010F900F90DF91CF911F910F91FF90FD
:10038000EF90DF90CF900C94FD00EF92FF920F93CF
:100390001F93CF937C018C0183E0000F111F8A957E
:1003A000E1F7025B1E4FC1E0F80111928F0140E0BE
:1003B0006C2FC7010E946801CF5FC930A9F7CF91A8
:1003C0001F910F91FF90EF9008952091940130912B
:1003D00095011216130694F467FD60E2E62F660F8E
:1003E000FF0BEE53FF4F4491FC01E25CFE4F408B4C
:1003F00061E0680F90E080E00C9468010895FF923E
:100400000F931F93CF93DF9360E080913C010E9494
:100410002B0100E0D0E0C0E061E080913D010E944E
:10042000FD0060E080913D010E94FD0020913C01B3
:1004300030E0F901E255FF4F8491F901E656FF4F94
:10044000F490F901EA57FF4F1491112319F181112A
:100450000E94D400E12FF0E0EE0FFF1FE458FF4FA1
:10046000A591B491EC91FE2231E009F430E0832FA4
:100470000C2E01C0880F0A94EAF7082B2196C83089
:10048000D10509F0C9CF802FDF91CF911F910F9136
:10049000FF90089580E0ECCFFF920F931F93CF93CE
:1004A000DF93082FF62E61E080913C010E942B0122
:1004B000D0E0C0E010E0B8010C2E02C07595679541
:1004C0000A94E2F7617080913C010E94FD0061E0B6
:1004D00080913D010E94FD0060E0FF2089F0C7305F
:1004E000D10571F480913C010E942B012196C83006
:1004F000D10509F7DF91CF911F910F91FF900895DA
:1005000080913D010E94FD00F1CFFF920F931F9358
:10051000CF93DF93182FF62EEBE3F1E0008160E03C
:1005200082810E94FD0061E0802F0E94FD00CBE0EF
:10053000D0E0CE010197F1F7812F880F60E080684D
:100540000E944C0260E08F2D0E944C0260E0802FE0
:100550000E94FD002197F1F7DF91CF911F910F913C
:10056000FF9008951F920F920FB60F9211242F93B0
:100570003F938F939F93AF93BF938091230190916B
:100580002401A0912501B09126013091220123E0A0
:10059000230F2D3758F50196A11DB11D209322017F
:1005A0008093230190932401A0932501B093260109
:1005B00080911E0190911F01A0912001B091210115
:1005C0000196A11DB11D80931E0190931F01A09360
:1005D0002001B0932101BF91AF919F918F913F91E5
:1005E0002F910F900FBE0F901F90189526E8230FA4
:1005F0000296A11DB11DD2CF1F920F920FB60F927E
:1006000011242F933F934F935F936F937F938F9317
:100610009F93AF93BF93EF93FF93E0910201F0910B
:1006200003010995FF91EF91BF91AF919F918F9138
:100630007F916F915F914F913F912F910F900FBEDE
:100640000F901F9018951F920F920FB60F921124C2
:100650002F933F934F935F936F937F938F939F93CA
:10066000AF93BF93EF93FF93E0910001F0910101ED
:100670000995FF91EF91BF91AF919F918F917F91DC
:100680006F915F914F913F912F910F900FBE0F90FF
:100690001F901895789484B5826084BD84B581607C
:1006A00084BD85B5826085BD85B5816085BD80913D
:1006B0006E00816080936E001092810080918100B5
:1006C00082608093810080918100816080938100AD
:1006D000809180008160809380008091B10084606F
:1006E0008093B1008091B00081608093B0008091D0
:1006F0007A00846080937A0080917A00826080938F
:100700007A0080917A00816080937A0080917A00EB
:10071000806880937A001092C10062E082E00E94BB
:100720002B018CEC90E0909301018093000180916B
:1007300069008C7F826080936900E89A60E887E0B6
:100740000E948502C0E260E08C2F0E948502CF5F8C
:10075000CF33C9F78091940190919501181619062D
:1007600034F441E06CE090E080E00E946801809108
:100770009401909195011816190634F44FE06AE03F
:1007800090E080E00E9468010BE010E02AE0A22ED9
:10079000C8E2D1E03FE0732E44E0E42E41E0F42EC5
:1007A0005CE0652E60E0C62E60E0D62E2FB7F89490
:1007B0008091230190912401A0912501B0912601FF
:1007C0002FBF4091370150913801609139017091EC
:1007D0003A011C012D01241A350A460A570AB201B2
:1007E000A101483E53406105710508F4C7C08093DC
:1007F000370190933801A0933901B0933A014090AA
:100800003B0160E080913D010E94FD0061E0842D8C
:100810000E94FD00C8010197F1F761E08FEB0E9493
:100820004C020E94FF01982F929597708F70882E2E
:100830009A9D800C11240E94FF01982F92959F7021
:100840008F70982E9A9D900C11240E94FF01282FE2
:1008500030E087FF9AC085FB222720F9269D202DB6
:1008600011248F70B82EB20E0E94FF01982F92951E
:100870009F708F70382E9A9D300C11240E94FF01BA
:10088000982F92959F708F70282E9A9D200C11247E
:100890000E94FF010E94FF01582E60E0842D0E94FB
:1008A000FD00C8010197F1F7FE01472C11924A940F
:1008B000E9F71F923F921F922F92852D82958F709C
:1008C000252D2F708A9D200D112430E02053384FA4
:1008D0003F932F931F928F921F929F921F92BF92CE
:1008E000FF92EF921F927F92DF93CF930E94950524
:1008F000209127018DB79EB742960FB6F8949EBF00
:100900000FBE8DBF8091940190919501222309F42F
:1009100046C01816190624F490E080E00E94C50134
:100920006091300190E080E00E94E501609131012A
:1009300081E090E00E94E5016DE282E090E00E949B
:10094000E5016091320183E090E00E94E501609151
:10095000330184E090E00E94E5016DE285E090E0E3
:100960000E94E5016091340186E090E00E94E5017B
:100970006091350187E090E00E94E501C114D10447
:1009800009F414CF0E94000011CF94E0359527950B
:100990009A95E1F723702A9D202D112462CF181615
:1009A000190624F490E080E00E94C50160912801BE
:1009B00090E080E00E94E5016091290181E090E0F3
:1009C0000E94E5016DE282E090E00E94E501609105
:1009D0002A0183E090E00E94E50160912B0184E010
:1009E00090E00E94E5016DE285E090E00E94E50163
:1009F00060912C0186E090E00E94E50160912D015C
:100A0000B9CFCF93DF93CBE0D0E0D0938F01C093E9
:100A10008E0189E090E090939101809390018AE0AB
:100A200090E0909393018093920181E090E0909305
:100A300095018093940161E08BE00E942B0161E0BD
:100A4000809190010E942B0161E0809192010E94AF
:100A50002B0161E0809192010E94FD00D0938F01F3
:100A6000C0938E01EEE4F1E0119281E0EE38F807D8
:100A7000D9F7D0E0C0E08091940190919501C8171A
:100A8000D90774F540E06FE0CE010E9468018091C3
:100A9000940190919501C817D9072CF447E06BE0B9
:100AA000CE010E94680140E069E0CE010E94680129
:100AB0008091940190919501C817D9071CF4CE013B
:100AC0000E94C5018091940190919501C817D907A2
:100AD0002CF440E06CE0CE010E9468012196CBCF5F
:100AE00088E080933B0187E080933C0186E080931F
:100AF0003D0160E088E00E94FD0061E088E00E9426
:100B00002B0160E087E00E942B0160E086E00E94FC
:100B1000FD0061E086E0DF91CF910C942B01EE0F98
:100B2000FF1F0590F491E02D0994AEE0B0E0EBE9F1
:100B3000F5E00C9451080D891E898F89988D26E067
:100B40002C831A83098397FF02C080E090E8019705
:100B50009E838D83AE01455E5F4F698D7A8DCE0198
:100B600001960E94C5054D815E8157FD0AC02F8107
:100B70003885421753070CF49A01020F131FF8012E
:100B800010822E96E4E00C946D08ABE0B0E0EBEC44
:100B9000F5E00C9443087C013B018A01FC011782BB
:100BA0001682838181FFC8C1CE0101965C01F701E5
:100BB0009381F30193FD859193FF81913F018823F8
:100BC00009F453C1853239F493FD859193FF8191E6
:100BD0003F01853229F4B70190E00E94B507E7CFC5
:100BE000912C212C312CFFE1F31538F08B3211F1CF
:100BF00090F4803209F1833229F137FC3CC020EDBA
:100C0000280F2A3050F536FE20C08AE0989E200D2D
:100C10001124922E06C08D3291F0803371F76894C2
:100C200030F8F30193FD859193FF81913F0181118C
:100C3000DACF21C0689431F8689432F8F2CF689422
:100C400033F8EFCF689434F8ECCFEAE02E9E200D15
:100C50001124222E689435F8E4CF8E3229F436FC24
:100C600004C1689436F8DDCF8C3619F4689437F8EF
:100C7000D8CF8836B1F2982F9F7D95549330E0F00D
:100C80008336A1F18337C1F1833509F063C02801B0
:100C9000F2E04F0E511CF801C080D180692D70E048
:100CA00036FC02C06FEF7FEFC6010E949F074C0128
:100CB000689437F882010AC00C5F1F4FFFE3F98385
:100CC00088248394912C6501E89437F833FE2DC075
:100CD000522C8114910471F5552009F468CFB701A5
:100CE00080E290E00E94B5075A94F6CFF801808127
:100CF00089830E5F1F4FE4CF2801F2E04F0E511C95
:100D0000F801C080D180692D70E036FC02C06FEF21
:100D10007FEFC6010E94AA074C018201D5CFB7011F
:100D200080E290E00E94B5072A942814190409F083
:100D3000B0F7CECFF60137FC859137FE81916F0178
:100D4000B70190E00E94B50751105A94F1E08F1A54
:100D50009108BFCF843619F0893609F077C0F801C1
:100D600037FE6BC060817181828193810C5F1F4F60
:100D7000F32DFF763F2E97FF09C0909580957095D3
:100D800061957F4F8F4F9F4F689437F82AE030E08E
:100D9000A5010E94E507C82ECA188C2C432C36FEEC
:100DA0000CC0E89440F8C91440F434FE05C032FC8D
:100DB00003C0F32DFE7E4F2E892C44FE95C0FE010C
:100DC000EC0DF11D8081803309F087C0242D297E30
:100DD000422E842D8870582E43FC95C040FE8FC053
:100DE0009C2C821418F42C0C922C981844FE91C060
:100DF000B70180E390E00E94B50742FE09C088E792
:100E000090E041FE02C088E590E0B7010E94B5077E
:100E1000C91408F48AC0CA94D12C9FEFC91AD90A00
:100E2000CA0CDB1CF60182916F01B70190E00E94B1
:100E3000B507AC14BD04B1F74FCF60817181072EA7
:100E4000000C880B990B0E5F1F4F92CFD32CE894A8
:100E5000D4F82AE030E0853739F1232D297FD22ECE
:100E60008F3601F148F48835A9F0F7018681978122
:100E70002B96E2E10C945F08803749F08837A9F798
:100E8000D4FE02C06894D2F820E130E00DC068942E
:100E9000D4F8F6CF34FE03C0822F8660D82E20E12E
:100EA00032E002C028E030E0F801D7FE0FC06081D8
:100EB0007181828193810C5F1F4FA5010E94E5071C
:100EC000C82ECA183D2CE89437F867CF608171812D
:100ED00090E080E00E5F1F4FF0CF42FC02C0839491
:100EE00078CF8394839475CF842D867809F471CF5D
:100EF000F6CFB70180E290E00E94B5078394821498
:100F0000C0F3512C73CF522C5818821408F46ECFB2
:100F1000F8CF842D867809F47BCF8BE241FE80E206
:100F200047FC8DE2B70190E071CFB70180E390E01C
:100F30000E94B5079A946CCF8FEF9FEF99CFFC0179
:100F40000590615070400110D8F7809590958E0FF4
:100F50009F1F0895FC016150704001900110D8F767
:100F6000809590958E0F9F1F08950F931F93CF9399
:100F7000DF93182F092FEB018B8181FD09C01FEF33
:100F80000FEF812F902FDF91CF911F910F91089537
:100F900082FF14C02E813F818C819D8128173907E3
:100FA0003CF4E881F981CF0101969983888310830D
:100FB0008E819F8101969F838E83E3CFE885F9859B
:100FC000812F0995892BA1F3DACFFA01AA272830BE
:100FD00051F1203181F1E8946F936E7F6E5F7F4F06
:100FE0008F4F9F4FAF4FB1E03ED0B4E03CD0670F82
:100FF000781F891F9A1FA11D680F791F8A1F911DD5
:10100000A11D6A0F711D811D911DA11D20D009F424
:1010100068943F912AE0269F11243019305D319366
:10102000DEF6CF010895462F4770405D4193B3E04F
:101030000FD0C9F7F6CF462F4F70405D4A3318F0F6
:10104000495D31FD4052419302D0A9F7EACFB4E0A7
:10105000A6959795879577956795BA95C9F700975F
:101060006105710508959B01AC010A2E0694579500
:10107000479537952795BA95C9F7620F731F841F57
:10108000951FA01D08952F923F924F925F926F92ED
:101090007F928F929F92AF92BF92CF92DF92EF9208
:1010A000FF920F931F93CF93DF93CDB7DEB7CA1B89
:1010B000DB0B0FB6F894DEBF0FBECDBF09942A88B4
:1010C000398848885F846E847D848C849B84AA845C
:1010D000B984C884DF80EE80FD800C811B81AA81E9
:1010E000B981CE0FD11D0FB6F894DEBF0FBECDBFB4
:1010F000ED010895F894FFCF670167012530326450
:101100002530326425303264253032642530326433
:06111000253032640000EE
:107E0000112484B714BE81FFF0D085E080938100F7
:107E100082E08093C00088E18093C10086E0809377
:107E2000C20080E18093C4008EE0C9D0259A86E02C
:107E300020E33CEF91E0309385002093840096BBD3
:107E4000B09BFECF1D9AA8958150A9F7CC24DD24C4
:107E500088248394B5E0AB2EA1E19A2EF3E0BF2EE7
:107E6000A2D0813461F49FD0082FAFD0023811F036
:107E7000013811F484E001C083E08DD089C08234E0
:107E800011F484E103C0853419F485E0A6D080C0E4
:107E9000853579F488D0E82EFF2485D0082F10E0AE
:107EA000102F00270E291F29000F111F8ED06801E7
:107EB0006FC0863521F484E090D080E0DECF843638
:107EC00009F040C070D06FD0082F6DD080E0C81688
:107ED00080E7D80618F4F601B7BEE895C0E0D1E017
:107EE00062D089930C17E1F7F0E0CF16F0E7DF06D8
:107EF00018F0F601B7BEE89568D007B600FCFDCFD4
:107F0000A601A0E0B1E02C9130E011968C91119780
:107F100090E0982F8827822B932B1296FA010C0160
:107F200087BEE89511244E5F5F4FF1E0A038BF0790
:107F300051F7F601A7BEE89507B600FCFDCF97BE46
:107F4000E89526C08437B1F42ED02DD0F82E2BD052
:107F50003CD0F601EF2C8F010F5F1F4F84911BD097
:107F6000EA94F801C1F70894C11CD11CFA94CF0C13
:107F7000D11C0EC0853739F428D08EE10CD085E9AC
:107F80000AD08FE07ACF813511F488E018D01DD067
:107F900080E101D065CF982F8091C00085FFFCCF94
:107FA0009093C60008958091C00087FFFCCF809118
:107FB000C00084FD01C0A8958091C6000895E0E648
:107FC000F0E098E1908380830895EDDF803219F02E
:107FD00088E0F5DFFFCF84E1DECF1F93182FE3DFCA
:107FE0001150E9F7F2DF1F91089580E0E8DFEE27F6
:047FF000FF270994CA
:027FFE00040479
:00000001FF
