:020000040000FA
:100000000C945C000C9479000C9479000C947900A9
:100010000C9479000C9479000C94830B0C94790067
:100020000C9479000C9479000C9479000C9479006C
:100030000C9479000C9479000C9479000C9479005C
:100040000C9444010C9479000C9479000C94790080
:100050000C9479000C9479000C9479000C9479003C
:100060000C9479000C947900000000080002010053
:100070000003040700000000000000000000000072
:10008000250028002B0000000000240027002A0083
:10009000040404040404040402020202020203032E
:1000A0000303030301020408102040800102040836
:1000B000102001020408102011241FBECFEFD8E049
:1000C000DEBFCDBF11E0A0E0B1E0E0ECFBE102C09B
:1000D00005900D92A431B107D9F721E0A4E1B1E078
:1000E00001C01D92A63AB207E1F70E94860B0C945C
:1000F000DE0D0C94000090E0FC01EC55FF4F2491C4
:1001000080579F4FFC018491882399F090E0880FDD
:10011000991FFC01EA57FF4FA591B491FC01E458E7
:10012000FF4F859194918FB7F894EC91E22BEC936B
:100130008FBF089590E0FC01E859FF4F2491FC0126
:10014000EC55FF4F3491FC01E057FF4FE491EE2353
:10015000C9F0222339F0233001F1A8F4213019F13C
:10016000223029F1F0E0EE0FFF1FE458FF4FA59178
:10017000B4918FB7F894EC91611126C030953E236D
:100180003C938FBF08952730A9F02830C9F0243060
:1001900049F7809180008F7D03C0809180008F7728
:1001A00080938000DFCF84B58F7784BDDBCF84B5AB
:1001B0008F7DFBCF8091B0008F778093B000D2CF3E
:1001C0008091B0008F7DF9CF3E2BDACF89E00E947D
:1001D0007B0061E089E00E949A0082E390E00E9447
:1001E000AE0660E089E00E949A0082E390E00E94FF
:1001F000AE06EFCF86E00E947B0061E086E00E94C1
:100200009A0084E690E00E94AE0660E086E00E94DC
:100210009A0084E690E00E94AE06EFCF8AE00E944A
:100220007B0061E08AE00E949A008BE490E00E94EB
:10023000AE0660E08AE00E949A008BE490E00E94A3
:10024000AE06EFCF0F931F9310E000E021E040E4F3
:1002500050E070E060E086EE90E00E94560A21E0F7
:1002600040E450E070E060E08AEF90E00E94560ABF
:1002700021E040E450E070E060E08EE091E00E9418
:10028000560A1F910F9108951F920F920FB60F9269
:1002900011242F933F938F939F93AF93BF9380919C
:1002A000450190914601A0914701B09148013091DC
:1002B000440123E0230F2D3758F50196A11DB11DF0
:1002C000209344018093450190934601A0934701F8
:1002D000B09348018091400190914101A091420169
:1002E000B09143010196A11DB11D809340019093EF
:1002F0004101A0934201B0934301BF91AF919F91FF
:100300008F913F912F910F900FBE0F901F901895D6
:1003100026E8230F0296A11DB11DD2CFE0914B011B
:10032000F0914C018081811107C08FEF9FEF909376
:100330003D0180933C010895E0914B01F0914C0107
:100340000580F681E02D80819181F1CFCF93DF93FD
:10035000DC011596ED91FC910680F781E02DA489D2
:10036000B5898685978520893189EC013D832C8369
:10037000C089D1899B838A83CF010C9611962D91D8
:100380003C9112972817390721F41296DC93CE93EB
:100390001197158A148A2C9121502C9320911B01BE
:1003A000211157C0A285B38584819581268137812B
:1003B000EC013D832C83C681D7819B838A83CF0147
:1003C000029611962D913C9112972817390721F426
:1003D0001296DC93CE931197138612862C9121509E
:1003E0002C93C68920919E012C1710F4C0939E0176
:1003F00029E02C9FE0011124C658DE4F0980DA81E4
:10040000C02DD583C4834C815D8157834683AC81E5
:10041000BD8113969C938E9312979D838C83A6899E
:10042000A29FD0011124A658BE4FB387A2878C91FA
:100430008F5F8C93A0911401B09115019689569607
:100440008C91891730F581E080931A01DF91CF916B
:100450000895A0916001B0916101B787A6871496B5
:100460002D913C911597318B208B1496CD91DC9179
:1004700015979B838A8315969C938E9314978FE58B
:1004800091E0958B848B80915F018F5F80935F01FA
:10049000D1CF80E0DBCF0FB6F8940F9280913A0174
:1004A00090913B010F900FBE089580911B018F5FCB
:1004B00080931B0108950FB6F8940F92FC01928D62
:1004C0000F900FBE81E0911180E00895EF92FF92AE
:1004D0000F931F93CF93DF93EC010FB6F8940F9215
:1004E0001E8D7C0181E1E80EF11C01E01116D4F0B3
:1004F0008FEF8E8F0F900FBE0FB6F8940F921D8D59
:100500007E0188E0E80EF11C01E01116B4F08FEFD7
:100510008D8F0F900FBEDF91CF911F910F91FF90A4
:10052000EF9008958989882319F3C7010E94A601D5
:10053000811100931A011150D9CF8885882339F38E
:10054000C7010E94A601811100931A011150DDCF4D
:10055000CF93DF93FC01A085B185828193812481B3
:100560003581EC013D832C83C481D5819B838A83B3
:1005700011968D919C9112978E179F0721F41296D8
:10058000DC93CE931197118610868C9181508C93B9
:100590008C91DF91CF9108950F931F93CF93DF93A9
:1005A0008C01FB0180819181D80113968F3F9807C0
:1005B000F1F4E801AF81B88512968D919C91139763
:1005C00093838283EC01FD83EC83B583A48313962C
:1005D000FC93EE93129711870087F80180818F5F5B
:1005E0008083DF91CF911F910F910895D9011296C9
:1005F0002D913C911397E901488159818417950702
:10060000A8F7DACFFC01738362839187808746174E
:10061000570790F0421B530B84859585481759075F
:10062000C8F4BF016E5F7F4F80912001909121013E
:100630000E94CC0280E008954217530718F4621715
:10064000730740F4BF016E5F7F4F8091220190914C
:100650002301EECF81E00895EF92FF920F931F9355
:10066000CF93DF93EC018B017A016C857D85600F60
:10067000711F9801A701CE010E940203811107C0DA
:10068000DF91CF911F910F91FF90EF9008958C858E
:100690009D85080F191FE889F989CE010995E5CFD5
:1006A000EF92FF920F931F93CF93DF938C017B0107
:1006B000E0912201F09123010580F681E02DC681B1
:1006C000D781CE0102960E94A8028A8982FF0FC0BC
:1006D000A701B801CE010E942C03E889F989CE0157
:1006E000DF91CF911F910F91FF90EF9009948E7F32
:1006F0008A8BF3CFE0912201F09123018081811157
:100700000DC080912001909121019093230180934D
:100710002201F0932101E093200108950580F681E4
:10072000E02D6FEF7FEF808191810E945003E2CF37
:10073000FF920F931F93CF93DF93EC01F62E00915E
:100740003A0110913B01809114019091150102969C
:100750000E94A802CF3FDC07E9F5FF20D9F1E09124
:100760004E01F0914F01A0911401B0911501159621
:10077000FC93EE931497A0911401B091150184811C
:10078000958117969C938E93169780911401909162
:100790001501A481B581029613969C938E931297AE
:1007A0008091140190911501029695838483E091C4
:1007B0001401F09115018DE491E093878287809177
:1007C0004D018F5F80934D01DF91CF911F910F916C
:1007D000FF900895C00FD11FE0911401F091150111
:1007E000D383C2836091140170911501C017D107A2
:1007F00068F48091490190914A016E5F7F4FDF91CB
:10080000CF911F910F91FF900C94CC0280914B01DE
:1008100090914C016E5F7F4F0E94CC0280913C0111
:1008200090913D01C817D90778F6D0933D01C09348
:100830003C01CACFFC010396928381832FEF3FEFE7
:1008400034832383968385839087878310820895DA
:100850000F920FB6F8940F921F9211242F923F928D
:100860004F925F926F927F928F929F92AF92BF92C0
:10087000CF92DF92EF92FF920F931F932F933F93AC
:100880004F935F936F937F938F939F93AF93BF9398
:10089000CF93DF93EF93FF93A0911401B0911501D3
:1008A0000DB60D920EB60D9280911B01882321F09A
:1008B00081E080931A015FC010921A01A091140187
:1008C000B0911501E0911401F09115012D913C9129
:1008D0008789908D82179307A8F0809114019091D9
:1008E00015018091140190911501259A2D9A2FEFF1
:1008F00087EA91E6215080409040E1F700C0000077
:100900001D9AF5CF20919E0189E001C02150422F10
:1009100050E0849FF001859FF00D1124E658FE4FB2
:100920009081992399F3A181B28112960D90BC9187
:10093000A02DB283A183289FC001112483589E4F0C
:10094000A817B90729F412968D919C9192838183FF
:1009500089E0849FF001859FF00D1124E658FE4F39
:100960000180F281E02D868197819093150180931B
:10097000140120939E01A0911401B0911501CD9115
:10098000CDBFDD91DEBFFF91EF91DF91CF91BF91A0
:10099000AF919F918F917F916F915F914F913F9117
:1009A0002F911F910F91FF90EF90DF90CF90BF900C
:1009B000AF909F908F907F906F905F904F903F90FF
:1009C0002F901F900F900FBE0F9008958F929F92BF
:1009D000BF92CF92DF92EF92FF920F931F93CF932C
:1009E000DF930FB6F8940F9280911B018150809392
:1009F0001B0180911B01882379F080E00F900FBECE
:100A0000DF91CF911F910F91FF90EF90DF90CF90EA
:100A1000BF909F908F9008958091A101882369F3E2
:100A2000E0906401F0906501F0E0E0E039E041E041
:100A300080915F0181115EC0EF2B11F00E948E0149
:100A4000E0901801F0901901E114F10409F47DC15E
:100A500089E0D82ECC24C3940FEF1FEF80911B01A7
:100A6000811161C1C0913A01D0913B014E018FEFDC
:100A7000881A980A90923B0180923A01811491045D
:100A8000B9F480914B0190914C0120914901309132
:100A90004A0130934C0120934B0190934A0180937B
:100AA000490180911F018F5F80931F010E948E0179
:100AB00080913C0190913D01B12C8816990608F077
:100AC00026C1E0911401F0911501E689DE9EF00146
:100AD0001124E658FE4F8081823010F0BB24B3947D
:100AE00080911A01811103C0BB2009F425C1C09275
:100AF0001A0122C1D7011696ED91FC91A489B589FE
:100B00006685778580899189EB019D838C838089B7
:100B10009189EC017B836A83BF01645F7F4F1196EB
:100B20000D911C9112970617170721F412969C93AA
:100B30008E931197158A148A8C9181508C93A2857B
:100B4000B3858481958166817781EC017D836C8397
:100B500066817781EB019B838A83CF010296119690
:100B60000D911C9112970817190721F412967C9386
:100B70006E931197138612862C9121502C93A6897F
:100B800020919E012A1710F4A0939E013A9FD00154
:100B90001124A658BE4F11960D90BC91A02DB5837F
:100BA000A48314966D917C91159777836683149630
:100BB0006D917C911597EB019B838A8315969C938D
:100BC0008E9314979689939FD0011124A658BE4FF7
:100BD000B387A2878C918F5F8C93A0911401B09101
:100BE000150156968C91981708F422CF40931A015C
:100BF0001FCFE0914B01F0914C010580F681E02D73
:100C00000680F781E02D828193818816990628F469
:100C100090933D0180933C0154CFC285D38584815C
:100C2000958126813781DC0115963C932E9314978C
:100C300026813781D90113969C938E931297CF0109
:100C4000029649815A814817590711F43A8329833A
:100C500013861286288121502883A489B58910978C
:100C6000F9F02685378540895189E9015D834C83F8
:100C700040895189EA013B832A8311966D917C91C9
:100C800012979F01245F3F4F6217730721F412965A
:100C90005C934E931197158A148A2C9121502C93B2
:100CA000A68920919E012A1710F4A0939E01DA9E36
:100CB000D0011124A658BE4F11960D90BC91A02DC5
:100CC000B583A48314962D913C9115973783268381
:100CD00014962D913C911597E9019B838A83159673
:100CE0009C938E93149796899D9DD0011124A658AC
:100CF000BE4FB387A2878C918F5F8C93E0911401D4
:100D0000F09115018689981710F0BB24B394E091F7
:100D10004B01F0914C01808181116BCF10933D010B
:100D200000933C01CECE809118019091190101965B
:100D30009093190180931801D1E0ED1AF10809F0A0
:100D40008DCE109219011092180180911A018823FA
:100D500009F453CE0E94280481E050CECF93DF9354
:100D6000EC010E94550260E0CE010E9498030E94AF
:100D7000E604811102C00E942804DF91CF910895FA
:100D80000F920FB6F8940F921F9211242F923F9258
:100D90004F925F926F927F928F929F92AF92BF928B
:100DA000CF92DF92EF92FF920F931F932F933F9377
:100DB0004F935F936F937F938F939F93AF93BF9363
:100DC000CF93DF93EF93FF93A0911401B09115019E
:100DD0000DB60D920EB60D9213BE80911B018111BE
:100DE000F9C080913A0190913B01019690933B01AB
:100DF00080933A01009781F520914B0130914C018D
:100E00004091490150914A0150934C0140934B014C
:100E100030934A012093490120911F012F5F2093B5
:100E20001F01E0914B01F0914C012081211107C07D
:100E30002FEF3FEF30933D0120933C010DC0E09137
:100E40004B01F0914C010580F681E02D208131812C
:100E500030933D0120933C0120913C0130913D01B4
:100E60008217930710F420E0A1C020E039E0D32ED0
:100E7000E0914B01F0914C013081311107C08FEFAF
:100E80009FEF90933D0180933C0190C0E0914B0116
:100E9000F0914C010580F681E02D0680F781E02D70
:100EA000428153818417950728F450933D01409364
:100EB0003C017CC0A285B3854481558166817781E0
:100EC000EA017D836C8366817781EB015B834A83D2
:100ED000AF014E5F5F4F11960D911C911297041751
:100EE000150721F412967C936E9311971386128640
:100EF0003C9131503C93A489B5891097F9F06685EF
:100F0000778500891189EB011D830C830089118984
:100F1000E8017B836A831196ED90FC901297BF01E4
:100F2000645F7F4FE616F70621F412961C930E932A
:100F30001197158A148A3C9131503C93A6893091BF
:100F40009E013A1710F4A0939E01DA9ED00111245D
:100F5000A658BE4F11960D90BC91A02DB583A483C9
:100F600014966D917C9115977783668314966D9195
:100F70007C911597EB015B834A8315965C934E93A6
:100F8000149746894D9DD0011124A658BE4FB387B2
:100F9000A2873C913F5F3C93E0911401F0911501D1
:100FA0003689431708F464CF21E062CFE091140141
:100FB000F0911501E689D9E0ED9FF0011124E65882
:100FC000FE4F8081823008F021E080911A0181116A
:100FD0000EC00AC08091180190911901019690935A
:100FE0001901809318016AC0222309F467C0809117
:100FF0001B01882321F081E080931A015FC01092C9
:101000001A01A0911401B0911501E0911401F09121
:1010100015012D913C918789908D82179307A8F037
:101020008091140190911501809114019091150106
:10103000259A2D9A2FEF87EA91E621508040904023
:10104000E1F700C000001D9AF5CF20919E0189E0D4
:1010500001C02150422F50E0849FF001859FF00D88
:101060001124E658FE4F9081992399F3A181B28112
:1010700012960D90BC91A02DB283A183289FC00130
:10108000112483589E4FA817B90729F412968D9101
:101090009C919283818389E0849FF001859FF00D6C
:1010A0001124E658FE4F0180F281E02D8681978160
:1010B000909315018093140120939E01A091140137
:1010C000B0911501CD91CDBFDD91DEBFFF91EF91C4
:1010D000DF91CF91BF91AF919F918F917F916F9150
:1010E0005F914F913F912F911F910F91FF90EF9042
:1010F000DF90CF90BF90AF909F908F907F906F9038
:101100005F904F903F902F901F900F900FBE0F90C9
:101110000895CF93DF93009751F0EC010E945502A0
:10112000CE010E943F0DDF91CF910C94E604DF9138
:10113000CF910895CF93DF9300D000D01F92CDB709
:10114000DEB7E0912201F09123011081F12CE12C16
:10115000112329F00580F681E02DE080F1800E94C6
:1011600055020E944B026C0180911D0190911E015D
:10117000C816D90608F085C00E947A03D0921E01D5
:10118000C0921D010E94E6040091380110913901BE
:101190000FB6F8940F92D8015A96FC905A97FF20F8
:1011A00009F430C15C964C915C97442301F150E006
:1011B00016968D919C911797840F951F17969C9367
:1011C0008E93169714962D913C911597821793073D
:1011D00038F08D919C91119717969C938E9316974A
:1011E000F80166817781CE0101960E94CE0DFA94B6
:1011F000D8015A96FC925A9718968C91882339F008
:10120000C80108960E94A60181110E9428040F902F
:101210000FBED980D7FCB8CF0C811D81D8011A969A
:101220008D919C91892B21F0C80102960E94A80201
:101230000E944B027C0180911D0190911E01E816D5
:10124000F90610F40E947A03F0921E01E0921D014B
:10125000EFEFED0DE93008F097CF0E2E000CFF0BED
:10126000E85CF64FD80152968C9152970C94C80DB9
:10127000BB09BB09FE09E609F809BB09BB09FE0960
:10128000E609D0921E01C0921D01112351F0CE1427
:10129000DF0470F00E94E604B601C7010E9450030B
:1012A00073CFE0912001F0912101808161E08111F3
:1012B00060E000913801109139010FB6F8940F9257
:1012C000D8015D968C915D978F3F11F45D961C92CD
:1012D000F801868D8F3F09F4168E0F900FBED8014E
:1012E0005A968C915A9781113CC05296ED91FC917F
:1012F000A0911401B09115011F96FC93EE931E97D7
:10130000A0911401B09115018481958151969C930F
:101310008E9350978091140190911501A481B5810D
:101320000C9613969C938E93129780911401909132
:1013300015010C9695838483E0911401F0911501B9
:10134000C8014196958B848BF80181898F5F818BD1
:10135000C7018C199D09662311F08FEF9FEF0E9442
:101360009803C8010E9466020E94E60481110CCF16
:101370000E94280409CF8160F801828BCA80DB803B
:10138000648575856C0D7D1D9601A701C8010E94BD
:101390000203882309F4F8CED80152968C91529713
:1013A00082FF10C01C966D917C916C0D7D1DA70174
:1013B000C8010E942C03D8015096ED91FC91C80100
:1013C0000995E2CE8E7FF801828BF5CF816052962F
:1013D0008C9352976A817B811D967C936E931C97A8
:1013E0006E0D7F1D9701A701C8010E940203CCCE9C
:1013F00081FD04C0C8010E948908C6CE8E7FF80115
:10140000828BC2CE0F900FBE9CCE00E010E0809188
:101410001C0181110CC080917A01823010F00E9471
:1014200028040115110599F30E940000F0CF0FB6B2
:10143000F8940F92E0915B01F0915C01C681D78135
:10144000CE0102960E94A8028091A1018150809352
:10145000A10180911C01815080931C010F900FBE4F
:101460008F89988D0E948908CE010E948908CFCF6C
:10147000CF93DF93EC010E945502CE010E94A30C92
:10148000EC010E94E604209769F4259A2D9A2FEF2B
:1014900080E792E0215080409040E1F700C00000DA
:1014A0001D9AF5CFCE01DF91CF9108957F928F9253
:1014B0009F92AF92BF92CF92DF92EF92FF920F93E3
:1014C0001F93CF93DF93782E892E7B016A01922E92
:1014D000CA010E94380A5C01892BF1F088E290E091
:1014E0000E94380AEC01892BA1F0B88EAF8AA601C0
:1014F00065EA70E0C5010E94D70D81E0C81AD108E5
:10150000EF89F88DEC0DFD1DE114F104A1F4198EA5
:1015100028C0C5010E9489088FEFDF91CF911F91EC
:101520000F91FF90EF90DF90CF90BF90AF909F9082
:101530008F907F900895CE0149969701285F3F4F85
:10154000D7014D917D01DC014D93CD01A7014150A3
:101550005109DA014C91442319F0E216F30681F7A0
:1015600018A29E8A99A21AA21B861A861D8A1C8A14
:10157000D987C88784E090E0891991099D878C8775
:10158000DB8BCA8B84E09E012D5D3F4FD9011D92FC
:101590008A95E9F71FA27082DF0111978C9211974B
:1015A0001C92119780E88C9311971C9257971C926C
:1015B00011971C92B397F983E8830115110519F06F
:1015C000F801D183C0830FB6F8940F928091A101E6
:1015D0008F5F8093A1018091140190911501892B57
:1015E00009F07FC0D0931501C09314018091A1012F
:1015F000813081F58AE791E00E941A0483E891E046
:101600000E941A048CE891E00E941A0485E991E096
:101610000E941A0481E791E00E941A0488E691E092
:101620000E941A048FE591E00E941A0486E591E079
:101630000E941A048DE491E00E941A0481E791E06F
:1016400090934C0180934B0188E691E090934A017E
:101650008093490180919F018F5F80939F01AE89A4
:1016600080919E018A1710F4A0939E0129E02A9F81
:10167000D0011124A658BE4F11960D90BC91A02DFB
:10168000BD83AC8314968D919C9115979F838E8317
:101690001496ED91FC911597CE0102969383828367
:1016A00015969C938E931497EE89E29FF001112476
:1016B000E658FE4FFB87EA8780818F5F80830F901B
:1016C0000FBE8091A001882351F0E0911401F091A8
:1016D000150196898E89981710F40E94280481E0DC
:1016E0001CCF8091A0018111B5CFE0911401F09140
:1016F000150196898E89891708F4ACCFD09315010E
:10170000C0931401A7CF0E94C0061895789484B5A1
:10171000826084BD84B5816084BD85B5826085BDED
:1017200085B5816085BD80916E00816080936E007B
:10173000109281008091810082608093810080916D
:10174000810081608093810080918000816080931E
:1017500080008091B10084608093B1008091B000DE
:1017600081608093B00080917A00846080937A00D9
:1017700080917A00826080937A0080917A00816003
:1017800080937A0080917A00806880937A0010922A
:10179000C10020910501309106018FEF98E0821B76
:1017A000930B90930201809301010E9422010EE3AA
:1017B00011E020E040EC50E067E071E085E09AE065
:1017C0000E94560A813009F0B3C00FB6F8940F9208
:1017D0008091380190913901892B09F04FC08DE239
:1017E00091E00E941A0484E291E00E941A048DE2C2
:1017F00091E0909323018093220184E291E0909301
:1018000021018093200181E590E00E94380AEC01DB
:10181000009781F14F96998388838AE08B8F85E0CA
:101820008C8F0FB6F8940F92888199812B8D4C8DF7
:10183000BC01249F600D711D11247D836C831A8E61
:101840009B838A832150330B429FB001439F700DCD
:101850001124860F971F9F838E838FEF8D8F8E8F1E
:10186000CE0108960E941A04CE0141960E941A04E5
:101870000F900FBED0933901C09338010F900FBE67
:101880008091380190913901892B09F451C006E308
:1018900011E023E045E550E06CE071E08AE998E072
:1018A0000E94560A813009F043C0F8942FEF3FEFB1
:1018B00030933D0120933C018093A00110923B01A5
:1018C00010923A01A89588E190EC0FB6F894A8958B
:1018D000809360000FBE90936000A0911401B091BE
:1018E0001501CD91CDBFDD91DEBFFF91EF91DF916D
:1018F000CF91BF91AF919F918F917F916F915F91A8
:101900004F913F912F911F910F91FF90EF90DF909A
:10191000CF90BF90AF909F908F907F906F905F908F
:101920004F903F902F901F900F900FBE0F900895F3
:10193000809100010E942201C0E0D0E02097F1F3E5
:101940000E940000FBCF0F931F93CF93DF93823051
:10195000910510F482E090E0E091A401F091A501DE
:1019600030E020E0B0E0A0E0309799F42115310597
:1019700009F44AC0281B390B24303105D8F58A8177
:101980009B816115710589F1FB0193838283FE01BF
:1019900011C0408151810281138148175907E0F03D
:1019A0004817590799F4109761F012960C93129703
:1019B00013961C933296CF01DF91CF911F910F9117
:1019C00008950093A4011093A501F4CF21153105CA
:1019D00051F04217530738F0A901DB019A01BD010C
:1019E000DF01F801C1CFEF01F9CF9093A5018093FA
:1019F000A401CDCFFE01E20FF31F819391932250FA
:101A0000310939832883D7CF2091A2013091A301D6
:101A1000232B41F420910301309104013093A30161
:101A20002093A2012091010130910201211531057D
:101A300041F42DB73EB74091050150910601241B9A
:101A4000350BE091A201F091A301E217F307A0F496
:101A50002E1B3F0B2817390778F0AC014E5F5F4F04
:101A60002417350748F04E0F5F1F5093A301409392
:101A7000A201819391939FCFF0E0E0E09CCFCF93C0
:101A8000DF930097E9F0FC01329713821282A09154
:101A9000A401B091A501ED0130E020E01097A1F480
:101AA00020813181820F931F2091A2013091A301E7
:101AB0002817390709F061C0F093A301E093A20150
:101AC000DF91CF910895EA01CE17DF07E8F54A814B
:101AD0005B819E0141155105B1F7E901FB83EA8362
:101AE00049915991C40FD51FEC17FD0761F480810E
:101AF00091810296840F951FE901998388838281E1
:101B000093819B838A83F0E0E0E012968D919C9113
:101B100013970097B9F52D913C911197CD0102963D
:101B2000820F931F2091A2013091A301281739073A
:101B300039F6309751F51092A5011092A401B09397
:101B4000A301A093A201BCCFD383C2834081518162
:101B5000840F951FC817D90761F44E5F5F4F8881C6
:101B60009981480F591F518340838A819B819383B8
:101B700082832115310509F0B0CFF093A501E093E0
:101B8000A4019ECFFD01DC01C0CF13821282D7CF0A
:101B9000EE0FFF1F0590F491E02D0994FB01DC018D
:101BA00002C001900D9241505040D8F70895DC01D9
:101BB00001C06D9341505040E0F70895F894FFCF75
:101BC000030000A601800049444C4500546D72207A
:041BD00053766300E5
:107E0000112484B714BE81FFF0D085E080938100F7
:107E100082E08093C00088E18093C10086E0809377
:107E2000C20080E18093C4008EE0C9D0259A86E02C
:107E300020E33CEF91E0309385002093840096BBD3
:107E4000B09BFECF1D9AA8958150A9F7CC24DD24C4
:107E500088248394B5E0AB2EA1E19A2EF3E0BF2EE7
:107E6000A2D0813461F49FD0082FAFD0023811F036
:107E7000013811F484E001C083E08DD089C08234E0
:107E800011F484E103C0853419F485E0A6D080C0E4
:107E9000853579F488D0E82EFF2485D0082F10E0AE
:107EA000102F00270E291F29000F111F8ED06801E7
:107EB0006FC0863521F484E090D080E0DECF843638
:107EC00009F040C070D06FD0082F6DD080E0C81688
:107ED00080E7D80618F4F601B7BEE895C0E0D1E017
:107EE00062D089930C17E1F7F0E0CF16F0E7DF06D8
:107EF00018F0F601B7BEE89568D007B600FCFDCFD4
:107F0000A601A0E0B1E02C9130E011968C91119780
:107F100090E0982F8827822B932B1296FA010C0160
:107F200087BEE89511244E5F5F4FF1E0A038BF0790
:107F300051F7F601A7BEE89507B600FCFDCF97BE46
:107F4000E89526C08437B1F42ED02DD0F82E2BD052
:107F50003CD0F601EF2C8F010F5F1F4F84911BD097
:107F6000EA94F801C1F70894C11CD11CFA94CF0C13
:107F7000D11C0EC0853739F428D08EE10CD085E9AC
:107F80000AD08FE07ACF813511F488E018D01DD067
:107F900080E101D065CF982F8091C00085FFFCCF94
:107FA0009093C60008958091C00087FFFCCF809118
:107FB000C00084FD01C0A8958091C6000895E0E648
:107FC000F0E098E1908380830895EDDF803219F02E
:107FD00088E0F5DFFFCF84E1DECF1F93182FE3DFCA
:107FE0001150E9F7F2DF1F91089580E0E8DFEE27F6
:047FF000FF270994CA
:027FFE00040479
:00000001FF
