:100000000C9462000C948A000C948A000C948A0070
:100010000C948A000C948A000C948A000C948A0038
:100020000C948A000C948A000C948A000C948A0028
:100030000C948A000C948A000C948A000C948A0018
:100040000C9465030C948A000C948A000C948A002A
:100050000C948A000C948A000C948A000C948A00F8
:100060000C948A000C948A000000000024002700F1
:100070002A0000000000250028002B0000000000DE
:1000800023002600290004040404040404040202DA
:100090000202020203030303030301020408102007
:1000A0004080010204081020010204081020000012
:1000B0000008000201000003040700000000000027
:1000C00000004D0511241FBECFEFD8E0DEBFCDBF2D
:1000D00011E0A0E0B1E0ECE2F1E102C005900D9288
:1000E000A433B107D9F721E0A4E3B1E001C01D9228
:1000F000A835B207E1F710E0C2E6D0E004C02197CE
:10010000FE010E94A905C136D107C9F70E94AF03BD
:100110000C9494080C940000AF92BF92CF92DF929F
:10012000EF92FF920F931F93CF93DF936C017B01AC
:100130008B01040F151FEB015E01AE18BF08C0173D
:10014000D10759F06991D601ED91FC910190F081B0
:10015000E02DC6010995892B79F7C501DF91CF9173
:100160001F910F91FF90EF90DF90CF90BF90AF90D5
:100170000895833081F028F4813099F08230A9F01D
:1001800008958730A9F08830C9F08430B1F48091A7
:1001900080008F7D03C0809180008F7780938000E6
:1001A000089584B58F7784BD089584B58F7DFBCF86
:1001B0008091B0008F778093B00008958091B00057
:1001C0008F7DF9CF1F93CF93DF93282F30E0F90174
:1001D000E255FF4F8491F901E656FF4FD491F901A2
:1001E000EA57FF4FC491CC23A9F0162F81110E942A
:1001F000B900EC2FF0E0EE0FFF1FEE58FF4FA59176
:10020000B4918FB7F894EC91111108C0D095DE230A
:10021000DC938FBFDF91CF911F910895DE2BF8CF34
:10022000CF93DF9390E0FC01E656FF4F24918A576D
:100230009F4FFC0184918823D1F090E0880F991F93
:10024000FC01E859FF4FA591B491FC01EE58FF4F16
:10025000C591D49161110EC09FB7F8948C91E22F93
:10026000E0958E238C932881E223E8839FBFDF9162
:10027000CF9108958FB7F894EC91E22BEC938FBF58
:10028000F6CF3FB7F8948091390190913A01A0914F
:100290003B01B0913C0126B5A89B05C02F3F19F04A
:1002A0000196A11DB11D3FBFBA2FA92F982F8827F6
:1002B000BC01CD01620F711D811D911D42E0660FD1
:1002C000771F881F991F4A95D1F70895089590E0E8
:1002D00080E00895FF920F931F93CF93DF9360E028
:1002E00080913E010E94100100E0D0E0C0E061E09A
:1002F00080913F010E94E20060E080913F010E94F6
:10030000E20020913E0130E0F901E255FF4F849177
:10031000F901E656FF4FF490F901EA57FF4F1491A7
:10032000112319F181110E94B900E12FF0E0EE0FC5
:10033000FF1FE458FF4FA591B491EC91FE2231E0EC
:1003400009F430E0832F0C2E01C0880F0A94EAF7DD
:10035000082B2196C830D10509F0C9CF802FDF9135
:10036000CF911F910F91FF90089580E0ECCFFF9205
:100370000F931F93CF93DF93082FF62E61E08091A8
:100380003E010E941001D0E0C0E010E0B8010C2E48
:1003900002C0759567950A94E2F7617080913E01FD
:1003A0000E94E20061E080913F010E94E20060E073
:1003B000FF2089F0C730D10571F480913E010E9481
:1003C00010012196C830D10509F7DF91CF911F9117
:1003D0000F91FF90089580913F010E94E200F1CFBC
:1003E000FF920F931F93CF93DF93182FF62EEDE319
:1003F000F1E0008160E082810E94E20061E0802FF4
:100400000E94E200CBE0D0E0CE010197F1F7812F0E
:10041000880F60E080680E94B70160E08F2D0E9425
:10042000B70160E0802F0E94E2002197F1F7DF9191
:10043000CF911F910F91FF900895CF93DF93EC011F
:1004400060E08E810E94E20061E08E810E94E20005
:1004500060E08E810E94E2008BE891E00197F1F765
:10046000DF91CF910895CF92DF92EF92FF920F9399
:100470001F93CF93DF936C017C0187E0E80EF11CA2
:10048000D0E0C0E0062F10E0B8010C2E02C0759538
:1004900067950A94E2F76170F70181917F010E94EC
:1004A000E2002196C430D10579F7C601DF91CF91E2
:1004B0001F910F91FF90EF90DF90CF900C941D0251
:1004C000CF92DF92EF92FF920F931F93CF93DF9320
:1004D000EC01F62E642F8C810E94E2008D818F3F0B
:1004E00019F060E00E94E2000F2D10E08F8584FF7C
:1004F00025C06E0187E0C80ED11CF12CE12CB8019B
:100500000E2C02C0759567950A94E2F76170F601AA
:1005100081916F010E94E200FFEFEF1AFF0A88E06D
:10052000E816F10461F7CE01DF91CF911F910F9191
:10053000FF90EF90DF90CF900C941D02B80184E003
:10054000759567958A95E1F7CE010E9433026F2D6C
:10055000CE01DF91CF911F910F91FF90EF90DF902F
:10056000CF900C94330240E0682F80E491E00C942B
:100570006002CF93DF93823029F490914F0198600D
:1005800090934F01809353011092540180E4809323
:10059000550180E18093560180E58093570161E029
:1005A000809144010E941001809145018F3F19F014
:1005B00061E00E94100161E0809146010E941001FB
:1005C000C0E4D1E09E012054314080914F0184FD70
:1005D0000BC084E090E021962817390744F461E0CD
:1005E0008E810E941001EECF88E090E0F4CF8BE383
:1005F0009DE00197F1F760E0809144010E94E200E4
:1006000060E0809146010E94E200809145018F3FA9
:1006100019F060E00E94E20080914F0184FD39C032
:1006200063E080E491E00E943302CBE4D6E4CE01A3
:100630000197F1F763E080E491E00E943302219793
:10064000F1F763E080E491E00E94330283E592E0F9
:100650000197F1F762E080E491E00E94330280911B
:100660004F0180620E94B30284E0809350018CE0CD
:100670000E94B30281E00E94B3028BE39FE10197E5
:10068000F1F782E08093510186E0DF91CF910C94E5
:10069000B30280620E94B3028BE496E40197F1F703
:1006A00080914F0180620E94B30283E592E001973E
:1006B000F1F780914F0180620E94B302D0CF41E0F8
:1006C0000E94600281E090E008951F920F920FB6A1
:1006D0000F9211242F933F938F939F93AF93BF93C8
:1006E0008091350190913601A0913701B091380188
:1006F0003091340123E0230F2D3758F50196A11DC9
:10070000B11D209334018093350190933601A0935D
:100710003701B09338018091390190913A01A0914D
:100720003B01B0913C010196A11DB11D809339019F
:1007300090933A01A0933B01B0933C01BF91AF91DC
:100740009F918F913F912F910F900FBE0F901F900F
:10075000189526E8230F0296A11DB11DD2CFCF9385
:10076000DF93CDB7DEB7E7970FB6F894DEBF0FBEC5
:10077000CDBF789484B5826084BD84B5816084BD2A
:1007800085B5826085BD85B5816085BD80916E002F
:10079000816080936E001092810080918100826060
:1007A000809381008091810081608093810080919D
:1007B00080008160809380008091B100846080938C
:1007C000B1008091B00081608093B00080917A0088
:1007D000846080937A0080917A00826080937A00AE
:1007E00080917A00816080937A0080917A0080689D
:1007F00080937A001092C10082E00E94B90260E00A
:1008000087E00E94F00110E260E0812F0E94F00179
:100810001F5F1F33C9F7E1E0809153018111E0E0D0
:10082000E195F0E0E05CFE4F848980680E94B302AD
:100830004EE050E06CE071E080E491E00E948C00BA
:100840001AE06E0122E2C20ED11C1E0180E2280EC7
:10085000311C80903D0160E080913F010E94E200E8
:1008600061E0882D0E94E2008BE090E00197F1F7B3
:1008700061E08FEB0E94B7010E946A010E946A0149
:10088000982F92959F708F70982E919F900C1124A5
:100890000E946A01282F30E087FFCDC085FB222708
:1008A00020F99CE0299F202D11248F70E82EE20E64
:1008B0000E946A01982F92959F708F70A82E919F29
:1008C000A00C11240E946A01982F92959F708F703E
:1008D000B82E919FB00C11240E946A01982F929516
:1008E0009F708F70082F919F000D11240E946A0144
:1008F000F82E60E0882D0E94E2008BE090E00197E6
:10090000F1F71F929F921F92EF921F92AF921F9248
:10091000BF929F2D92959F70EF2DEF70FE2E919FAD
:10092000F00C11248F2D90E08053984F9F938F935C
:100930008BE191E09F938F931F92F6E1FF93DF92FB
:10094000CF920E94AF05E09153010FB6F894DEBF3D
:100950000FBECDBFE23008F078C0E150F0E0E05CBF
:10096000FE4F848980680E94B302F6010190002046
:10097000E9F73197AF014C195D09B60180E491E0C8
:100980000E948C00E1E0809153018111E0E0E1954B
:10099000F0E0E05CFE4F8489815F80680E94B302D2
:1009A000E02FE150FF0B9F012F3F320709F04FC0AE
:1009B00041E06DE280E491E00E94600219A221E32F
:1009C00028A3F10101900020E9F73197AF01421906
:1009D0005309B10180E491E00E948C000E94410122
:1009E0002B013C0188EE882E83E0982EA12CB12C9F
:1009F0000E9441016419750986099709683E734090
:100A000081059105A8F3F1E08F1A9108A108B108BA
:100A100028EE420E23E0521E611C711C81149104C9
:100A2000A104B10429F780E090E0892B09F411CFEB
:100A30000E9400000ECF94E0359527959A95E1F736
:100A40002370219F202D112430CFE1E087CF032E8A
:100A5000000C440B550B19A27E0181E2E80EF11C3B
:100A6000CA01B9012AE030E040E050E00E94870569
:100A7000605DF70162937F01211531054105510544
:100A800079F7309709F4AACF01900020E9F7319760
:100A9000AF014E195F09B7019DCFE0E4F1E0138289
:100AA000128284E091E0918380838CE084838FEFD5
:100AB00085838BE0868385E0878384E0808783E07D
:100AC000818782E0828713861486158616861786AC
:100AD00081E00E94B902EDE3F1E088E0808387E0E5
:100AE000818386E0828360E088E00E94E20061E02A
:100AF00088E00E94100160E087E00E94100160E041
:100B000086E00E94E20061E086E00C941001A1E220
:100B10001A2EAA1BBB1BFD010DC0AA1FBB1FEE1F77
:100B2000FF1FA217B307E407F50720F0A21BB30BC2
:100B3000E40BF50B661F771F881F991F1A9469F73E
:100B400060957095809590959B01AC01BD01CF019A
:100B50000895EE0FFF1F0590F491E02D0994AEE08B
:100B6000B0E0E5EBF5E00C946B080D891E898F89E8
:100B7000988D26E02C831A83098397FF02C080E0BA
:100B800090E801979E838D83AE01455E5F4F698D2E
:100B90007A8DCE0101960E94DF054D815E8157FD61
:100BA0000AC02F813885421753070CF49A01020FAF
:100BB000131FF80110822E96E4E00C948708ABE036
:100BC000B0E0E5EEF5E00C945D087C013B018A01A4
:100BD000FC0117821682838181FFC8C1CE01019674
:100BE0005C01F7019381F30193FD859193FF81915E
:100BF0003F01882309F453C1853239F493FD85916F
:100C000093FF81913F01853229F4B70190E00E9462
:100C1000CF07E7CF912C212C312CFFE1F31538F0D1
:100C20008B3211F190F4803209F1833229F137FCD3
:100C30003CC020ED280F2A3050F536FE20C08AE057
:100C4000989E200D1124922E06C08D3291F0803393
:100C500071F7689430F8F30193FD859193FF8191CA
:100C60003F018111DACF21C0689431F8689432F8DD
:100C7000F2CF689433F8EFCF689434F8ECCFEAE021
:100C80002E9E200D1124222E689435F8E4CF8E324A
:100C900029F436FC04C1689436F8DDCF8C3619F49B
:100CA000689437F8D8CF8836B1F2982F9F7D955445
:100CB0009330E0F08336A1F18337C1F1833509F039
:100CC00063C02801F2E04F0E511CF801C080D180B2
:100CD000692D70E036FC02C06FEF7FEFC6010E9405
:100CE000B9074C01689437F882010AC00C5F1F4FA6
:100CF000FFE3F98388248394912C6501E89437F805
:100D000033FE2DC0522C8114910471F5552009F445
:100D100068CFB70180E290E00E94CF075A94F6CFE7
:100D2000F801808189830E5F1F4FE4CF2801F2E034
:100D30004F0E511CF801C080D180692D70E036FC47
:100D400002C06FEF7FEFC6010E94C4074C01820111
:100D5000D5CFB70180E290E00E94CF072A942814F3
:100D6000190409F0B0F7CECFF60137FC859137FEB4
:100D700081916F01B70190E00E94CF0751105A9402
:100D8000F1E08F1A9108BFCF843619F0893609F047
:100D900077C0F80137FE6BC06081718182819381D9
:100DA0000C5F1F4FF32DFF763F2E97FF09C09095E4
:100DB0008095709561957F4F8F4F9F4F689437F85E
:100DC0002AE030E0A5010E94FF07C82ECA188C2C2B
:100DD000432C36FE0CC0E89440F8C91440F434FEAD
:100DE00005C032FC03C0F32DFE7E4F2E892C44FE3D
:100DF00095C0FE01EC0DF11D8081803309F087C0A4
:100E0000242D297E422E842D8870582E43FC95C0B7
:100E100040FE8FC09C2C821418F42C0C922C981835
:100E200044FE91C0B70180E390E00E94CF0742FEEC
:100E300009C088E790E041FE02C088E590E0B70174
:100E40000E94CF07C91408F48AC0CA94D12C9FEF1E
:100E5000C91AD90ACA0CDB1CF60182916F01B701CD
:100E600090E00E94CF07AC14BD04B1F74FCF608172
:100E70007181072E000C880B990B0E5F1F4F92CFCC
:100E8000D32CE894D4F82AE030E0853739F1232DCB
:100E9000297FD22E8F3601F148F48835A9F0F70169
:100EA000868197812B96E2E10C947908803749F08E
:100EB0008837A9F7D4FE02C06894D2F820E130E068
:100EC0000DC06894D4F8F6CF34FE03C0822F86603C
:100ED000D82E20E132E002C028E030E0F801D7FE51
:100EE0000FC060817181828193810C5F1F4FA501CA
:100EF0000E94FF07C82ECA183D2CE89437F867CF28
:100F00006081718190E080E00E5F1F4FF0CF42FC66
:100F100002C0839478CF8394839475CF842D867890
:100F200009F471CFF6CFB70180E290E00E94CF07BD
:100F300083948214C0F3512C73CF522C581882140E
:100F400008F46ECFF8CF842D867809F47BCF8BE23E
:100F500041FE80E247FC8DE2B70190E071CFB7011E
:100F600080E390E00E94CF079A946CCF8FEF9FEFC1
:100F700099CFFC010590615070400110D8F7809521
:100F800090958E0F9F1F0895FC0161507040019055
:100F90000110D8F7809590958E0F9F1F08950F939D
:100FA0001F93CF93DF93182F092FEB018B8181FDC6
:100FB00009C01FEF0FEF812F902FDF91CF911F916D
:100FC0000F91089582FF14C02E813F818C819D81F5
:100FD000281739073CF4E881F981CF0101969983FC
:100FE000888310838E819F8101969F838E83E3CFB8
:100FF000E885F985812F0995892BA1F3DACFFA01CC
:10100000AA27283051F1203181F1E8946F936E7F47
:101010006E5F7F4F8F4F9F4FAF4FB1E03ED0B4E038
:101020003CD0670F781F891F9A1FA11D680F791F79
:101030008A1F911DA11D6A0F711D811D911DA11D8A
:1010400020D009F468943F912AE0269F112430199A
:10105000305D3193DEF6CF010895462F4770405D35
:101060004193B3E00FD0C9F7F6CF462F4F70405DE4
:101070004A3318F0495D31FD4052419302D0A9F73F
:10108000EACFB4E0A6959795879577956795BA9539
:10109000C9F700976105710508959B01AC010A2EFF
:1010A00006945795479537952795BA95C9F7620FD6
:1010B000731F841F951FA01D08952F923F924F927A
:1010C0005F926F927F928F929F92AF92BF92CF92D8
:1010D000DF92EF92FF920F931F93CF93DF93CDB7E1
:1010E000DEB7CA1BDB0B0FB6F894DEBF0FBECDBF59
:1010F00009942A88398848885F846E847D848C842A
:101100009B84AA84B984C884DF80EE80FD800C8132
:101110001B81AA81B981CE0FD11D0FB6F894DEBF15
:0C1120000FBECDBFED010895F894FFCF85
:10112C00000000005F038C0067016601506572735C
:10113C0065766572616E6365353100253032642DDC
:10114C00253032642D2530326420253032643A2526
:04115C0030326400C9
:00000001FF
