:020000040000FA
:100000000C94DB040C9403050C9403050C94030579
:100010000C9403050C9403050C9403050C94030540
:100020000C9403050C9403050C9403050C94030530
:100030000C9403050C9403050C9403050C94030520
:100040000C946A0D0C9403050C9403050C940305A1
:100050000C9403050C9403050C9403050C94030500
:100060000C9403050C9403052E2EC8002F2F64005A
:100070003030640031316400323264003333640064
:100080002929C8002A2A64002B2B64002C2C640028
:1000900034349001353590013434C80000006400D8
:1000A0003636640037376400383864003939D00791
:1000B00000006400361164003712640038136400D5
:1000C0003914D00700006400272564002826D007D3
:1000D00000006400201B6400211C6400221DD00766
:1000E0000000640016116400171264001813640005
:1000F0001914D007000064000E0E64000F0F640096
:100100001010F401000064000B0B64000C0C640080
:100110000D0DF40100006400060664000707F401F9
:1001200000006400080864000909F40100003200BE
:1001300001003200020032000300320004003200ED
:100140000500C80000003200010132000202320046
:1001500003033200040432000505640000000008B7
:10016000000201000003040700000000000000007E
:1001700000000000250028002B00000000002400E3
:1001800027002A00040404040404040402020202F6
:10019000020203030303030301020408102040804A
:1001A0000102040810200102040810204602000089
:1001B00000FF0800053E5B4F5B3E053E6B4F6B3E0C
:1001C000051C3E7C3E1C05183C7E3C18051C577DDA
:1001D000571C051C5E7F5E1C0400183C1805FFE7D9
:1001E000C3E7FF040018241805FFE7DBE7FF05302D
:1001F000483A060E05262979292605407F05050778
:1002000005407F05253F055A3CE73C5A057F3E1CCB
:100210001C0805081C1C3E7F0514227F221405FFC4
:10022000FFFFFFFF05F0F0F0F0F003FFFFFF050018
:100230000000FFFF050F0F0F0F0F0508047E0408D5
:100240000510207E20100508082A1C0805081C2A15
:10025000080805AA005500AA05AA55AA55AA0530FE
:10026000383E383005060E3E0E06020000015F03E0
:1002700007000705147F147F1405444AFF4A32051E
:1002800063130864630536494936480107033E4154
:10029000410341413E05082A1C2A080508083E087A
:1002A000080260E0040808080802606005601008A1
:1002B0000403053E5149453E0304027F0571494947
:1002C0004946054149494936050F0808087F054F49
:1002D00049494931053E4949493005030101017F3A
:1002E00005364949493605064949493E026C6C02C2
:1002F0006CEC0308142204141414140322140805CB
:100300000159090906053E415D594E057E09090955
:100310007E057F49494936053E41414141057F41BE
:1003200041413E057F49494941057F0909090105C8
:100330003E41414979057F0808087F03417F410517
:10034000304141413F057F08142241057F40404034
:1003500040057F020C027F057F0408107F053E41A7
:1003600041413E057F09090906053E4141617E057F
:100370007F091929460546494949310501017F018F
:1003800001053F4040403F051F2040201F053F40E2
:1003900038403F056314081463050304780403051B
:1003A0006151494543037F4141050304081060033F
:1003B00041417F0504020102040480808080030122
:1003C0000204043844447C047F44443804384444E0
:1003D00044043844447F043854545804047E0501CE
:1003E0000418A4A47C047F040478017D0384857C24
:1003F000047F102844017F057C04780478047C0481
:100400000478043844443804FC24241804182424B0
:10041000FC047C040408045854543403047F04048A
:100420003C40407C041C20407C053C4030403C0467
:100430006C10106C041CA0A07C046454544C040880
:10044000364141017F0441413608040201020105A1
:100450007F4141417F053E5555554105384444385B
:1004600044057C2A2A3E14057E0202060605027E09
:10047000027E02056355494163053844443C040546
:10048000407E201E200506027E02020863130864D7
:1004900063006060052A2A2A2A2A03514A44034439
:1004A0004A51050000FF010303E080FF05361236C4
:1004B000243603020502021818021010053040FF0E
:1004C0000101041F01011E000000000901017F015C
:1004D0007F020C027F0000000000000100017D048B
:1004E00018247E2404447E454105221C141C220548
:1004F000012A7C2A010177044E5555390302000276
:10050000077E81BDA5A5817E0326292F0508142A13
:100510001422040808081803080808077E81BD95FE
:10052000A9817E0501010101010302050203242EB8
:1005300024031915120315150A02020104F82040BC
:10054000780506097F017F021818040080A0C00307
:10055000121F10032629260522142A140808402FEA
:100560001008041E117C08402F10080462554C0925
:1005700015553F1008041E117C053048484D4005B4
:100580007815161478057814161578057A1514154B
:100590007A057816151679057815141578057814E6
:1005A000151478077E09097F494941059EA16121FB
:1005B00021057C54554644057C54564544057E55DA
:1005C000544546057C5554454403457E4403447ECA
:1005D0004503467D4603457C4505087F49413E0568
:1005E0007C0A11227D053844454638053844464585
:1005F00038053A4544453A053846454639053845B3
:10060000444538052214081422057C625A463E05EA
:100610003C4041423C053C4042413C053C42414259
:100620003C053C4140413C0502047A0502043F126E
:10063000120C057E49494E30043845467C04384446
:10064000467D043846457E043A45467D0438454497
:100650007D04304A4D7A0720545438545458049C31
:10066000A262220438555658043854565904385654
:10067000555A043855545902017A027A0103027915
:10068000020302780204304B4B3C047A090A7104DD
:1006900030494A300430484A3104304A4932043241
:1006A000494A3104394444390508082A08080438FD
:1006B000544C380438414278043840427904384276
:1006C000417A043A40407A0418A0A27904FC282810
:1006D00010041AA0A07A08007E81B1B1817E0008C2
:1006E000007C82B2B2827C0008007884B4B4847842
:1006F00000080030487878483000080020507070BA
:1007000050200008002060606060200008007E81AA
:1007100081B1B17E000800007E8181B1B17E080008
:100720007EB1B181817E00087EB1B181817E000001
:100730000008007E819999817E0008007E818D8D60
:10074000817E0008007E818787817E0008007E818F
:10075000E1E1817E0008007E81C1C1817E00080048
:100760007C82C2C2827C0008007C82B1B1817E00A2
:1007700008007884B2B1817E0008007088A4B2813C
:100780007E0008006090A8B4827F000008007E818F
:10079000B1B1827C0008007E81B1B284780008008B
:1007A0007E81B2A488700008007F82B4A8906000A7
:1007B0000008003E419999827C0008001E21599A48
:1007C00084780008000E11295A847800000008007F
:1007D0007C829999413E00080078849A59211E0034
:1007E000080078845A29110E00000008007CC2B16C
:1007F000B1C17E0008003844B2B1423C0008007E1E
:10080000C1B1B1C27C0008003C42B1B2443800081A
:10081000007E818181BD7E0008007E8181BD817E58
:100820000008007E81BD81817E0008007EBD81813F
:10083000817E000008007E818383817E0008007E27
:10084000818585817E0008007E818989817E0008FE
:10085000007E819191817E0008007E81A1A1817E30
:100860000008007E81C1C1817E0008007E899D89CB
:10087000817E0008007E8191B9917E0008003C4293
:100880007272423C00080038447474443800080016
:1008900030487878483000080020507070502000B0
:1008A0000000000000000000000000000000000048
:1008B0000000000000000000000000000000000038
:1008C0000000000000000000000000000000000028
:1008D0000000000000000000000000000000000018
:1008E0000000000000000000000000000000000008
:1008F00000000000000000000000000000000000F8
:1009000000000000000000000000000000000000E7
:1009100000000000000000000000000000000000D7
:1009200000000000000000000000000000000000C7
:1009300000000000000000000000000000000000B7
:1009400000000000000000000000000000000000A7
:100950000000000000000000000000000000000097
:1009600000000000000001004401010200440106F3
:1009700003002C01060400200103050014010306F6
:10098000000401040700F400040800E00005090069
:10099000D000040A00C400030B00B000050C009C4A
:1009A00000050D009000030F008000040E00680099
:1009B0000600550F790F11241FBECFEFD8E0DEBF20
:1009C000CDBF11E0A0E0B1E0E6EDF3E202C005909A
:1009D0000D92AA3BB107D9F722E0AAEBB1E001C022
:1009E0001D92A132B207E1F714E0CAEDD4E004C0D1
:1009F0002197FE010E94AC10C93DD107C9F70E94A2
:100A0000B40D0C94DE110C940000829590E09C01D2
:100A100035952795359527952373880F991F880F4E
:100A2000991F8C7C282B30E0C90195958795857599
:100A3000220F331F2A7A822B089590E0FC01E8569A
:100A4000FE4F24918C579E4FFC018491882399F08E
:100A500090E0880F991FFC01E658FE4FA591B491D4
:100A6000FC01E059FE4F859194918FB7F894EC9179
:100A7000E22BEC938FBF089590E0FC01E45AFE4F07
:100A80002491FC01E856FE4F3491FC01EC57FE4FD7
:100A9000E491EE23C9F0222339F0233001F1A8F4C8
:100AA000213019F1223029F1F0E0EE0FFF1FE0595B
:100AB000FE4FA591B4918FB7F894EC91611126C0C7
:100AC00030953E233C938FBF08952730A9F02830FE
:100AD000C9F0243049F7809180008F7D03C0809158
:100AE00080008F7780938000DFCF84B58F7784BDBF
:100AF000DBCF84B58F7DFBCF8091B0008F77809363
:100B0000B000D2CF8091B0008F7DF9CF3E2BDACFED
:100B10002FB7F8946091C2017091C3018091C40114
:100B20009091C5012FBF0895CF92DF92EF92FF926F
:100B30001F93CF93DF93DC0158961C92589788E05F
:100B400059968C9359975A961C925A975C961C9278
:100B50001E925B978FEF90E05E969C938E935D97CD
:100B600090961C921E925F9756968D919C915797E6
:100B7000009709F478C0FC012491263409F031C0B3
:100B80003196E491E13009F453C022E030E0E230E4
:100B900021F5FC01329624913196E49130E0322F18
:100BA00022272E0F311D5C963C932E935B97FC0100
:100BB000349624913196E49130E0322F22272E0F83
:100BC000311D5E963C932E935D97FC013696E49121
:100BD0005996EC93599727E030E090963C932E93EA
:100BE0005F975F96CD90DC909097F12CE12C5B960F
:100BF0002D913C915C975D96CD91DC915E9710E0D4
:100C0000C217D30770F1FC01EC0DFD1D44911417C0
:100C100008F4142F50E070E060E04F5F5F4F6F4FBB
:100C20007F4FC40ED51EE61EF71E2F5F3F4FE8CF45
:100C3000FC013296E491F0E05C96FC93EE935B97B6
:100C4000FC013396E491F0E05E96FC93EE935D97A1
:100C5000FC013496E4915996EC93599725E030E0E5
:100C6000BCCF5A961C93DF91CF911F91FF90EF90CC
:100C7000DF90CF900895FC018385681738F52485AF
:100C8000358579E0679F200D311D1124848150E066
:100C90009381992371F0882331F087E090E0FC0183
:100CA000E41BF50BAF01240F351FF90180810C9473
:100CB0000505882331F087E090E0BC01641B750BCB
:100CC000AB01240F351FF9018081089580E008955C
:100CD0008F929F92AF92BF92CF92DF92EF92FF924C
:100CE000CF93DF93FC01242F30E08381882309F424
:100CF00047C087E090E0821B930B91E001C0990F01
:100D00008A95EAF78385681708F040C02485358501
:100D1000A90189E0689F400D511D1124BA01E481A9
:100D200030E020E080E0A7E0B0E0C12CD12C7601DB
:100D3000C394F22FAD01421B530BE11101C0A90175
:100D4000460F571FEA014881492351F046015701D8
:100D500004C0880C991CAA1CBB1CFA95D2F78829E0
:100D60002F5F3F4F2830310521F7DF91CF91FF9062
:100D7000EF90DF90CF90BF90AF909F908F900895AD
:100D800091E001C0990F4A95EAF7BCCF80E0EDCF22
:100D9000462F4770669566956695FC012281211164
:100DA0000C9468060C943B06EF92FF920F931F93EE
:100DB000CF93DF93DC015F960D911C91909730E00B
:100DC00020E05B96CD91DC915C976C177D0708F471
:100DD00037C05D968D919C915E978617970780F13D
:100DE0005696ED90FC905797F701E00FF11F6C17A6
:100DF0007D0759F0E4910E0F111D211D311D0F5F6C
:100E00001F4F2F4F3F4F2196EFCF8491893028F10C
:100E100088E00F5F1F4F2F4F3F4FEA01041B150B58
:100E20009C2F941B981790F498012C0F3D1F5696F9
:100E3000ED91FC915797E20FF31FE491E993F0CF06
:100E400088E0FA0111928A95E9F780E0DF91CF916D
:100E50001F910F91FF90EF9008958491DACFFC01DC
:100E6000438550E0440F551F70E060E0868597850C
:100E70000C94D711CF92DF92EF92FF920F931F93B2
:100E8000CF93DF93EC0188858823A1F08091BC018A
:100E9000882361F08FB7F8949091BC01913041F5AF
:100EA0009DB39093BB019DB39DBB8FBF80E58CBD6F
:100EB00081E08DBD60E08F810E943C05888588239C
:100EC000D1F030E020E08B8590E0880F991F281743
:100ED0003907C8F5EE85FF85E20FF31F80818EBDCF
:100EE00000000DB407FEFDCF8EB52F5F3F4FEBCF57
:100EF0008093BB01DBCF10E000E08B8590E0880F92
:100F0000991F08171907F8F4EE85FF85E00FF11F08
:100F1000E080DE80CD8088E0F82E6E2D661F66278B
:100F2000661F8C2D0E943C05EE0C61E08D2D0E9409
:100F30003C0560E08D2D0E943C05FA94F110EDCF48
:100F40000F5F1F4FDACF61E08F810E943C058885DB
:100F5000882371F08091BC01882351F09FB7F894E9
:100F60002091BC018091BB01213059F48DBB9FBF02
:100F7000DF91CF911F910F91FF90EF90DF90CF9075
:100F800008958FBFF5CFBF92CF92DF92EF92FF927D
:100F90000F931F93CF93DF93EC0189E0689F70015B
:100FA0001124D12CC12C062F10E0BB24B394BC0C0F
:100FB000EC85FD85EE0DFF1D808590E00C2C02C0B8
:100FC000959587950A94E2F780FF27C0CE010E948D
:100FD0002F078B858150990B801B910B880F991FD0
:100FE0002E853F85820F931FFC01B082EC85FD8525
:100FF000EE0DFF1DEC0DFD1D40818B858150990B81
:10100000801B910B880F991F2E853F85820F931FA0
:10101000FC014183CE010E943A07FFEFCF1ADF0A9D
:1010200088E0C816D10409F68C859D85E80EF91E66
:10103000F7011086DF91CF911F910F91FF90EF90F4
:10104000DF90CF90BF9008959F92AF92BF92CF92C2
:10105000DF92EF92FF920F931F93CF93DF93EC01F8
:10106000162F042F822F9A812B85992309F47DC096
:10107000621708F0BCC0483009F4B9C099E0699F14
:10108000F001112441E050E060E070E06A017B0172
:10109000002E04C0CC0CDD1CEE1CFF1C0A94D2F701
:1010A0002C2D3C2D3095A7E0B0E0A01BB10904C069
:1010B000440F551F661F771FAA95D2F7042F942F50
:1010C000909570E060E0A82EB12C87E0C82ED12C5E
:1010D000AB01AC85BD85AE0FBF1F8C819B807501B8
:1010E000062E02C0F594E7940A94E2F7E0FE30C0C1
:1010F000882319F0A601461B570BA40FB51F8C912E
:10110000422F9110402F842B8C936F5F7F4F68305C
:101110007105F1F68C859D85E80FF91F8FEF8087AB
:101120008C89882339F08B85181720F4612FCE0124
:101130000E94C30791E0892FDF91CF911F910F91FA
:10114000FF90EF90DF90CF90BF90AF909F90089569
:10115000882319F0A601461B570BA40FB51F8C91CD
:10116000432F9110492F8423CFCF621720F74830A7
:1011700011F39B8191110E94050599E0199FA0012F
:101180001124AC85BD85A40FB51F602F70E09C8134
:1011900027E030E0261B370B911101C09B01A20F05
:1011A000B31F8C93EC85FD85E40FF51F20858C81A2
:1011B000882389F047E050E0461B570B81E090E020
:1011C000A0E0B0E004C0880F991FAA1FBB1F4A957A
:1011D000D2F7822BA4CF81E090E0A0E0B0E004C081
:1011E000880F991FAA1FBB1F0A95D2F7F2CF90E074
:1011F000A2CFDF92EF92FF920F931F93CF93DF93D3
:10120000CDB7DEB728970FB6F894DEBF0FBECDBFBF
:10121000E82E70E0AE014F5F5F4F8091F201909138
:10122000F3010E94D406D82E8E010F5F1F4FF12CC0
:10123000FD1469F0F80121918F014F2D6E2D8091E1
:10124000F2019091F3010E942408F394F1CF2896C3
:101250000FB6F894DEBF0FBECDBFDF91CF911F91C7
:101260000F91FF90EF90DF900895CF92DF92EF9271
:10127000FF920F931F93CF93DF93EC01DD24D39460
:10128000F12CE12C01E010E0B9E0CB2ECE010E9460
:101290002F0798010E2C02C0220F331F0A94E2F789
:1012A000E0E090E08B85E81798F5EC9DA001112413
:1012B000AC85BD85A40FB51F18966C9170E06223B4
:1012C0007323672B19F16E2F70E08150990B861BE9
:1012D000970B880F991FAE85BF85A80FB91FDC92A9
:1012E000AC85BD85A40FB51FAE0DBF1DFC918B85D0
:1012F0008150990B861B970B880F991F4E855F8530
:10130000840F951FDC011196FC9391E0EF5FCACF2B
:10131000992319F0CE010E943A07BFEFEB1AFB0A9E
:10132000D39488E0E816F10409F0B0CF80E099E0AA
:101330002B85821748F4EC85FD85899FE00DF11D12
:10134000112410868F5FF4CFDF91CF911F910F9101
:10135000FF90EF90DF90CF900895CF93DF93C9E097
:1013600078E05FEF4617B0F06C9F90011124FC010C
:10137000A485B585A20FB31FFD01D72F1192DA9571
:10138000E9F7DC011C96ED91FC91E20FF31F508709
:101390006F5FE8CFFC012489222321F0DF91CF91F8
:1013A0000C943509DF91CF910895DF92EF92FF926F
:1013B0000F931F93CF93DF936A30710509F45FC0D9
:1013C0007A018B01EC01DB840E942F0760E0EE2D97
:1013D0007FEF7D0D0230110509F447C0A8F4011517
:1013E000110501F18E2F9BE00130110509F16F5FAE
:1013F000761780F7CE01DF91CF911F910F91FF906B
:10140000EF90DF900C943A070330110589F1043016
:10141000110569F781E0E114F10409F480E0819598
:1014200099E006C081E0E114F10409F080E09CE05D
:10143000462F50E02B852150330B241B350B220FF8
:10144000331FAE85BF85A20FB31F9C932B85215000
:10145000330B241B350B220F331F4E855F85240F62
:10146000351FD90111968C93C2CF8E2F9AE0E0CF11
:1014700081E0E114F10409F480E09FE0D9CF21E09C
:101480004130510509F020E0FC01248B4130510529
:1014900049F4DF91CF911F910F91FF90EF90DF9072
:1014A0000C943509DF91CF911F910F91FF90EF9030
:1014B000DF9008958F929F92AF92BF92CF92DF926A
:1014C000EF92FF920F931F93CF93DF9350E040E092
:1014D0006AE070E08091F2019091F3010E94D509D9
:1014E000E090F401F090F50111E01E0D1E1508F4D6
:1014F00096C0C091F201D091F301BC881C8A8D89FD
:10150000882309F44CC06E2D660F660F660F615F6D
:10151000CE010E94C806082F6701DD2479E0A72EBE
:1015200099249A94812F012E000C990B8C159D05FE
:101530000CF45DC01A9DA00111248A81882309F44E
:1015400045C030E020E0EC85FD85E40FF51FE20F9B
:10155000F31F80819B819923B9F190E09595879540
:1015600080832F5F3F4F2830310569F78C859D853B
:10157000480F591FFA01908688248A94810E8A8127
:1015800047E0682D882379F1CE010E946806282F54
:1015900040E0612FCE010E942408182DC3CFCA88D5
:1015A000DB88C114D10471F06E2D660F660F660FD3
:1015B000615FCE010E94C806482F70E060E0812F75
:1015C000F601099500E0A8CF880FCACF87E090E028
:1015D000EC85FD85E40FF51FE80FF91F20812183BD
:1015E0000197B0F7C3CFCE010E943B06D0CFE88968
:1015F000F989309741F08D89811105C070E060E074
:101600008E2D0995082F6C2D202F40E0CE010E94D1
:101610002408BC8ABB2019F0CE010E9435090E9423
:1016200088056093FA017093FB018093FC0190930D
:10163000FD0120911B0230911C022130310509F47B
:101640004AC08091F2019091F3012130310548F0B8
:101650002230310509F46BC010921C0210921B025B
:101660000BC0E0910F02F0911002208121111AC0ED
:101670001092100210920F0241E050E06AE070E018
:101680008091F2019091F301DF91CF911F910F9121
:10169000FF90EF90DF90CF90BF90AF909F908F9092
:1016A0000C94D5099F012F5F3F4F30931002209378
:1016B0000F026081062E000C770B43E152E00E947E
:1016C000D406809312021092110281E090E0909370
:1016D0001C0280931B028091F2019091F301E09132
:1016E0001102C1E0CE0FC0931102F0E0ED5EFD4F9C
:1016F000208140E06091F4010E9424088091120250
:10170000C813BACFE0910F02F091100280818111CD
:101710000CC080E1809312021092110282E090E0EE
:1017200090931C0280931B02A7CF81E0F3CF20E0AF
:1017300040E06091F4010E942408809111028F5FC3
:101740008093110290911202891708F495CF84CFEB
:10175000EF92FF920F931F93CF93DF93809100023C
:10176000909101028230910509F4F2C050F4009783
:1017700051F1019709F472C0109201021092000217
:101780005EC08330910509F463C10497A9F70E94F4
:1017900088050091FA011091FB012091FC01309124
:1017A000FD01601B710B820B930B62337105810588
:1017B000910510F00E945A0A80910F029091100238
:1017C000892BE9F5D9CF80910F0290911002892BD6
:1017D00009F444C00E9488056093FA017093FB01EC
:1017E0008093FC019093FD016091F40141E0460F6C
:1017F000461730F08091F2019091F3010E94AD09FB
:1018000010921C0210921B020E9488050091FA019E
:101810001091FB012091FC013091FD01601B710BC7
:10182000820B930B623371058105910510F00E94C4
:101830005A0A84E090E0909301028093000281E0D4
:101840002091000230910102232B09F080E0DF910A
:10185000CF911F910F91FF90EF90089580910D020D
:1018600090910E02892BB9F10E9488056093FA01CC
:101870007093FB018093FC019093FD01E0900D02B9
:10188000F0900E02C6E6D9E001EB19E045E050E029
:10189000BE0185E092E00E94401080910502909187
:1018A0000602E816F90621F025960C171D0771F7B8
:1018B00080910B02882361F080910902815080930E
:1018C0000A0210920E0210920D0282E090E0B3CF55
:1018D00010920A02F6CF80910202882309F4AFCF5A
:1018E0000E9488050091FA011091FB012091FC01F2
:1018F0003091FD01AB01BC01401B510B620B730B1E
:101900008091FE019091FF01B0E0A0E048175907D7
:101910006A077B0708F493CF0E94E80F28EE33E0B4
:1019200040E050E00E9449106D3B724081059105F6
:101930000CF485CF82E090E090930E0280930D022C
:1019400081E080930C0210920B0281E090E073CF53
:1019500080910A0244E08402C001112460910702D0
:1019600070910802680F791F44E050E08EEE91E01C
:101970000E9440101091EE010091EF018091F20160
:101980009091F301FC01C689D78950E040E06AE0FC
:1019900070E00E94D5098091F2019091F301FC0161
:1019A00026893789265D364039F026ED36E0FC0180
:1019B000378B268B0E9494056091F40141E0460F1D
:1019C000461730F08091F2019091F3010E94AD0929
:1019D0008091F401602F8F5F0E94F908612F809140
:1019E000F4010E94F9088091F2019091F301FC0149
:1019F00026893789C217D30749F0209711F4CCEA1A
:101A0000D1E0FC01D78BC68B0E94940541E050E0E9
:101A10006AE070E08091F2019091F3010E94D50993
:101A200090910B0280910A02992381F0815080935A
:101A30000A020E9488056093F6017093F701809373
:101A4000F8019093F90183E090E0F5CE8F5FEFCF3E
:101A50000E9488050091F6011091F7012091F8018C
:101A60003091F901AB01BC01401B510B620B730BB0
:101A70008091F0019091F101B0E0A0E04817590782
:101A80006A077B0708F4DBCE90910B0280910A0273
:101A900091111DC0082E000C990B209109022817E6
:101AA000190611F00CF011CF80910C02882309F473
:101AB00063CE809105029091060290930E0280936E
:101AC0000D0281E080930B0210920C023ECF87FF43
:101AD000FCCEEACF1F920F920FB60F9211242F93D4
:101AE0003F938F939F93AF93BF938091C201909147
:101AF000C301A091C401B091C5013091C10123E09F
:101B0000230F2D3758F50196A11DB11D2093C1015A
:101B10008093C2019093C301A093C401B093C50107
:101B20008091BD019091BE01A091BF01B091C00113
:101B30000196A11DB11D8093BD019093BE01A0939C
:101B4000BF01B093C001BF91AF919F918F913F9121
:101B50002F910F900FBE0F901F90189526E8230F1E
:101B60000296A11DB11DD2CF789484B5826084BD48
:101B700084B5816084BD85B5826085BD85B5816091
:101B800085BD80916E00816080936E00109281000F
:101B900080918100826080938100809181008160CA
:101BA000809381008091800081608093800080918B
:101BB000B10084608093B1008091B0008160809317
:101BC000B00080917A00846080937A0080917A00DE
:101BD000826080937A0080917A00816080937A009D
:101BE00080917A00806880937A001092C100809181
:101BF000CF01882309F4E1C0CFB7F8948091C601E2
:101C0000811124C0EEE8F1E08491E2EAF1E09491E0
:101C1000E82FF0E0EE0FFF1FE658FE4FA591B491BC
:101C2000EC91E92321F461E08AE00E943C058AE01E
:101C30000E941D058CB580618CBD8CB580648CBD07
:101C40008DE00E941D058BE00E941D058091C6015C
:101C50008F5F8093C601CFBF8091CE010E941D058A
:101C600061E08091CE010E943C051092D801109253
:101C7000D7011092DA011092D901C091D20129E066
:101C8000C29FC00111240E94B2109093D40180938E
:101C9000D3018C2F90E0880F991F0E94B21090936F
:101CA000D6018093D5018091DD019091DE018C5A9F
:101CB000914051F08CEA91E09093DE018093DD0138
:101CC00087EC91E00E94940550E040E063E070E012
:101CD00087EC91E00E94D50947E050E061E070E0B8
:101CE00087EC91E00E94D50947E050E062E070E0A7
:101CF00087EC91E00E94D50950E040E064E070E09C
:101D000087EC91E00E94D5094091D201415060E0FA
:101D100087EC91E00E94AD0950E040E070E060E0A7
:101D200087EC91E00E94D50987EC91E09093F30154
:101D30008093F2011092F5011092F40181E090E09D
:101D400090930E0280930D0210920C0210920B02DF
:101D500080910F0290911002892B31F480EB91E079
:101D60009093100280930F020E94A80B8823E1F346
:101D70008BE0B82EC0E0D0E0AA24A39402E010E0EB
:101D8000EE24E394F12C23E0C22ED12C0E94A80B68
:101D90002091EC013091ED0121303105D9F1B0F005
:101DA0002230310509F44EC02330310509F45BC0FF
:101DB0001092ED011092EC0125C08091CC010E949F
:101DC0001D058091CD010E941D0546CF8091000127
:101DD0008F5F8F30E0F48093000180910F0290912B
:101DE0001002892B59F4809100018B9DC0011124B0
:101DF000855F9E4F9093100280930F02F092ED0149
:101E0000E092EC01209711F20E940000BFCF1092E7
:101E10000001E3CF8823B1F3E0910001BE9EF00101
:101E20001124E55FFE4F8781908590930E02809389
:101E30000D02A0920C0210920B021093ED01009380
:101E4000EC01E0CF8823F1F20E9488056093E8015D
:101E50007093E9018093EA019093EB01D092ED0138
:101E6000C092EC01CFCF0E9488054090E8015090CD
:101E7000E9016090EA017090EB01AB01BC014419EB
:101E8000550966097709E0910001BE9EF001112411
:101E9000E55FFE4F81859285B0E0A0E048175907C5
:101EA0006A077B0708F4AECF83CFE7ECF1E0158239
:101EB00016828AE0878381E080872AEB31E03287CF
:101EC000218792E09387848B22E030E03183208366
:101ED000828383831482E2EFF1E028E833E13587DF
:101EE000248717861686808B81E090E0948F838FFD
:101EF00008958091CF01882399F09FB7F89480913D
:101F0000C601882319F081508093C6018091C601D3
:101F1000811105C08CB58F7B8CBD1092BC019FBF19
:101F20008091D3019091D4010E944E118091D501EE
:101F30009091D6010C944E118F929F92AF92BF92C6
:101F4000CF92DF92EF92FF92CF93DF93EC01688103
:101F500079818A819B81611571058105910521F443
:101F600064E279ED8BE597E02DE133EF41E050E05D
:101F70000E94491049015A019B01AC01A7EAB1E452
:101F80000E9468106B017C01ACEEB4EFA5019401D6
:101F90000E947610C60ED71EE81EF91EF7FE06C078
:101FA00081E0C81AD108E10880E8F80AC882D9821D
:101FB000EA82FB82C701B6019F77DF91CF91FF9044
:101FC000EF90DF90CF90BF90AF909F908F9008954B
:101FD0008F929F92AF92BF92CF92DF92EF92FF9239
:101FE00060910101709102018091030190910401BF
:101FF000611571058105910521F464E279ED8BE5A8
:1020000097E02DE133EF41E050E00E944910490193
:102010005A019B01AC01A7EAB1E40E9468106B0170
:102020007C01ACEEB4EFA50194010E947610C60EBF
:10203000D71EE81EF91EF7FE06C081E0C81AD108B7
:10204000E10880E8F80AC0920101D0920201E09212
:102050000301F0920401C701B6019F77FF90EF9052
:10206000DF90CF90BF90AF909F908F900895609336
:10207000010170930201809303019093040108957C
:10208000FB01DC0102C005900D9241505040D8F791
:102090000895052E97FB1EF400940E94601057FDD2
:1020A00007D00E947B1007FC03D04EF40C94601004
:1020B00050954095309521953F4F4F4F5F4F089574
:1020C00090958095709561957F4F8F4F9F4F0895A4
:1020D0000E949D10A59F900DB49F900DA49F800D10
:1020E000911D11240895B7FF0C9468100E94681088
:1020F000821B930B0895A1E21A2EAA1BBB1BFD01A4
:102100000DC0AA1FBB1FEE1FFF1FA217B307E407D6
:10211000F50720F0A21BB30BE40BF50B661F771F2E
:10212000881F991F1A9469F760957095809590950E
:102130009B01AC01BD01CF010895A29FB001B39FE7
:10214000C001A39F700D811D1124911DB29F700DC0
:10215000811D1124911D0895EE0FFF1F0590F4912C
:10216000E02D09940F931F93CF93DF938230910555
:1021700010F482E090E0E0911F02F091200230E044
:1021800020E0B0E0A0E0309799F42115310509F482
:102190004AC0281B390B24303105D8F58A819B8130
:1021A0006115710589F1FB0193838283FE0111C0E2
:1021B000408151810281138148175907E0F0481787
:1021C000590799F4109761F012960C931297139691
:1021D0001C933296CF01DF91CF911F910F910895FB
:1021E00000931F0210932002F4CF2115310551F006
:1021F0004217530738F0A901DB019A01BD01DF0145
:10220000F801C1CFEF01F9CF9093200280931F0214
:10221000CDCFFE01E20FF31F81939193225031093C
:1022200039832883D7CF20911D0230911E02232BA2
:1022300041F4209107013091080130931E02209350
:102240001D0220910501309106012115310541F44F
:102250002DB73EB74091090150910A01241B350B5F
:10226000E0911D02F0911E02E217F307A0F42E1B6D
:102270003F0B2817390778F0AC014E5F5F4F2417EA
:10228000350748F04E0F5F1F50931E0240931D020A
:10229000819391939FCFF0E0E0E09CCFCF93DF93C9
:1022A0000097E9F0FC01329713821282A0911F027D
:1022B000B0912002ED0130E020E01097A1F42081E0
:1022C0003181820F931F20911D0230911E02281729
:1022D000390709F061C0F0931E02E0931D02DF91FF
:1022E000CF910895EA01CE17DF07E8F54A815B81B7
:1022F0009E0141155105B1F7E901FB83EA8349913C
:102300005991C40FD51FEC17FD0761F480819181AD
:102310000296840F951FE9019983888382819381B6
:102320009B838A83F0E0E0E012968D919C91139755
:102330000097B9F52D913C911197CD010296820F2E
:10234000931F20911D0230911E022817390739F67C
:10235000309751F51092200210921F02B0931E0286
:10236000A0931D02BCCFD383C28340815181840FCF
:10237000951FC817D90761F44E5F5F4F8881998117
:10238000480F591F518340838A819B8193838283A5
:102390002115310509F0B0CFF0932002E0931F0220
:1023A0009ECFFD01DC01C0CF13821282D7CFDC01AA
:1023B00001C06D9341505040E0F7089514E0CAED1C
:1023C000D4E004C0FE010E94AC102196CB3DD107A1
:1023D000C9F7F894FFCF0F01000000000021028030
:1023E000004E757472616C000100204E426C696E83
:1023F0006B00000200E80357696E6B0000000300E9
:10240000E8034C6566740000000400E80352696745
:10241000687400000500E803557000000000000625
:1024200000E803446F776E0000000700E803416E88
:1024300067727900000800E803536164000000003F
:102440000900E8034576696C0000000A00E80345CE
:1024500076696C3200000B00E803537175696E7485
:10246000000C00E803446561640000000D00E8030F
:102470005363616E5600000E00E8035363616E48BB
:1024800000000F00E803526F626F744579657300B6
:107E0000112484B714BE81FFF0D085E080938100F7
:107E100082E08093C00088E18093C10086E0809377
:107E2000C20080E18093C4008EE0C9D0259A86E02C
:107E300020E33CEF91E0309385002093840096BBD3
:107E4000B09BFECF1D9AA8958150A9F7CC24DD24C4
:107E500088248394B5E0AB2EA1E19A2EF3E0BF2EE7
:107E6000A2D0813461F49FD0082FAFD0023811F036
:107E7000013811F484E001C083E08DD089C08234E0
:107E800011F484E103C0853419F485E0A6D080C0E4
:107E9000853579F488D0E82EFF2485D0082F10E0AE
:107EA000102F00270E291F29000F111F8ED06801E7
:107EB0006FC0863521F484E090D080E0DECF843638
:107EC00009F040C070D06FD0082F6DD080E0C81688
:107ED00080E7D80618F4F601B7BEE895C0E0D1E017
:107EE00062D089930C17E1F7F0E0CF16F0E7DF06D8
:107EF00018F0F601B7BEE89568D007B600FCFDCFD4
:107F0000A601A0E0B1E02C9130E011968C91119780
:107F100090E0982F8827822B932B1296FA010C0160
:107F200087BEE89511244E5F5F4FF1E0A038BF0790
:107F300051F7F601A7BEE89507B600FCFDCF97BE46
:107F4000E89526C08437B1F42ED02DD0F82E2BD052
:107F50003CD0F601EF2C8F010F5F1F4F84911BD097
:107F6000EA94F801C1F70894C11CD11CFA94CF0C13
:107F7000D11C0EC0853739F428D08EE10CD085E9AC
:107F80000AD08FE07ACF813511F488E018D01DD067
:107F900080E101D065CF982F8091C00085FFFCCF94
:107FA0009093C60008958091C00087FFFCCF809118
:107FB000C00084FD01C0A8958091C6000895E0E648
:107FC000F0E098E1908380830895EDDF803219F02E
:107FD00088E0F5DFFFCF84E1DECF1F93182FE3DFCA
:107FE0001150E9F7F2DF1F91089580E0E8DFEE27F6
:047FF000FF270994CA
:027FFE00040479
:00000001FF
