:020000040000FA
:100000000C944B030C9473030C9473030C947303C0
:100010000C9473030C9473030C9473030C94730388
:100020000C9473030C9473030C9473030C94730378
:100030000C9473030C9473030C9473030C94730368
:100040000C94FC050C9473030C9473030C947303CD
:100050000C9473030C9473030C9473030C94730348
:100060000C9473030C94730305A84CCDB2D44EB911
:100070003836A9020C50B9918688083CA6AAAA2A4B
:10008000BE000000803F00000000250028002B007B
:1000900000000000240027002A004602000000FFA4
:1000A0000800053E5B4F5B3E053E6B4F6B3E051CFB
:1000B0003E7C3E1C05183C7E3C18051C577D571C99
:1000C000051C5E7F5E1C0400183C1805FFE7C3E7B3
:1000D000FF040018241805FFE7DBE7FF0530483A66
:1000E000060E05262979292605407F0505070540C6
:1000F0007F05253F055A3CE73C5A057F3E1C1C08FE
:1001000005081C1C3E7F0514227F221405FFFFFFFB
:10011000FFFF05F0F0F0F0F003FFFFFF0500000027
:10012000FFFF050F0F0F0F0F0508047E04080510D1
:10013000207E20100508082A1C0805081C2A08082B
:1001400005AA005500AA05AA55AA55AA0530383EA9
:10015000383005060E3E0E06020000015F03070060
:100160000705147F147F1405444AFF4A32056313C0
:100170000864630536494936480107033E41410397
:1001800041413E05082A1C2A080508083E080802C5
:1001900060E00408080808026060056010080403B5
:1001A000053E5149453E0304027F057149494946D0
:1001B000054149494936050F0808087F054F494957
:1001C0004931053E4949493005030101017F0536A2
:1001D0004949493605064949493E026C6C026CECB6
:1001E00003081422041414141403221408050159DA
:1001F000090906053E415D594E057E0909097E053E
:100200007F49494936053E41414141057F414141D0
:100210003E057F49494941057F09090901053E41DC
:10022000414979057F0808087F03417F4105304136
:1002300041413F057F08142241057F404040400571
:100240007F020C027F057F0408107F053E4141417B
:100250003E057F09090906053E4141617E057F098A
:100260001929460546494949310501017F01010522
:100270003F4040403F051F2040201F053F40384081
:100280003F056314081463050304780403056151F2
:10029000494543037F414105030408106003414180
:1002A0007F050402010204048080808003010204AF
:1002B000043844447C047F444438043844444404AF
:1002C0003844447F043854545804047E050104180B
:1002D000A4A47C047F040478017D0384857C047FCE
:1002E000102844017F057C04780478047C04047899
:1002F000043844443804FC24241804182424FC043E
:100300007C040408045854543403047F04043C401F
:10031000407C041C20407C053C4030403C046C1078
:10032000106C041CA0A07C046454544C0408364196
:1003300041017F04414136080402010201057F4169
:1003400041417F053E5555554105384444384405E3
:100350007C2A2A3E14057E0202060605027E027EE3
:1003600002056355494163053844443C0405407E19
:10037000201E200506027E02020863130864630043
:100380006060052A2A2A2A2A03514A4403444A5112
:10039000050000FF010303E080FF05361236243616
:1003A00003020502021818021010053040FF010177
:1003B000041F01011E000000000901017F017F02EE
:1003C0000C027F0000000000000100017D041824E1
:1003D0007E2404447E454105221C141C2205012A6A
:1003E0007C2A010177044E55553903020002077E2D
:1003F00081BDA5A5817E0326292F0508142A142274
:10040000040808081803080808077E81BD95A9811B
:100410007E0501010101010302050203242E2403CC
:100420001915120315150A02020104F82040780577
:1004300006097F017F021818040080A0C003121F64
:1004400010032629260522142A140808402F100814
:10045000041E117C08402F10080462554C091555E4
:100460003F1008041E117C053048484D40057815A2
:10047000161478057814161578057A1514157A056A
:10048000781615167905781514157805781415144D
:1004900078077E09097F494941059EA1612121050F
:1004A0007C54554644057C54564544057E55544578
:1004B00046057C5554454403457E4403447E45032C
:1004C000467D4603457C4505087F49413E057C0A3B
:1004D00011227D05384445463805384446453805DF
:1004E0003A4544453A053846454639053845444578
:1004F00038052214081422057C625A463E053C4009
:1005000041423C053C4042413C053C4241423C05A5
:100510003C4140413C0502047A0502043F12120CA2
:10052000057E49494E30043845467C043844467DB2
:10053000043846457E043A45467D043845447D04EA
:10054000304A4D7A0720545438545458049CA262BF
:100550002204385556580438545659043856555ABA
:10056000043855545902017A027A010302790203D0
:1005700002780204304B4B3C047A090A710430497A
:100580004A300430484A3104304A49320432494A38
:100590003104394444390508082A08080438544C01
:1005A0003804384142780438404279043842417A6C
:1005B000043A40407A0418A0A27904FC28281004C8
:1005C0001AA0A07A00000000F304353F5E836C3F60
:1005D000BE147B3F6DC47E3F0FB17F3F43EC7F3F36
:1005E00011FB7F3FC4FE7F3FB1FF7F3FECFF7F3FAA
:1005F000FBFF7F3FFFFF7F3F0000803F0000803F09
:100600000000803F0000803F0000803FF304353F42
:1006100015EFC33EC2C5473E36BDC83D30FB483D21
:10062000B00AC93C900E493C880FC93BC60F493BF4
:10063000D60FC93AD90F493ADB0FC939DB0F49390F
:10064000DB0FC938DB0F4938BF0FC9370000000086
:100650002300260029000404040404040404020204
:100660000202020203030303030301020408102031
:10067000408001020408102001020408102000003C
:100680000008000201000003040700000000000051
:1006900000004C0D630D11241FBECFEFD8E0DEBF6C
:1006A000CDBF11E0A0E0B1E0E0EEF3E202C00590C2
:1006B0000D92AA31B107D9F723E0AAE1B1E001C058
:1006C0001D92AA39B207E1F713E0CAE4D3E004C0EF
:1006D0002197FE010E94B110C934D107C9F70E94C9
:1006E00046060C94E3110C940000833081F028F44A
:1006F000813099F08230A9F008958730A9F08830D0
:10070000C9F08430B1F4809180008F7D03C0809166
:1007100080008F7780938000089584B58F7784BDA3
:10072000089584B58F7DFBCF8091B0008F77809343
:10073000B00008958091B0008F7DF9CF1F93CF93C3
:10074000DF93282F30E0F901E258F94F8491F90145
:10075000E659F94FD491F901EA5AF94FC491CC23E3
:10076000A9F0162F81110E947503EC2FF0E0EE0F17
:10077000FF1FEA57FF4FA591B4918FB7F894EC9102
:10078000111108C0D095DE23DC938FBFDF91CF918C
:100790001F910895DE2BF8CFCF93DF9390E0FC01FB
:1007A000E659F94F24918A5A994FFC018491882384
:1007B000D1F090E0880F991FFC01E057FF4FA59101
:1007C000B491FC01EA57FF4FC591D49161110EC05D
:1007D0009FB7F8948C91E22FE0958E238C9328811B
:1007E000E223E8839FBFDF91CF9108958FB7F894FC
:1007F000EC91E22BEC938FBFF6CF3FB7F89480914A
:100800001C0190911D01A0911E01B0911F0126B500
:10081000A89B05C02F3F19F00196A11DB11D3FBF38
:10082000BA2FA92F982F8827BC01CD01620F711D07
:10083000811D911D42E0660F771F881F991F4A9501
:10084000D1F70895E5E7F3E0438550E0440F551FE5
:1008500070E060E0868597850C94DC11EF92FF9242
:100860000F931F93CF93DF9380917D038823A1F093
:1008700080917403882361F08FB7F894909174038A
:10088000913071F59DB3909373039DB39DBB8FBF62
:1008900080E58CBD81E08DBD60E080917C030E948D
:1008A0009E0380917D038823F1F030E020E0809169
:1008B000800390E0880F991F2817390708F03DC082
:1008C000E0918303F0918403E20FF31F80818EBDDA
:1008D00000000DB407FEFDCF8EB52F5F3F4FE7CF71
:1008E00080937303D5CFD0E0C0E08091800390E087
:1008F000880F991FC817D90700F5E0918303F0917D
:100900008403EC0FFD1F0081F0907B03E0907A03DD
:1009100018E0602F661F6627661F8E2D0E949E03BB
:10092000000F61E08F2D0E949E0360E08F2D0E94DA
:100930009E03115071F72196D8CF61E080917C031E
:100940000E949E0380917D03882371F0809174033F
:10095000882351F09FB7F89420917403809173031A
:10096000213049F48DBB9FBFDF91CF911F910F9133
:10097000FF90EF9008958FBFF7CFDF92EF92FF9235
:100980000F931F93CF93DF9399E0899F80011124E8
:10099000F12CE12CC82FD0E0DD24D394DE0CE091C3
:1009A0008103F0918203E00FF11F808590E00E2C0F
:1009B00002C0959587950A94E2F780FF2DC00E94AA
:1009C0002204809180038150990B8C1B9D0B880F12
:1009D000991F2091830330918403820F931FFC01A0
:1009E000D082E0918103F0918203E00FF11FEE0DC0
:1009F000FF1D4081209180032150330B2C1B3D0BA8
:100A0000220F331F8091830390918403280F391F95
:100A1000F90141830E942E04FFEFEF1AFF0A88E0DC
:100A2000E816F10409F0B8CF809181039091820318
:100A3000080F191FF8011086DF91CF911F910F91B8
:100A4000FF90EF90DF900895EF92FF920F931F9326
:100A5000CF93DF93FF24F394D0E0C0E001E010E0F7
:100A6000B9E0EB2E0E94220498010C2E02C0220F46
:100A7000331F0A94E2F7E0E090E080918003E817EA
:100A8000E0F5EE9DB0011124A0918103B0918203A5
:100A9000A60FB71F18964C9150E042235323452BC5
:100AA00051F14E2F50E08150990B841B950B880F0C
:100AB000991FA0918303B0918403A80FB91FFC92E2
:100AC000A0918103B0918203A60FB71FAC0FBD1F89
:100AD0006C91809180038150990B841B950B880F3A
:100AE000991F4091830350918403840F951FDC016B
:100AF00011966C9391E0EF5FC0CF91110E942E048C
:100B00002196F394C830D10509F0ACCF80E099E08C
:100B100020918003821758F4E0918103F0918203C1
:100B2000899FE00DF11D112410868F5FF1CFDF91B9
:100B3000CF911F910F91FF90EF900895FF920F9327
:100B40001F93CF93DF93EC018B01F0908003FA9415
:100B50000E94220460E0702F872F9AE0C230D105F6
:100B600059F0A8F59BE0C130D10531F081E00115C5
:100B7000110509F080E09CE0462F50E020918003B1
:100B80002150330B241B350B220F331FE0918303BD
:100B9000F0918403E20FF31F908320918003215092
:100BA000330B241B350B220F331F409183035091CD
:100BB0008403240F351FF90181836F5FF61660F6F9
:100BC000DF91CF911F910F91FF900C942E04C330B1
:100BD000D10559F0C430D10549F681E00115110560
:100BE00009F480E0819599E0C7CF81E001151105F6
:100BF00009F480E09FE0C0CF1F920F920FB60F92D2
:100C000011242F933F938F939F93AF93BF93809122
:100C1000210190912201A0912301B09124013091F2
:100C20001B0123E0230F2D3758F50196A11DB11D9F
:100C300020931B018093210190932201A093230113
:100C4000B093240180911C0190911D01A0911E017F
:100C5000B0911F010196A11DB11D80931C019093BD
:100C60001D01A0931E01B0931F01BF91AF919F91F1
:100C70008F913F912F910F900FBE0F901F9018955D
:100C800026E8230F0296A11DB11DD2CFCF93DF938B
:100C9000CDB7DEB7AC970FB6F894DEBF0FBECDBFB1
:100CA000789484B5826084BD84B5816084BD85B547
:100CB000826085BD85B5816085BD80916E00816053
:100CC00080936E00109281008091810082608093F9
:100CD00081008091810081608093810080918000FB
:100CE0008160809380008091B10084608093B10026
:100CF0008091B00081608093B00080917A00846020
:100D000080937A0080917A00826080937A0080914B
:100D10007A00816080937A0080917A008068809365
:100D20007A001092C10085EE80937A0010927C00C8
:100D300060E082E00E94CC0380917D03882309F467
:100D4000DEC02FB72983F89480912001811127C03C
:100D5000E0E6F6E08491E4E7F6E09491E82FF0E035
:100D6000EE0FFF1FE057FF4FA591B491EC91E923DF
:100D700021F461E08AE00E949E0361E08AE00E9423
:100D8000CC038CB580618CBD8CB580648CBD61E07A
:100D90008DE00E94CC0361E08BE00E94CC03809147
:100DA00020018F5F8093200139813FBF61E08091F6
:100DB0007C030E94CC0361E080917C030E949E032F
:100DC0001092860310928503109288031092870375
:100DD00040918003498359E0459FC00111240E943E
:100DE000B71090938203809381036981862F90E0EE
:100DF000880F991F0E94B7109093840380938303F8
:100E000080918B0390918C038A59904009F49CC087
:100E1000EAE9F0E0F0938C03E0938B0310928D03EA
:100E200088E080938E0310929103109290038FEFCD
:100E300090E0909393038093920310929503109205
:100E40009403E491E63409F033C0EBE9F0E0E49177
:100E5000E13009F45FC082E090E0E23029F5ECE98E
:100E6000F0E08491EDE9F0E0E49190E0982F88279C
:100E70008E0F911D9093910380939003EEE9F0E023
:100E80008491EFE9F0E0E49190E0982F88278E0FAD
:100E9000911D9093930380939203E0EAF0E0E49134
:100EA000E0938E0387E090E0909395038093940302
:100EB000C0909403D0909503F12CE12C20919003E5
:100EC00030919103409192035091930360E0421757
:100ED000530708F437C0F601E656FF4F84916817B0
:100EE00008F4682F90E0B0E0A0E00196A11DB11DCC
:100EF000C80ED91EEA1EFB1E2F5F3F4FE8CF61E0F0
:100F000080917A030E94CC0361E080917B030E9470
:100F1000CC034CCFECE9F0E0E491F0E0F0939103E6
:100F2000E0939003EDE9F0E0E491F0E0F0939303B7
:100F3000E0939203EEE9F0E0E491E0938E0385E024
:100F400090E0B2CF60938F0370E060E083E090E0C8
:100F50000E949E0567E070E081E090E00E949E059F
:100F600067E070E082E090E00E949E0570E060E043
:100F700084E090E00E949E0590918003915080E073
:100F800069E058E04FEF869F90011124A091810302
:100F9000B0918203A20FB31FFD01752F11927A95B4
:100FA000E9F7E0918103F0918203E20FF31F40879C
:100FB0008F5F981740F78091890381110E94240563
:100FC00070E060E090E080E00E949E050E94FD03DA
:100FD0004B015C0122E3C22ED12CE12CF12C0E94AA
:100FE000FD03681979098A099B09683E73408105E8
:100FF0009105A8F381E0C81AD108E108F10898EE3C
:10100000890E93E0991EA11CB11CC114D104E10406
:10101000F10429F7E3E7F2E0F88FEF8B23E731E003
:1010200038A72FA33A832983FA87E98715EF8091A0
:101030007A0084FFFCCF10937A0060917800709161
:101040007900725077FF02C0695F7F4F93E075951A
:1010500067959A95E1F7072E000C880B990B0E9473
:10106000E30EA985BA856D937D938D939D93BA8781
:10107000A987E981FA811192119211921192FA8352
:10108000E98323E733E02A173B0789F6890183E7E1
:10109000E82E82E0F82E1A82198249815A81BA011B
:1010A00090E080E00E94E10E20E030E04CE752E466
:1010B0000E94390E2BED3FE049EC50E40E94AE0F48
:1010C0000E94340E2FE135E84BEE5EE30E94AE0F36
:1010D0009B01AC0161E77DE38AE09FE30E94C70DBD
:1010E0004B015C01AC019B01D7016D917D918D910C
:1010F0009C910E94AE0FF70161937193819391933C
:101100007F01A5019401D8019E918E917E916E91EF
:101110008D010E94AE0FF8016083718382839383F7
:1011200029813A812F5F3F4F3A832983203231054D
:1011300009F0B3CFE3E7F2E090E080E050E040E078
:101140001DC048175907C8F4DC01AA0FBB1FAA0F1E
:10115000BB1FAD58BD4F0481158126813781CD90CD
:10116000DD90ED90FC901397C482D582E682F782E1
:101170000D931D932D933C931397349620E230E00A
:101180008217930728F0821B930B36952795F8CF8B
:10119000820F931F4F5F5F4F4F33510591F61C82B3
:1011A0001B82198A1A8A1B8A1C8A1B8E1C8E30E8A5
:1011B0003D8F4FEB4E8F61E070E07A8369838981C8
:1011C0009A81880F991F9EA38DA3A981BA8163E09C
:1011D000AA0FBB1F6A95E1F7BAA7A9A7E981FA810F
:1011E000EE0FFF1FEE0FFF1FFCA3EBA323E731E081
:1011F0003A8F298F43E752E0588B4F87412C512C6F
:10120000320110E000E050E85D836FE36E831886E2
:101210001F828F819885A981BA818A179B0709F45B
:10122000FEC0E98DFA8DFCA7EBA72F8438889E8B32
:101230008D8B2D893E892034310508F0A5C04BA146
:101240005CA1420D531D5AA349A3DA018D909D90D4
:10125000AD90BC90EBA1FCA12BA53CA5E20FF31F28
:10126000F8A3EF8F40815181628173814B875C8746
:101270006D877E87212F302F4D815E81C501B4019E
:101280000E94AE0F6B017C01A30192016B857C85EE
:101290008D859E850E94AE0F9B01AC01C701B601F2
:1012A0000E94C70D6B017C012B853C854D855E85B9
:1012B000612F702F8D819E810E94AE0F6B877C877E
:1012C0008D879E87A3019201C501B4010E94AE0FD4
:1012D0009B01AC016B857C858D859E850E94C80D28
:1012E0004B015C01A7019601F1016081718182814E
:1012F00093810E94C70DA9A1BAA16D937D938D938F
:101300009C931397A5019401EBA5FCA560817181C5
:10131000828193810E94C70DAF8DB8A16D937D939B
:101320008D939C931397A7019601F10160817181C0
:10133000828193810E94C80DD1016D937D938D931D
:101340009C931397A5019401EBA5FCA56081718185
:10135000828193810E94C80DABA5BCA56D937D933E
:101360008D939C931397ED89FE892DA13EA1E20FE9
:10137000F31FFE8BED8B49A55AA5240E351EA40F35
:10138000B51FBCA7ABA755CF212F302F4D815E8154
:101390006B8D7C8D8D8D9E8D0E94AE0F6B017C01BF
:1013A000A301920169897A898B899C890E94AE0F79
:1013B0009B01AC01C701B6010E94C70D6B017C0106
:1013C000A30192016B8D7C8D8D8D9E8D0E94AE0F41
:1013D0004B015C01212F302F4D815E8169897A8913
:1013E0008B899C890E94AE0FA50194010E94C80DB3
:1013F0002B013C016F8178856F5F7F4F78876F830A
:101400008F8598890496988B8F87A98DBA8D1496AD
:10141000BA8FA98F1C2D0D2DED82FE82FACEEB81A5
:10142000FC81E85FF94F4591559165917491EB818D
:10143000FC81EC53FA4F85919591A591B4918B8FD6
:101440009C8FAD8FBE8FDB01CA01B058898B9A8B00
:10145000AB8BBC8BAB81BC811496BC83AB83EDA101
:10146000FEA1FA83E983589709F0A9CE23E732E079
:101470003A832983A981BA816D917D918D919D9146
:10148000BA83A983EFA1F8A5C190D190E190F19022
:10149000F8A7EFA39B01AC010E94AE0F4B015C01CA
:1014A000A7019601C701B6010E94AE0F9B01AC01D6
:1014B000C501B4010E94C80D0E942110E981FA8182
:1014C0003497608371838283938329813A8149852C
:1014D0005A852417350771F64BE5442E41E0542E0A
:1014E0005A824982AF89B88D6D917D918D919D9180
:1014F000B88FAF8B20E030E0A9010E94C80D0E9498
:10150000AB0EE981FA816193FA83E9832F89388DE3
:10151000235F324039F76BE271E07A8369830FE031
:1015200010E039E0D32E66246A94D2016D912D012A
:1015300061350CF4CCC060E5062E000C770B880BEF
:10154000990B23E0660F771F881F991F2A95D1F703
:1015500020E530E040E050E00E94860DF201319736
:101560002083C901E981FA8120813181215031092B
:10157000281739070CF4AFC03183208329813A81C1
:101580002E5F3F4F3A8329830190F081E02DEE0FCB
:10159000FF1FEE5FFE4F20813181F02FF770C801F1
:1015A000B3E096958795BA95E1F7E82F40918003CF
:1015B00050917703552309F4A1C0841708F065C042
:1015C0008D9D5001112441E050E060E070E00F2E4D
:1015D00004C0440F551F661F771F0A94D2F7842E4C
:1015E000C42EC094A7E0B0E0AF1BB10941E050E0C9
:1015F00060E070E004C0440F551F661F771FAA9576
:10160000D2F74B875C876D877E879B84F42FF0959C
:1016100070E060E03327AB01A0918103B0918203B9
:10162000AA0DBB1D30907903709078037901062EC6
:1016300002C0F594E7940A94E2F7E0FE51C033202B
:1016400021F047E050E0461B570BA40FB51F4C910B
:10165000582D7110592D452B4C936F5F7F4F68307B
:101660007105C9F62091810330918203A20EB31E49
:10167000D50118966C9220918903222331F0209194
:101680008003E21710F40E94BD0401501109073FC6
:10169000BFEF1B0709F049CFE0E8F6E08491ECE6E4
:1016A000F6E024912983E8E5F6E034913B8331119B
:1016B00087C090E080E090932A018093290180E028
:1016C00090E0892B09F4A6CC0E940000A3CC67FF10
:1016D00033CF60E031CFA981BA818D939C934ECFF7
:1016E000332021F047E050E0461B570BA40FB51FF5
:1016F0004C915C2D71105F2F4523AECF841708F0FD
:10170000C4CFC22E409178034423D1F02295622F9A
:1017100070E0AB0155954795559547954373660F16
:10172000771F660F771F6C7C462B242F30E0A901B2
:10173000559547954575220F331F2A7AC42EC22A24
:101740008D9D5001112440918103509182034A0DD7
:101750005B1D6F2F70E02091790397E0E92EF12C4B
:10176000E61AF70A211101C07B014E0D5F1DDA0157
:10177000CC922091810330918203D501A20FB31F37
:101780001896FC90189720917903222399F027E06E
:1017900030E0261B370B41E050E060E070E004C011
:1017A000440F551F661F771F2A95D2F74F291896A9
:1017B0004C9361CF41E001C0440FFA95EAF7F6CFB0
:1017C00081110E9475034B81E42FF0E0EE0FFF1FA3
:1017D000E45BF94FA591B491EC9159815E2309F432
:1017E00068CF8091290190912A01892B19F081E01D
:1017F00090E061CF2FB7F894809121019091220160
:10180000A0912301B09124012FBF40912501509157
:1018100026016091270170912801841B950BA60B6E
:10182000B70BC397A105B10510F38091000190910A
:1018300001018330910509F4C1C0DCF481309105C8
:1018400009F44EC0029709F482C02FB7F894809132
:10185000210190912201A0912301B09124012FBF79
:101860008093250190932601A0932701B09328012E
:10187000BECF8430910509F4D8C0059731F7A1E0B7
:10188000B0E0B0930101A093000110920301109207
:10189000020180E890E0909305018093040180ECC0
:1018A00090E0909307018093060180EE90E0909382
:1018B00009018093080180EF90E090930B018093E1
:1018C0000A0188EF90E090930D0180930C018CEF5A
:1018D00090E090930F0180930E018EEF90E0D5C0C1
:1018E00022E030E0309301012093000110920301C7
:1018F0001092020140E850E050930501409304012A
:1019000040E450E0509307014093060140E250E06C
:10191000509309014093080140E150E050930B01BE
:1019200040930A0148E050E050930D0140930C01B0
:1019300044E050E050930F0140930E0130931101A9
:101940002093100190931301809312017ECF83E0C6
:1019500090E0909301018093000110920301109296
:10196000020180E890E0909305018093040180ECEF
:1019700090E0909307018093060180EA90E09093B5
:1019800009018093080180E990E090930B01809316
:101990000A0188E890E090930D0180930C0184E89F
:1019A00090E090930F0180930E0182E890E0909375
:1019B00011018093100181E890E0C4CF84E090E0B1
:1019C0009093010180930001109203011092020193
:1019D00080E890E0909305018093040180EC90E012
:1019E000909307018093060180EA90E090930901AB
:1019F0008093080180ED90E090930B0180930A01A1
:101A000088EE90E090930D0180930C0184EF90E0BC
:101A100090930F0180930E018AEF90E09093110153
:101A2000809310018DEF90E08DCF85E090E0909352
:101A3000010180930001109203011092020161E004
:101A400070E0709305016093040183E090E090934F
:101A500007018093060187E090E09093090180934D
:101A600008018FE090E090930B0180930A018FE1D1
:101A700090E090930D0180930C018FE390E09093A0
:101A80000F0180930E018FE790E0909311018093F6
:101A900010018FEF90E056CFE5E7F3E01582168254
:101AA0008AE0878381E080872AE131E032872187DD
:101AB00093E09387848B21E030E03183208382831D
:101AC00013821482089580917D03882399F09FB733
:101AD000F89480912001882319F08150809320018F
:101AE00080912001811105C08CB58F7B8CBD109237
:101AF00074039FBF80918103909182030E945311D0
:101B000080918303909184030C945311052E97FBCD
:101B10001EF400940E949D0D57FD07D00E94A50D54
:101B200007FC03D04EF40C949D0D509540953095D4
:101B300021953F4F4F4F5F4F089590958095709539
:101B400061957F4F8F4F9F4F0895A1E21A2EAA1BD8
:101B5000BB1BFD010DC0AA1FBB1FEE1FFF1FA2175D
:101B6000B307E407F50720F0A21BB30BE40BF50B5A
:101B7000661F771F881F991F1A9469F760957095E3
:101B8000809590959B01AC01BD01CF0108955058FF
:101B9000BB27AA270E94DF0D0C94600F0E94270F1D
:101BA00038F00E942E0F20F039F49F3F19F426F4EC
:101BB0000C94240F0EF4E095E7FB0C941E0FE92F14
:101BC0000E94850F58F3BA176207730784079507B9
:101BD00020F079F4A6F50C94A70F0EF4E0950B2EE7
:101BE000BA2FA02D0B01B90190010C01CA01A0016F
:101BF0001124FF27591B99F0593F50F4503E68F1CA
:101C00001A16F040A22F232F342F4427585FF3CF0A
:101C1000469537952795A795F0405395C9F77EF4DB
:101C20001F16BA0B620B730B840BBAF09150A1F024
:101C3000FF0FBB1F661F771F881FC2F70EC0BA0FAA
:101C4000621F731F841F48F4879577956795B79532
:101C5000F7959E3F08F0B0CF9395880F08F099272D
:101C6000EE0F9795879508950E94370FE3950C9492
:101C7000710F0E944D0E0C94600F0E942E0F58F0B1
:101C80000E94270F40F029F45F3F29F00C941E0FAB
:101C900051110C94A80F0C94240F0E94850F68F327
:101CA0009923B1F3552391F3951B550BBB27AA2715
:101CB00062177307840738F09F5F5F4F220F331F4F
:101CC000441FAA1FA9F335D00E2E3AF0E0E832D017
:101CD00091505040E695001CCAF72BD0FE2F29D01A
:101CE000660F771F881FBB1F261737074807AB07EC
:101CF000B0E809F0BB0B802DBF01FF2793585F4F61
:101D00003AF09E3F510578F00C941E0F0C94A80FEA
:101D10005F3FE4F3983ED4F3869577956795B79542
:101D2000F7959F5FC9F7880F911D9695879597F94D
:101D30000895E1E0660F771F881FBB1F62177307C6
:101D40008407BA0720F0621B730B840BBA0BEE1FDB
:101D500088F7E09508950E94B20E6894B1110C9432
:101D6000A80F08950E948D0F88F09F5798F0B92F03
:101D70009927B751B0F0E1F0660F771F881F991FC0
:101D80001AF0BA95C9F714C0B13091F00E94A70FAC
:101D9000B1E008950C94A70F672F782F8827B85FBC
:101DA00039F0B93FCCF3869577956795B395D9F718
:101DB0003EF490958095709561957F4F8F4F9F4F22
:101DC0000895E89409C097FB3EF49095809570952E
:101DD00061957F4F8F4F9F4F9923A9F0F92F96E977
:101DE000BB279395F695879577956795B795F111EC
:101DF000F8CFFAF4BB0F11F460FF1BC06F5F7F4F89
:101E00008F4F9F4F16C0882311F096E911C077239A
:101E100021F09EE8872F762F05C0662371F096E8A3
:101E2000862F70E060E02AF09A95660F771F881F72
:101E3000DAF7880F9695879597F9089597F99F6730
:101E400080E870E060E008959FEF80EC0895002442
:101E50000A941616170618060906089500240A940F
:101E6000121613061406050608950C94240F0E94FA
:101E70008D0FD8F3E894E0E0BB279F57F0F02AEDF0
:101E80003FE049EC06C0EE0FBB0F661F771F881FAF
:101E900028F0B23A62077307840728F0B25A620B3F
:101EA000730B840BE3959A9572F7803830F49A950A
:101EB000BB0F661F771F881FD2F790480C946310E2
:101EC000092E0394000C11F4882352F0BB0F40F448
:101ED000BF2B11F460FF04C06F5F7F4F8F4F9F4F88
:101EE0000895EF93E0FF07C0A2EA2AED3FE049EC36
:101EF0005FEB0E94DF0D0E94600F0F90039401FCC6
:101F00009058E8E6F0E00C94761057FD9058440F96
:101F1000551F59F05F3F71F04795880F97FB991F48
:101F200061F09F3F79F08795089512161306140605
:101F3000551FF2CF4695F1DF08C016161706180692
:101F4000991FF1CF86957105610508940895E8946D
:101F5000BB2766277727CB0197F908950E94C10F09
:101F60000C94600F0E94270F38F00E942E0F20F073
:101F7000952311F00C941E0F0C94240F11240C9433
:101F8000A80F0E94850F70F3959FC1F3950F50E045
:101F9000551F629FF001729FBB27F00DB11D639F1B
:101FA000AA27F00DB11DAA1F649F6627B00DA11DC1
:101FB000661F829F2227B00DA11D621F739FB00D67
:101FC000A11D621F839FA00D611D221F749F3327D7
:101FD000A00D611D231F849F600D211D822F762F70
:101FE0006A2F11249F5750409AF0F1F088234AF04D
:101FF000EE0FFF1FBB1F661F771F881F91505040B9
:10200000A9F79E3F510580F00C941E0F0C94A80F69
:102010005F3FE4F3983ED4F3869577956795B7953F
:10202000F795E7959F5FC1F7FE2B880F911D969559
:10203000879597F9089519F416F40C94240F0C94CD
:1020400061100E948D0FB8F39923C9F3B6F39F571F
:10205000550B87FF0E946F100024A0E640EA900114
:1020600080585695979528F4805C660F771F881FD7
:1020700020F026173707480730F4621B730B840BD8
:10208000202931294A2BA69517940794202531251C
:102090004A2758F7660F771F881F20F02617370743
:1020A000480730F4620B730B840B200D311D411D6A
:1020B000A09581F7B901842F9158880F969587953F
:1020C00008959F3F31F0915020F48795779567955B
:1020D000B795880F911D9695879597F9089591501A
:1020E0005040660F771F881FD2F708959F938F93F4
:1020F0007F936F93FF93EF939B01AC010E94AE0F10
:10210000EF91FF910E948A102F913F914F915F9123
:102110000C94AE0FDF93CF931F930F93FF92EF9228
:10212000DF927B018C01689406C0DA2EEF010E94D9
:10213000C10FFE01E894A5912591359145915591E6
:10214000A6F3EF010E94DF0DFE019701A801DA94CA
:1021500069F7DF90EF90FF900F911F91CF91DF9182
:102160000895EE0FFF1F0590F491E02D09940F9351
:102170001F93CF93DF938230910510F482E090E0BB
:10218000E0919803F091990330E020E0B0E0A0E006
:10219000309799F42115310509F44AC0281B390BF1
:1021A00024303105D8F58A819B816115710589F14B
:1021B000FB0193838283FE0111C040815181028122
:1021C000138148175907E0F04817590799F41097F9
:1021D00061F012960C93129713961C933296CF01CE
:1021E000DF91CF911F910F91089500939803109361
:1021F0009903F4CF2115310551F04217530738F0F8
:10220000A901DB019A01BD01DF01F801C1CFEF0196
:10221000F9CF9093990380939803CDCFFE01E20FFD
:10222000F31F819391932250310939832883D7CFAB
:102230002091960330919703232B41F420911601AE
:102240003091170130939703209396032091140146
:10225000309115012115310541F42DB73EB740915C
:10226000180150911901241B350BE0919603F09150
:102270009703E217F307A0F42E1B3F0B281739072B
:1022800078F0AC014E5F5F4F2417350748F04E0FD2
:102290005F1F5093970340939603819391939FCF31
:1022A000F0E0E0E09CCFCF93DF930097E9F0FC01F2
:1022B000329713821282A0919803B0919903ED0195
:1022C00030E020E01097A1F420813181820F931F2C
:1022D00020919603309197032817390709F061C0C0
:1022E000F0939703E0939603DF91CF910895EA016D
:1022F000CE17DF07E8F54A815B819E014115510544
:10230000B1F7E901FB83EA8349915991C40FD51FC5
:10231000EC17FD0761F4808191810296840F951F6F
:10232000E90199838883828193819B838A83F0E08A
:10233000E0E012968D919C9113970097B9F52D913D
:102340003C911197CD010296820F931F2091960325
:10235000309197032817390739F6309751F51092C5
:10236000990310929803B0939703A0939603BCCF60
:10237000D383C28340815181840F951FC817D90729
:1023800061F44E5F5F4F88819981480F591F5183D7
:1023900040838A819B81938382832115310509F0D3
:1023A000B0CFF0939903E09398039ECFFD01DC0139
:1023B000C0CF13821282D7CFDC0101C06D93415090
:1023C0005040E0F7089513E0CAE4D3E004C0FE01F2
:1023D0000E94B1102196CB34D107C9F7F894FFCFF2
:1023E000010000008000C000E000F000F800FC00E8
:0A23F000FE00FF0000009A038000C9
:107E0000112484B714BE81FFF0D085E080938100F7
:107E100082E08093C00088E18093C10086E0809377
:107E2000C20080E18093C4008EE0C9D0259A86E02C
:107E300020E33CEF91E0309385002093840096BBD3
:107E4000B09BFECF1D9AA8958150A9F7CC24DD24C4
:107E500088248394B5E0AB2EA1E19A2EF3E0BF2EE7
:107E6000A2D0813461F49FD0082FAFD0023811F036
:107E7000013811F484E001C083E08DD089C08234E0
:107E800011F484E103C0853419F485E0A6D080C0E4
:107E9000853579F488D0E82EFF2485D0082F10E0AE
:107EA000102F00270E291F29000F111F8ED06801E7
:107EB0006FC0863521F484E090D080E0DECF843638
:107EC00009F040C070D06FD0082F6DD080E0C81688
:107ED00080E7D80618F4F601B7BEE895C0E0D1E017
:107EE00062D089930C17E1F7F0E0CF16F0E7DF06D8
:107EF00018F0F601B7BEE89568D007B600FCFDCFD4
:107F0000A601A0E0B1E02C9130E011968C91119780
:107F100090E0982F8827822B932B1296FA010C0160
:107F200087BEE89511244E5F5F4FF1E0A038BF0790
:107F300051F7F601A7BEE89507B600FCFDCF97BE46
:107F4000E89526C08437B1F42ED02DD0F82E2BD052
:107F50003CD0F601EF2C8F010F5F1F4F84911BD097
:107F6000EA94F801C1F70894C11CD11CFA94CF0C13
:107F7000D11C0EC0853739F428D08EE10CD085E9AC
:107F80000AD08FE07ACF813511F488E018D01DD067
:107F900080E101D065CF982F8091C00085FFFCCF94
:107FA0009093C60008958091C00087FFFCCF809118
:107FB000C00084FD01C0A8958091C6000895E0E648
:107FC000F0E098E1908380830895EDDF803219F02E
:107FD00088E0F5DFFFCF84E1DECF1F93182FE3DFCA
:107FE0001150E9F7F2DF1F91089580E0E8DFEE27F6
:047FF000FF270994CA
:027FFE00040479
:00000001FF
