:020000040000FA
:100000000C945C000C94E6010C94BF010C947900F4
:100010000C9479000C9479000C9479000C9479007C
:100020000C9479000C9479000C9479000C9479006C
:100030000C9479000C9479000C9479000C9479005C
:100040000C9475010C9479000C9479000C9479004F
:100050000C9479000C9479000C9479000C9479003C
:100060000C9479000C947900000000002400270013
:100070002A0000000000250028002B0004040404CE
:100080000404040402020202020203030303030342
:10009000010204081020408001020408102001021F
:1000A00004081020000000080002010000030407FB
:1000B000000000000000000011241FBECFEFD8E0B8
:1000C000DEBFCDBF11E0A0E0B1E0ECE9F5E002C099
:1000D00005900D92A430B107D9F721E0A4E0B1E07A
:1000E00001C01D92AE30B207E1F70E940D020C94E0
:1000F000CC020C94000090910D0181E0911180E000
:1001000080930D01089590E0FC01EC55FF4F249180
:10011000FC01E057FF4F3491FC01E458FF4FE4919C
:10012000EE23C9F0222339F0233001F1A8F4213065
:1001300019F1223029F1F0E0EE0FFF1FEE58FF4FCA
:10014000A591B4918FB7F894EC91611126C03095C8
:100150003E233C938FBF08952730A9F02830C9F083
:10016000243049F7809180008F7D03C0809180000A
:100170008F7780938000DFCF84B58F7784BDDBCF0E
:1001800084B58F7DFBCF8091B0008F778093B000D6
:10019000D2CF8091B0008F7DF9CF3E2BDACFCF93B5
:1001A000DF9390E0FC01E057FF4F249184589F4F6C
:1001B000FC0184918823D1F090E0880F991FFC0105
:1001C000E859FF4FA591B491FC01EE58FF4FC5913E
:1001D000D491623071F49FB7F8943C91822F80954E
:1001E00083238C93E8812E2B28839FBFDF91CF91AF
:1001F00008958FB7F894EC912E2B2C938FBFF6CFE8
:100200003FB7F8948091090190910A01A0910B01E8
:10021000B0910C0126B5A89B05C02F3F19F001969F
:10022000A11DB11D3FBFBA2FA92F982F8827BC0150
:10023000CD01620F711D811D911D42E0660F771F78
:10024000881F991F4A95D1F708958F929F92AF9278
:10025000BF92CF92DF92EF92FF920E9400014B017A
:100260005C018CE2C82EDD24D394E12CF12C0E9499
:100270000001681979098A099B09683E7340810564
:100280009105A8F321E0C21AD108E108F10888EE2F
:10029000880E83E0981EA11CB11CC114D104E10496
:1002A000F10429F7FF90EF90DF90CF90BF90AF90CF
:1002B0009F908F9008950895CF93DF93D82FC8E033
:1002C0006D2F661F6627661F8BE00E948300DD0F7F
:1002D00061E08CE00E94830060E08CE00E9483007B
:1002E000C15071F7DF91CF9108951F920F920FB611
:1002F0000F9211242F933F938F939F93AF93BF93AC
:100300008091050190910601A0910701B09108012B
:100310003091040123E0230F2D3758F50196A11DDC
:10032000B11D209304018093050190930601A093D1
:100330000701B09308018091090190910A01A091F1
:100340000B01B0910C010196A11DB11D8093090113
:1003500090930A01A0930B01B0930C01BF91AF9150
:100360009F918F913F912F910F900FBE0F901F90F3
:10037000189526E8230F0296A11DB11DD2CF1F921A
:100380000F920FB60F9211242F933F934F935F93C9
:100390006F937F938F939F93AF93BF93EF93FF934D
:1003A000E0910201F09103010995FF91EF91BF9156
:1003B000AF919F918F917F916F915F914F913F91FD
:1003C0002F910F900FBE0F901F9018951F920F92B4
:1003D0000FB60F9211242F933F934F935F936F9318
:1003E0007F938F939F93AF93BF93EF93FF93E0918E
:1003F0000001F09101010995FF91EF91BF91AF913B
:100400009F918F917F916F915F914F913F912F912C
:100410000F900FBE0F901F901895789484B582604E
:1004200084BD84B5816084BD85B5826085BD85B598
:10043000816085BD80916E00816080936E00109216
:100440008100809181008260809381008091810091
:100450008160809381008091800081608093800022
:100460008091B10084608093B1008091B000816080
:100470008093B00080917A00846080937A008091AC
:100480007A00826080937A0080917A008160809304
:100490007A0080917A00806880937A001092C1007F
:1004A00061E086E00E94CF0062E082E00E94CF001F
:1004B0008BE790E0909301018093000180916900A7
:1004C0008C7F826080936900E89A61E088E00E94F6
:1004D000CF0061E08CE00E94CF0061E08BE00E94E1
:1004E000CF00C0E0D0E060910D0186E00E94830063
:1004F00060E088E00E94830087E00E945C0161E088
:1005000088E00E9483000E94250160E088E00E944C
:1005100083008EE00E945C0161E088E00E9483001D
:100520000E94250160E088E00E9483008CE10E9427
:100530005C0161E088E00E9483000E94250160E088
:1005400088E00E94830088E30E945C0161E088E00B
:100550000E9483000E94250160E088E00E948300E1
:1005600080E70E945C0161E088E00E9483000E94B5
:10057000250160E088E00E94830080EE0E945C011B
:1005800061E088E00E9483000E942501209709F421
:10059000AACF0E940000A7CFF894FFCF5B015B01B8
:107E0000112484B714BE81FFF0D085E080938100F7
:107E100082E08093C00088E18093C10086E0809377
:107E2000C20080E18093C4008EE0C9D0259A86E02C
:107E300020E33CEF91E0309385002093840096BBD3
:107E4000B09BFECF1D9AA8958150A9F7CC24DD24C4
:107E500088248394B5E0AB2EA1E19A2EF3E0BF2EE7
:107E6000A2D0813461F49FD0082FAFD0023811F036
:107E7000013811F484E001C083E08DD089C08234E0
:107E800011F484E103C0853419F485E0A6D080C0E4
:107E9000853579F488D0E82EFF2485D0082F10E0AE
:107EA000102F00270E291F29000F111F8ED06801E7
:107EB0006FC0863521F484E090D080E0DECF843638
:107EC00009F040C070D06FD0082F6DD080E0C81688
:107ED00080E7D80618F4F601B7BEE895C0E0D1E017
:107EE00062D089930C17E1F7F0E0CF16F0E7DF06D8
:107EF00018F0F601B7BEE89568D007B600FCFDCFD4
:107F0000A601A0E0B1E02C9130E011968C91119780
:107F100090E0982F8827822B932B1296FA010C0160
:107F200087BEE89511244E5F5F4FF1E0A038BF0790
:107F300051F7F601A7BEE89507B600FCFDCF97BE46
:107F4000E89526C08437B1F42ED02DD0F82E2BD052
:107F50003CD0F601EF2C8F010F5F1F4F84911BD097
:107F6000EA94F801C1F70894C11CD11CFA94CF0C13
:107F7000D11C0EC0853739F428D08EE10CD085E9AC
:107F80000AD08FE07ACF813511F488E018D01DD067
:107F900080E101D065CF982F8091C00085FFFCCF94
:107FA0009093C60008958091C00087FFFCCF809118
:107FB000C00084FD01C0A8958091C6000895E0E648
:107FC000F0E098E1908380830895EDDF803219F02E
:107FD00088E0F5DFFFCF84E1DECF1F93182FE3DFCA
:107FE0001150E9F7F2DF1F91089580E0E8DFEE27F6
:047FF000FF270994CA
:027FFE00040479
:00000001FF
