:100000000C945D000C9485000C9485000C94850084
:100010000C9485000C9485000C9485000C9485004C
:100020000C9485000C9485000C9485000C9485003C
:100030000C9485000C9485000C9485000C9485002C
:100040000C94D7020C9485000C9485000C948500C8
:100050000C9485000C9485000C9485000C9485000C
:100060000C9485000C94850000000008000201003B
:100070000003040700000000000000000000000072
:10008000250028002B0000000000240027002A0083
:10009000040404040404040402020202020203032E
:1000A0000303030301020408102040800102040836
:1000B0001020010204081020ED0511241FBECFEF0F
:1000C000D8E0DEBFCDBF15E0A0E0B1E0E8EDFCE098
:1000D00002C005900D92A030B107D9F725E0A0E04D
:1000E000B5E001C01D92A736B207E1F710E0CDE5FB
:1000F000D0E004C02197FE010E946406CC35D107F0
:10010000C9F70E9421030C946A060C94000090E049
:10011000FC01EC55FF4F249180579F4FFC018491C7
:10012000882399F090E0880F991FFC01EA57FF4F50
:10013000A591B491FC01E458FF4F859194918FB73C
:10014000F894EC91E22BEC938FBF089590E0FC01C2
:10015000E859FF4F2491FC01EC55FF4F3491FC010D
:10016000E057FF4FE491EE23C9F0222339F023300A
:1001700001F1A8F4213019F1223029F1F0E0EE0F5D
:10018000FF1FE458FF4FA591B4918FB7F894EC91FD
:10019000611126C030953E233C938FBF08952730D0
:1001A000A9F02830C9F0243049F7809180008F7D74
:1001B00003C0809180008F7780938000DFCF84B56B
:1001C0008F7784BDDBCF84B58F7DFBCF8091B0006E
:1001D0008F778093B000D2CF8091B0008F7DF9CF20
:1001E0003E2BDACF3FB7F894809105059091060534
:1001F000A0910705B091080526B5A89B05C02F3F23
:1002000019F00196A11DB11D3FBFBA2FA92F982F3C
:100210008827BC01CD01620F711D811D911D42E037
:10022000660F771F881F991F4A95D1F708958F92FF
:100230009F92AF92BF92CF92DF92EF92FF924B01CB
:100240005C010E94F2006B017C010E94F2006C19BB
:100250007D098E099F09683E734081059105A8F3C9
:1002600021E0821A9108A108B10888EEC80E83E047
:10027000D81EE11CF11C81149104A104B10429F7DA
:10028000FF90EF90DF90CF90BF90AF909F908F90B6
:1002900008954F925F926F927F928F929F92AF924A
:1002A000BF92CF92DF92EF92FF920F931F93CF9363
:1002B000DF9300D0CDB7DEB78C0149832A83660F68
:1002C000771FF801EA5AFF4FE080F180EE0CFF1C27
:1002D000F801CF01801B910B8E159F0514F411922C
:1002E000F8CF8981F801E60FF71F81838A81808327
:1002F000680184E5C80ED11C60E0F60180810E948F
:10030000A6005801F2E5AF0EB11C480180E5880E49
:10031000911C1E141F040CF5E1E0EE1AF108F8011F
:10032000EE0DFF1D6080F5015080F401408088E0F3
:10033000782E662D661F6627661F842D0E94A600F4
:10034000660C61E0852D0E94A60060E0852D0E946C
:10035000A6007A947110EDCFDCCF61E0F6018081C8
:100360000F900F90DF91CF911F910F91FF90EF9021
:10037000DF90CF90BF90AF909F908F907F906F90C5
:100380005F904F900C94A600EF92FF920F931F93F3
:10039000CF937C018C0183E0000F111F8A95E1F758
:1003A000015E1A4FC1E0F80111928F0120E04C2F3D
:1003B000B7018FE095E00E944901CF5FC93099F7FE
:1003C000CF911F910F91FF90EF900895FC01EA5A91
:1003D000FF4F0190F081E02D6E177F078CF44830BD
:1003E000510571F0FB0133E0EE0FFF1F3A95E1F785
:1003F000E80FF91FE40FF51F208B4F5F0C944901A4
:100400000895CF92DF92EF92FF920F931F93CF93B5
:10041000DF9300D0CDB7DEB7A7968EAD9FADA7977F
:100420009A838983F12CE12C09811A810E0D1F1DFD
:10043000D12CC12C92E0E916F1041CF5F8012081C1
:10044000A601B701CE010D960E94E601FFEFCF1A7B
:10045000DF0A0E5F1F4F88E0C816D10479F79FEFBF
:10046000E91AF90AE4E0EE16F104F1F60F900F90A4
:10047000DF91CF911F910F91FF90EF90DF90CF9080
:100480000895F8012685A601B701CE010D960E94B8
:10049000E601FFEFCF1ADF0A0E5F1F4F88E0C81694
:1004A000D10479F7DCCFCF92DF92EF92FF920F93D6
:1004B0001F93CF93DF9300D0CDB7DEB7A7968EAD55
:1004C0009FADA7979A838983F12CE12C09811A812A
:1004D0000E0D1F1DD12CC12C92E0E916F1041CF564
:1004E000F8012081A601B701CE010D960E94E60118
:1004F000FFEFCF1ADF0A0E5F1F4F88E0C816D10446
:1005000079F79FEFE91AF90AE4E0EE16F104F1F643
:100510000F900F90DF91CF911F910F91FF90EF906F
:10052000DF90CF900895F8012685A601B701CE018E
:100530000D960E94E601FFEFCF1ADF0A0E5F1F4FF4
:1005400088E0C816D10479F7DCCF0F93FC01EA5A92
:10055000FF4F0190F081E02D6E177F0734F5483092
:10056000510518F52830310501F1E0E8F0E0DF0130
:1005700002C0B595A7952A95E2F79D01FB0133E0EE
:10058000EE0FFF1F3A95E1F7E40FF51FE80FF91F93
:10059000A089002339F02A2B208B4F5F20890F91EF
:1005A0000C94490120952A23F7CF0F9108951F92AB
:1005B0000F920FB60F9211242F933F938F939F9317
:1005C000AF93BF938091010590910205A09103051F
:1005D000B09104053091000523E0230F2D3758F525
:1005E0000196A11DB11D20930005809301059093F4
:1005F0000205A0930305B093040580910505909131
:100600000605A0910705B09108050196A11DB11D31
:100610008093050590930605A0930705B093080500
:10062000BF91AF919F918F913F912F910F900FBEEE
:100630000F901F90189526E8230F0296A11DB11D5B
:10064000D2CFCF93DF93CDB7DEB7CE50D1400FB628
:10065000F894DEBF0FBECDBF789484B5826084BDB0
:1006600084B5816084BD85B5826085BD85B58160B6
:1006700085BD80916E00816080936E001092810034
:1006800080918100826080938100809181008160EF
:1006900080938100809180008160809380008091B0
:1006A000B10084608093B1008091B000816080933C
:1006B000B00080917A00846080937A0080917A0003
:1006C000826080937A0080917A00816080937A00C2
:1006D00080917A00806880937A001092C10010E0C7
:1006E00000E08091650590916605081719073CF4B4
:1006F00021E04CE0B8018FE095E00E944901809133
:10070000650590916605081719073CF428E04AE052
:10071000B8018FE095E00E944901809165059091B4
:100720006605081719071CF4C8010E94C4010F5F71
:100730001F4F04301105A9F68DE090E090930C0551
:1007400080930B0580E990E090930A05809309055A
:1007500080E790E090930E0580930D0520EE34E045
:100760003F932F93EDB7FEB7E855F1090FB6F89414
:10077000FEBF0FBEEDBFADB7BEB7119688E5EFE087
:10078000F5E001900D928A95E1F70E9401020FB603
:10079000F894DEBF0FBECDBF68EE73E080E090E05E
:1007A0000E94170105E010E080EC94E09F938F9386
:1007B0002DB73EB7285531090FB6F8943EBF0FBE8E
:1007C0002DBFADB7BEB7119688E5EFE0F5E001901B
:1007D0000D928A95E1F70E9453020FB6F894DEBF9E
:1007E0000FBECDBF68EE73E080E090E00E9417017D
:1007F000E0EAF4E0FF93EF938DB79EB78855910937
:100800000FB6F8949EBF0FBE8DBFADB7BEB71196A1
:1008100088E5EFE0F5E001900D928A95E1F70E94FE
:1008200053020FB6F894DEBF0FBECDBF60ED77E088
:1008300080E090E00E9417010150110909F0B4CF47
:1008400020EC34E03F932F93EDB7FEB7E855F10964
:100850000FB6F894FEBF0FBEEDBFADB7BEB7119691
:1008600088E5EFE0F5E001900D928A95E1F70E94AE
:1008700053020FB6F894DEBF0FBECDBF60EB74E03D
:1008800080E090E00E94170188E5EFE0F5E0DE01EE
:10089000119601900D928A95E1F7B12CA12C00E8F8
:1008A00013E08091090590910A050F97A816B906E3
:1008B0000CF043C0D12CC12C7801EC0CFD1C912C08
:1008C000812C32E0C316D1042CF5F7012081A4015C
:1008D000B601CE0101960E94E601FFEF8F1A9F0A32
:1008E00022E0E20EF11C38E08316910471F78FEFDD
:1008F000C81AD80A94E0C916D104F1F60E5F1F4F4A
:1009000063E270E080E090E00E941701EFEFAE1A22
:10091000BE0AC7CFF7012685A401B601CE01019614
:100920000E94E601FFEF8F1A9F0A22E0E20EF11CFF
:1009300038E08316910471F7DACF68EE73E080E057
:1009400090E00E94170188E5EFE0F5E0DE01A75A8C
:10095000BF4F01900D928A95E1F700EE11E0F12C66
:10096000E12C80910B0590910C05E816F9064CF5E9
:100970001F930F932DB73EB7285531090FB6F89442
:100980003EBF0FBE2DBFADB7BEB7119688E5FE01C5
:10099000E75AFF4F01900D928A95E1F70E940102FC
:1009A0000FB6F894DEBF0FBECDBF60E273E080E00B
:1009B00090E00E9417019FEFE91AF90A005E1F4FAD
:1009C000D0CF64EF71E080E090E00E94170188E5ED
:1009D000EFE0F5E0DE01AF54BF4F01900D928A9534
:1009E000E1F7C75FDE4F19821882C950D1408FE00E
:1009F000E82E81E0F82E90E0292E91E0392E8091AA
:100A00000D0590910E054097C75FDE4FE881F98193
:100A1000C950D140E817F9070CF0D1C05101F0E1FD
:100A2000AF0EB11C2101D12CC12C9701205F3F4F8B
:100A3000C35FDE4F39832883CD50D140712C612CA8
:100A400032E0C316D1040CF068C0C95FDE4F888164
:100A50009981C750D140C816D9065CF5F201808152
:100A6000912C812C282F30E0C55FDE4F39832883FD
:100A7000CB50D14087E090E088199909C55FDE4FDF
:100A800008811981CB50D14002C0159507958A95F0
:100A9000E2F701709301A401B601CE018F549F4F7C
:100AA0000E94A5023FEF831A930A88E088169104FA
:100AB00009F7E414F50469F5270191E1490E511C89
:100AC000FFEF6F1A7F0A28E06216710409F0BDCFAC
:100AD0009FEFC91AD90AE4E0CE16D10409F0AECFCF
:100AE0002E143F0409F067C01701F1E12F0E311CED
:100AF00020E2E20EF11CC75FDE4F88819981C95068
:100B0000D1400196C75FDE4F99838883C950D14099
:100B100076CFEFEF4E1A5E0AD3CFC95FDE4F8881E2
:100B20009981C750D140C816D9065CF5F50180817E
:100B3000912C812C282F30E0C55FDE4F398328832C
:100B4000CB50D14087E090E088199909C55FDE4F0E
:100B500008811981CB50D14002C0159507958A951F
:100B6000E2F701709301A401B601CE018F549F4FAB
:100B70000E94A5023FEF831A930A88E08816910429
:100B800009F7C35FDE4FE881F981CD50D140AE1641
:100B9000BF0669F45701F1E2AF0EB11C3FEF631AD3
:100BA000730A88E06816710409F0B7CF91CF2FEF70
:100BB000A21AB20AF3CF3FEF231A330A9CCF68EE92
:100BC00073E080E090E00E94170180E090E0892BC4
:100BD00009F4C4CD0E940000C1CDCF93DF93CBE0D8
:100BE000D0E0D0936005C0935F0589E090E09093DA
:100BF0006205809361058AE090E09093640580939C
:100C0000630584E090E090936605809365058BE032
:100C10000E948700809161050E9487008091630592
:100C20000E94870061E0809163050E94A600D09336
:100C30006005C0935F05EFE1F5E0119285E0EF35C7
:100C4000F807D9F7D0E0C0E080916505909166057E
:100C5000C817D907B4F520E04FE0BE018FE095E05A
:100C60000E9449018091650590916605C817D907D2
:100C70003CF427E04BE0BE018FE095E00E94490183
:100C800020E049E0BE018FE095E00E94490180919B
:100C9000650590916605C817D9071CF4CE010E941E
:100CA000C4018091650590916605C817D9073CF489
:100CB00020E04CE0BE018FE095E00E9449012196C2
:100CC000C3CFDF91CF910895EE0FFF1F0590F491F0
:080CD000E02D0994F894FFCF18
:100CD800000000000000000000000000000000000C
:100CE80000001A1C000000000000000000000000C6
:100CF800042424247FC4440404FF04443405040069
:100D080000101221FE40820204C8302844821F00CD
:100D18000126342C2424374C44444C74C445060022
:100D28000082848991E1B2AAA4A4AAB28101010037
:100D38000001061FE0020418F01013101014180028
:100D4800800000FF000830C00201FE00806018002B
:100D580000000F08080808FF080808080F0000002E
:100D68000000F020202020FF20202020F00000009C
:100D7800007F40484949494F49494948407F000058
:100D880000FF0212121212F21252321202FF000077
:100D98000000007F000000000000000000000000CC
:100DA800000000CC0000000000000000000000006F
:100DB80000003FFE208027F8240827F8240827F899
:100DC800225024482944208020444A424A1291F063
:100DD800200011F81108F908090811F81108390854
:100DE800550895F8110811081108110817FE100088
:100DF80000007FFC400440045FF4410441044FE4D8
:100E08004104414441245FF4400440047FFC400411
:100E180020203F20403EBE482AA8FF284A107F28AD
:100E2800044608801F0002103FF801081520221010
:100E380008200820FFFE082000007FFE40028104F1
:100E480001007FFC0380054009203118C10601001C
:100E58001FF0101010101FF0101010101FF00000DD
:100E68003FF8200820083FF8200820083FF820080D
:100E7800009000883FFC208020883E482250222491
:100E88004A54448C81043FF824482448FFFE00005B
:100E9800000000000000000000000000000000004A
:100EA80000000000000030003000100020000000AA
:100EB8001028102410207DFC11201124FD24112855
:100EC800112851105D94512C704450004FFE800041
:100ED8000100010001007FFC010011100910092028
:100EE800FFFE0380054009203118C10601000100FA
:100EF8001028102410207DFC11201124FD24112815
:100F0800112851105D94512C704450004FFE800000
:100F1800100010FC10041008FC102420242025FECA
:100F280024204820282010202820442084A0004085
:100F380000000000000000000000000000000000A9
:100F48000000000000003000300010002000000009
:100F58000000000000000000000000000000000089
:100F68000000000000000000000000000000000079
:100F7800010000803FFE20002080208020802FFC80
:100F88002080214021402220422044108808100659
:100F9800200013FC1204FA040A04120413FC38900B
:100FA800549094901090111211121212140E1800ED
:100FB800200011F81108F908090811F81108390872
:100FC800550895F8110811081108110817FE1000A6
:100FD80000007FFC400440045FF4410441044FE4F6
:100FE8004104414441245FF4400440047FFC400430
:100FF8000000000000007C184424444208420842D3
:101008001042104210421024101800000000000086
:1010180000003FF8210821082FE8210821083FF89F
:10102800200827C82448244827C84008402880109A
:10103800100010001FFC2080208040801FF81080C6
:1010480010801080FFFE00800080008000800080FB
:101058000000000000000000000000000000000088
:1010680000000000000030003000100020000000E8
:10107800FEFFFEFFFC7FFC7FFC7FF83F0001800342
:10108800C007F01FF01FE00FE10FE7CFDFF7FFFF0A
:101098000100010003800380038007C0FFFE7FFC7E
:1010A8003FF80FE00FE01FF01EF018302008000096
:1010B800010001000280028002800440FC7E40049E
:1010C8003018082008201190165018302008000009
:00000001FF
