:020000040000FA
:100000000C9462000C948A000C948A000C948A0070
:100010000C948A000C948A000C948A000C948A0038
:100020000C948A000C948A000C948A000C948A0028
:100030000C948A000C948A000C948A000C948A0018
:100040000C94BD030C948A000C948B030C946503F0
:100050000C948A000C948A000C948A000C948A00F8
:100060000C948A000C948A000000000024002700F1
:100070002A0000000000250028002B0000000000DE
:1000800023002600290004040404040404040202DA
:100090000202020203030303030301020408102007
:1000A0004080010204081020010204081020000012
:1000B0000008000201000003040700000000000027
:1000C0000000070411241FBECFEFD8E0DEBFCDBF74
:1000D00011E0A0E0B1E0EAEBFBE002C005900D9278
:1000E000AC32B107D9F721E0ACE2B1E001C01D921A
:1000F000A03EB207E1F710E0C2E6D0E004C02197CD
:10010000FE010E94D505C136D107C9F70E944F04F0
:100110000C94DB050C940000AF92BF92CF92DF925B
:10012000EF92FF920F931F93CF93DF936C017B01AC
:100130008B01040F151FEB015E01AE18BF08C0173D
:10014000D10759F06991D601ED91FC910190F081B0
:10015000E02DC6010995892B79F7C501DF91CF9173
:100160001F910F91FF90EF90DF90CF90BF90AF90D5
:100170000895FC01538D448D252F30E0842F90E0AD
:10018000821B930B541710F0CF9608950197089592
:10019000FC01918D828D981761F0A28DAE0FBF2F5B
:1001A000B11D5D968C91928D9F5F9F73928F90E0B1
:1001B00008958FEF9FEF0895FC01918D828D981720
:1001C00031F0828DE80FF11D858D90E008958FEF5D
:1001D0009FEF0895FC01918D228D892F90E0805C26
:1001E0009F4F821B91098F739927089580E491E0B6
:1001F0000E94EA0021E0892B09F420E0822F089573
:1002000080E090E0892B29F00E94F60081110C9487
:1002100000000895FC01A48DA80FB92FB11DA35AA9
:10022000BF4F2C91848D90E001968F739927848F16
:10023000A689B7892C93A089B1898C918370806439
:100240008C93938D848D981306C00288F389E02DDA
:1002500080818F7D80830895EF92FF920F931F938B
:10026000CF93DF93EC0181E0888F9B8D8C8D981369
:100270001AC0E889F989808185FF15C09FB7F89475
:10028000EE89FF896083E889F989808183708064C1
:1002900080839FBF81E090E0DF91CF911F910F910C
:1002A000FF90EF900895F62E0B8D10E00F5F1F4F1B
:1002B0000F731127E02E8C8D8E110CC00FB607FC2A
:1002C000FACFE889F989808185FFF5CFCE010E94B8
:1002D0000A01F1CFEB8DEC0FFD2FF11DE35AFF4F1B
:1002E000F0829FB7F8940B8FEA89FB898081806246
:1002F000CFCFCF93DF93EC01888D8823B9F0AA8903
:10030000BB89E889F9898C9185FD03C0808186FDD0
:100310000DC00FB607FCF7CF8C9185FFF2CF80811F
:1003200085FFEDCFCE010E940A01E9CFDF91CF9189
:100330000895833081F028F4813099F08230A9F05B
:1003400008958730A9F08830C9F08430B1F48091E5
:1003500080008F7D03C0809180008F778093800024
:10036000089584B58F7784BD089584B58F7DFBCFC4
:100370008091B0008F778093B00008958091B00095
:100380008F7DF9CF1F93CF93DF93282F30E0F901B2
:10039000E255FF4F8491F901E656FF4FD491F901E0
:1003A000EA57FF4FC491CC23A9F0162F81110E9468
:1003B0009901EC2FF0E0EE0FFF1FEE58FF4FA591D3
:1003C000B4918FB7F894EC91111108C0D095DE2349
:1003D000DC938FBFDF91CF911F910895DE2BF8CF73
:1003E000CF93DF9390E0FC01E656FF4F24918A57AC
:1003F0009F4FFC0184918823D1F090E0880F991FD2
:10040000FC01E859FF4FA591B491FC01EE58FF4F54
:10041000C591D49161110EC09FB7F8948C91E22FD1
:10042000E0958E238C932881E223E8839FBFDF91A0
:10043000CF9108958FB7F894EC91E22BEC938FBF96
:10044000F6CF3FB7F89480912D0190912E01A091A5
:100450002F01B091300126B5A89B05C02F3F19F0A0
:100460000196A11DB11D3FBFBA2FA92F982F882734
:10047000BC01CD01620F711D811D911D42E0660F0F
:10048000771F881F991F4A95D1F70895FF920F9300
:100490001F93CF93DF9360E08091DE010E94F00113
:1004A00000E0D0E0C0E061E08091DF010E94C20185
:1004B00060E08091DF010E94C2012091DE0130E006
:1004C000F901E255FF4F8491F901E656FF4FF49090
:1004D000F901EA57FF4F1491112319F181110E947C
:1004E0009901E12FF0E0EE0FFF1FE458FF4FA591B7
:1004F000B491EC91FE2231E009F430E0832F0C2E10
:1005000001C0880F0A94EAF7082B2196C830D1055C
:1005100009F0C9CF802FDF91CF911F910F91FF90EC
:10052000089580E0ECCFCF92DF92EF92FF920F938D
:100530001F93CF93DF93EC011091DD0160E0809178
:10054000DF010E94C20161E0812F0E94C2018BE0A5
:1005500090E00197F1F761E08091DE010E94F001E7
:10056000F12CE12C2FEBC22ED12CB6010E2C02C0A7
:10057000759567950A94E2F761708091DE010E949B
:10058000C20161E08091DF010E94C20160E087E06A
:10059000E816F10409F071C08091DE010E94F001BB
:1005A0008FEFE81AF80A88E0E816F104F1F60E94E5
:1005B0004602982F929597700AE08F70909F800D59
:1005C000112488830E944602982F92959F708F7005
:1005D000909F800D112489830E944602282F30E0CD
:1005E00087FF50C085FB222720F99CE0299F202D02
:1005F00011248F70280F2A830E944602982F92950B
:100600009F700AE08F70909F800D11248B830E9451
:100610004602982F92959F708F70909F800D1124A5
:100620008C830E944602982F92959F708F70909FA6
:10063000800D112490E09E838D830E944602982FA6
:1006400092959F708F70909F800D112490E0805341
:10065000984F98878F8360E0812F0E94C2018BE0C2
:1006600090E00197F1F7CE01DF91CF911F910F91AB
:10067000FF90EF90DF90CF9008958091DF010E946E
:10068000C2018ECF94E0359527959A95E1F72370B6
:10069000209F202D1124ADCFCF93DF93D82FC8E01A
:1006A0006D2F661F6627661F8BE00E94C201DD0F5B
:1006B00061E08AE00E94C20160E08AE00E94C2011B
:1006C000C15071F7DF91CF9108951F920F920FB62D
:1006D0000F9211242F933F934F935F936F937F93C8
:1006E0008F939F93AF93BF93EF93FF9380E491E039
:1006F0000E940A01FF91EF91BF91AF919F918F915D
:100700007F916F915F914F913F912F910F900FBE0D
:100710000F901F9018951F920F920FB60F921124F1
:100720002F938F939F93EF93FF93E0915001F0915C
:1007300051018081E0915601F091570182FD1BC06B
:100740009081809159018F5F8F7320915A01821798
:1007500041F0E0915901F0E0E05CFE4F958F80930D
:100760005901FF91EF919F918F912F910F900FBEA3
:100770000F901F9018958081F4CF1F920F920FB6A3
:100780000F9211242F933F938F939F93AF93BF9317
:100790008091310190913201A0913301B0913401E7
:1007A00030912C0123E0230F2D3758F50196A11D20
:1007B000B11D20932C018093310190933201A093BD
:1007C0003301B093340180912D0190912E01A091BD
:1007D0002F01B09130010196A11DB11D80932D0113
:1007E00090932E01A0932F01B0933001BF91AF9150
:1007F0009F918F913F912F910F900FBE0F901F905F
:10080000189526E8230F0296A11DB11DD2CFE0E472
:10081000F1E01382128288EE93E0A0E0B0E08483DE
:100820009583A683B7838EE191E09183808385ECE5
:1008300090E09587848784EC90E09787868780ECAA
:1008400090E0918B808B81EC90E0938B828B82EC9B
:1008500090E0958B848B86EC90E0978B868B118E45
:10086000128E138E148EEDEDF1E082E0808383E032
:10087000818384E0828360E082E00E94C20161E0C3
:1008800082E00E94F00160E083E00E94F00160E0FD
:1008900084E00E94C20161E084E00C94F001CF93F7
:1008A000DF93CDB7DEB729970FB6F894DEBF0FBE42
:1008B000CDBF789484B5826084BD84B5816084BDE9
:1008C00085B5826085BD85B5816085BD80916E00EE
:1008D000816080936E00109281008091810082601F
:1008E000809381008091810081608093810080915C
:1008F00080008160809380008091B100846080934B
:10090000B1008091B00081608093B00080917A0046
:10091000846080937A0080917A00826080937A006C
:1009200080917A00816080937A0080917A0080685B
:1009300080937A001092C100E0915001F091510132
:1009400082E08083E0914C01F0914D011082E091B2
:100950004E01F0914F018FEC808310925801E0918D
:100960005401F091550186E08083E0915201F091AD
:100970005301808180618083E0915201F0915301A5
:10098000808188608083E0915201F09153018081E1
:1009900080688083E0915201F091530180818F7DC6
:1009A000808361E08CE00E94F00161E08BE00E94B6
:1009B000F00161E08AE00E94F00160E08BE00E94BB
:1009C000C201CE0101960E94930239814A818B8136
:1009D0002AE0622F0E94C905909337018093360167
:1009E000842F0E94C9059093390180933801832F89
:1009F0000E94C90590933B0180933A010AE023E0ED
:100A0000E22EF12C30E0C32E30E0D32E2FB7F89435
:100A10008091310190913201A0913301B091340164
:100A20002FBF40913C0150913D0160913E0170917A
:100A30003F014C015D01841A950AA60AB70AB50167
:100A4000A401483E53406105710520F180933C01AB
:100A500090933D01A0933E01B0933F01CE010196DA
:100A60000E94930289813A812B81602F0E94C905DF
:100A700090933B0180933A01832F0E94C905909384
:100A8000390180933801822F0E94C9059093370164
:100A900080933601109135011770E0913B01F0E031
:100AA000E05FFE4F808180930701E0913A01F0E022
:100AB000E05FFE4F808180930601E0913801F0E015
:100AC000E05FFE4F808180930301E0913901F0E007
:100AD000E05FFE4F808180930401E0913701F0E0F8
:100AE000E05FFE4F808180930101E0913601F0E0EC
:100AF000E05FFE4F80818093000160E08CE00E9407
:100B0000C201A12EB12CF501E85FFE4F80810E9449
:100B10004C03F501E050FF4F80810E944C031F5FA2
:100B200010933501C7010197F1F761E08CE00E9455
:100B3000C2010E9421024B015C0192E0492E512C1E
:100B4000612C712C0E942102681979098A099B097C
:100B5000683E734081059105A8F388EE880E83E016
:100B6000981EA11CB11C4A9445284628472829F004
:100B7000412C512C32014394E5CFC114D10409F426
:100B800045CF0E94F600882309F440CF0E94000060
:100B90003DCF991B79E004C0991F961708F0961B6A
:100BA000881F7A95C9F780950895EE0FFF1F05906D
:100BB000F491E02D0994F894FFCF0000BF0000BF2E
:100BC00000000102040810204080C0F9A4B09992EE
:100BD00082F88090000000002C018C00B90079019F
:060BE000EA00C800DC0081
:107E0000112484B714BE81FFF0D085E080938100F7
:107E100082E08093C00088E18093C10086E0809377
:107E2000C20080E18093C4008EE0C9D0259A86E02C
:107E300020E33CEF91E0309385002093840096BBD3
:107E4000B09BFECF1D9AA8958150A9F7CC24DD24C4
:107E500088248394B5E0AB2EA1E19A2EF3E0BF2EE7
:107E6000A2D0813461F49FD0082FAFD0023811F036
:107E7000013811F484E001C083E08DD089C08234E0
:107E800011F484E103C0853419F485E0A6D080C0E4
:107E9000853579F488D0E82EFF2485D0082F10E0AE
:107EA000102F00270E291F29000F111F8ED06801E7
:107EB0006FC0863521F484E090D080E0DECF843638
:107EC00009F040C070D06FD0082F6DD080E0C81688
:107ED00080E7D80618F4F601B7BEE895C0E0D1E017
:107EE00062D089930C17E1F7F0E0CF16F0E7DF06D8
:107EF00018F0F601B7BEE89568D007B600FCFDCFD4
:107F0000A601A0E0B1E02C9130E011968C91119780
:107F100090E0982F8827822B932B1296FA010C0160
:107F200087BEE89511244E5F5F4FF1E0A038BF0790
:107F300051F7F601A7BEE89507B600FCFDCF97BE46
:107F4000E89526C08437B1F42ED02DD0F82E2BD052
:107F50003CD0F601EF2C8F010F5F1F4F84911BD097
:107F6000EA94F801C1F70894C11CD11CFA94CF0C13
:107F7000D11C0EC0853739F428D08EE10CD085E9AC
:107F80000AD08FE07ACF813511F488E018D01DD067
:107F900080E101D065CF982F8091C00085FFFCCF94
:107FA0009093C60008958091C00087FFFCCF809118
:107FB000C00084FD01C0A8958091C6000895E0E648
:107FC000F0E098E1908380830895EDDF803219F02E
:107FD00088E0F5DFFFCF84E1DECF1F93182FE3DFCA
:107FE0001150E9F7F2DF1F91089580E0E8DFEE27F6
:047FF000FF270994CA
:027FFE00040479
:00000001FF
