:100000000C9462000C948A000C948A000C948A0070
:100010000C948A000C948A000C948A000C948A0038
:100020000C948A000C948A000C948A000C948A0028
:100030000C948A000C948A000C948A000C948A0018
:100040000C94DE020C948A000C94AC020C94860290
:100050000C948A000C948A000C948A000C948A00F8
:100060000C948A000C948A000000000024002700F1
:100070002A0000000000250028002B0000000000DE
:1000800023002600290004040404040404040202DA
:100090000202020203030303030301020408102007
:1000A0004080010204081020010204081020000012
:1000B0000008000201000003040700000000000027
:1000C0000000280311241FBECFEFD8E0DEBFCDBF54
:1000D00011E0A0E0B1E0EEECF9E002C005900D9275
:1000E000A432B107D9F721E0A4E2B1E001C01D922A
:1000F000A53DB207E1F710E0C2E6D0E004C02197C9
:10010000FE010E94DF04C136D107C9F70E947003C7
:100110000C94E5040C940000AF92BF92CF92DF9252
:10012000EF92FF920F931F93CF93DF936C017B01AC
:100130008B01040F151FEB015E01AE18BF08C0173D
:10014000D10759F06991D601ED91FC910190F081B0
:10015000E02DC6010995892B79F7C501DF91CF9173
:100160001F910F91FF90EF90DF90CF90BF90AF90D5
:100170000895FC01538D448D252F30E0842F90E0AD
:10018000821B930B541710F0CF9608950197089592
:10019000FC01918D828D981761F0A28DAE0FBF2F5B
:1001A000B11D5D968C91928D9F5F9F73928F90E0B1
:1001B00008958FEF9FEF0895FC01918D828D981720
:1001C00031F0828DE80FF11D858D90E008958FEF5D
:1001D0009FEF0895FC01918D228D892F90E0805C26
:1001E0009F4F821B91098F739927089585E391E0B2
:1001F0000E94EA0021E0892B09F420E0822F089573
:1002000080E090E0892B29F00E94F60081110C9487
:1002100000000895FC01A48DA80FB92FB11DA35AA9
:10022000BF4F2C91848D90E001968F739927848F16
:10023000A689B7892C93A089B1898C918370806439
:100240008C93938D848D981306C00288F389E02DDA
:1002500080818F7D80830895EF92FF920F931F938B
:10026000CF93DF93EC0181E0888F9B8D8C8D981369
:100270001AC0E889F989808185FF15C09FB7F89475
:10028000EE89FF896083E889F989808183708064C1
:1002900080839FBF81E090E0DF91CF911F910F910C
:1002A000FF90EF900895F62E0B8D10E00F5F1F4F1B
:1002B0000F731127E02E8C8D8E110CC00FB607FC2A
:1002C000FACFE889F989808185FFF5CFCE010E94B8
:1002D0000A01F1CFEB8DEC0FFD2FF11DE35AFF4F1B
:1002E000F0829FB7F8940B8FEA89FB898081806246
:1002F000CFCFCF93DF93EC01888D8823B9F0AA8903
:10030000BB89E889F9898C9185FD03C0808186FDD0
:100310000DC00FB607FCF7CF8C9185FFF2CF80811F
:1003200085FFEDCFCE010E940A01E9CFDF91CF9189
:100330000895833081F028F4813099F08230A9F05B
:1003400008958730A9F08830C9F08430B1F48091E5
:1003500080008F7D03C0809180008F778093800024
:10036000089584B58F7784BD089584B58F7DFBCFC4
:100370008091B0008F778093B00008958091B00095
:100380008F7DF9CF1F93CF93DF93282F30E0F901B2
:10039000E255FF4F8491F901E656FF4FD491F901E0
:1003A000EA57FF4FC491CC23A9F0162F81110E9468
:1003B0009901EC2FF0E0EE0FFF1FEE58FF4FA591D3
:1003C000B4918FB7F894EC91111108C0D095DE2349
:1003D000DC938FBFDF91CF911F910895DE2BF8CF73
:1003E000CF93DF9390E0FC01E656FF4F24918A57AC
:1003F0009F4FFC0184918823D1F090E0880F991FD2
:10040000FC01E859FF4FA591B491FC01EE58FF4F54
:10041000C591D49161110EC09FB7F8948C91E22FD1
:10042000E0958E238C932881E223E8839FBFDF91A0
:10043000CF9108958FB7F894EC91E22BEC938FBF96
:10044000F6CFFF920F931F93CF93DF9360E08091DD
:10045000D3010E94F00100E0D0E0C0E061E08091B3
:10046000D4010E94C20160E08091D4010E94C201C7
:100470002091D30130E0F901E255FF4F8491F90159
:10048000E656FF4FF490F901EA57FF4F14911123FC
:1004900019F181110E949901E12FF0E0EE0FFF1F89
:1004A000E458FF4FA591B491EC91FE2231E009F49C
:1004B00030E0832F0C2E01C0880F0A94EAF7082B36
:1004C0002196C830D10509F0C9CF802FDF91CF9197
:1004D0001F910F91FF90089580E0ECCFCF93DF93B1
:1004E000D82FC8E060E08AE00E94C20161E0D7FF37
:1004F00060E08BE00E94C20161E08AE00E94C201DC
:10050000DD0FC15079F7DF91CF9108951F920F92BF
:100510000FB60F9211242F933F934F935F936F93D6
:100520007F938F939F93AF93BF93EF93FF9385E355
:1005300091E00E940A01FF91EF91BF91AF919F91CD
:100540008F917F916F915F914F913F912F910F907C
:100550000FBE0F901F9018951F920F920FB60F921B
:1005600011242F938F939F93EF93FF93E091450175
:10057000F09146018081E0914B01F0914C0182FDA8
:100580001BC0908180914E018F5F8F7320914F012E
:10059000821741F0E0914E01F0E0EB5CFE4F958F49
:1005A00080934E01FF91EF919F918F912F910F902A
:1005B0000FBE0F901F9018958081F4CF1F920F925D
:1005C0000FB60F9211242F933F938F939F93AF9366
:1005D000BF938091290190912A01A0912B01B091A4
:1005E0002C013091280123E0230F2D3758F5019677
:1005F000A11DB11D209328018093290190932A0108
:10060000A0932B01B0932C0180912401909125019E
:10061000A0912601B09127010196A11DB11D8093E3
:10062000240190932501A0932601B0932701BF9147
:10063000AF919F918F913F912F910F900FBE0F908F
:100640001F90189526E8230F0296A11DB11DD2CF49
:10065000E5E3F1E01382128288EE93E0A0E0B0E0DF
:1006600084839583A683B78386E191E09183808319
:1006700085EC90E09587848784EC90E09787868767
:1006800080EC90E0918B808B81EC90E0938B828B5F
:1006900082EC90E0958B848B86EC90E0978B868B38
:1006A000118E128E138E148EE2EDF1E082E08083C3
:1006B00083E0818384E0828360E082E00E94C20163
:1006C00061E082E00E94F00160E083E00E94F001BE
:1006D00060E084E00E94C20161E084E00C94F001DB
:1006E000789484B5826084BD84B5816084BD85B50D
:1006F000826085BD85B5816085BD80916E00816019
:1007000080936E00109281008091810082608093BE
:1007100081008091810081608093810080918000C0
:100720008160809380008091B10084608093B100EB
:100730008091B00081608093B00080917A008460E5
:1007400080937A0080917A00826080937A00809111
:100750007A00816080937A0080917A00806880932B
:100760007A001092C100E0914501F091460182E0CB
:100770008083E0914101F09142011082E0914301B8
:10078000F09144018FEC808310924D01E09149017A
:10079000F0914A0186E08083E0914701F0914801A1
:1007A000808180618083E0914701F09148018081E0
:1007B00088608083E0914701F091480180818068E2
:1007C0008083E0914701F091480180818F7D808393
:1007D00061E08CE00E94F00161E08BE00E94F0019A
:1007E00061E08AE00E94F00160E08BE00E94C201BB
:1007F0002BE0E22EF12C3FEBA32EB12CCAE04CE013
:10080000742EDFEB52E1C52E51E0D52E9090D2012F
:1008100060E08091D4010E94C20161E0892D0E94B4
:10082000C201C7010197F1F761E08091D3010E94F5
:10083000F00110E000E0B501002E02C0759567954B
:100840000A94E2F761708091D3010E94C20161E0D5
:100850008091D4010E94C20160E00730110509F0C7
:1008600093C08091D3010E94F0010F5F1F4F0830A9
:10087000110509F70E942102982F929597708F70A9
:10088000182F9C9F100D11240E942102982F9295E1
:100890009F708F70082F9C9F000D11240E942102D1
:1008A000282F30E087FF75C085FB222720F9279D80
:1008B000202D11248F70882E820E0E9421020E940A
:1008C00021020E9421020E94210260E0892D0E94E3
:1008D000C201C7010197F1F7882D6C2F0E94D30444
:1008E000E82FF0E0E050FF4F808180932D01E92F49
:1008F000F0E0E050FF4F808180932E01D0932F01D4
:10090000802F0E94D304E82FF0E0E050FF4F808159
:1009100080933001E92FF0E0E050FF4F8081809319
:100920003101D0933201812F0E94D304E82FF0E0EF
:10093000E050FF4F808180933301E92FF0E0E050D9
:10094000FF4F80818093340160E08CE00E94C201FF
:100950000AE011E08DE2882E81E0982EF801819165
:100960008F010E946E02F40181914F010E946E027C
:1009700061E08CE00E94C20160E08CE00E94C20154
:10098000C016D10659F742CF8091D4010E94C2010E
:100990006CCF94E0359527959A95E1F723702C9FBD
:1009A000202D112487CF991B79E004C0991F961739
:1009B00008F0961B881F7A95C9F780950895EE0F69
:0E09C000FF1F0590F491E02D0994F894FFCFED
:1009CE00C0F9A4B0999282F8809001020408102018
:1009DE004080000000002C018C00B9007901EA0073
:0409EE00C800DC0061
:00000001FF
